:100000000C9479000C94A1000C94A1000C94A10014
:100010000C94A1000C94A1000C94A1000C94A100DC
:100020000C94A1000C94A1000C94A1000C94A100CC
:100030000C94A1000C94A1000C94A1000C94A100BC
:100040000C942C070C94A1000C9497020C94710250
:100050000C94A1000C94A1000C94A1000C94A1009C
:100060000C94C9020C94A10034115D0AB30AE00A91
:10007000970BEA0B640C3411170DE510436A3A0034
:100080004C616D6264613A00537570706C793A002E
:100090004D6F64653A0000000000240027002A002C
:1000A00000000000250028002B00000000002300B5
:1000B00026002900040404040404040402020202C9
:1000C000020203030303030301020408102040801B
:1000D000010204081020010204081020000000089A
:1000E00000020100000304070000000000000000FF
:1000F000531211241FBECFEFD8E0DEBFCDBF12E0F8
:10010000A0E0B1E0ECECFBE202C005900D92AA3257
:10011000B107D9F724E0AAE2B2E001C01D92A732EC
:10012000B207E1F710E0C9E7D0E004C02197FE0173
:100130000E94EB12C837D107C9F70E9476070C94CA
:10014000E4150C940000CF92DF92EF92FF920F9390
:100150001F93CF93DF936C017A018B01C0E0D0E055
:10016000CE15DF0581F0D8016D918D01D601ED919D
:10017000FC910190F081E02DC6010995892B11F0C9
:100180002196EECF7E01C701DF91CF911F910F9194
:10019000FF90EF90DF90CF900895FC01538D448D38
:1001A000252F30E0842F90E0821B930B541710F022
:1001B000CF96089501970895FC01918D828D98172F
:1001C00061F0828DDF01A80FB11D5D968C91928D3B
:1001D0009F5F9F73928F90E008958FEF9FEF089538
:1001E000FC01918D828D981731F0828DE80FF11D01
:1001F000858D90E008958FEF9FEF0895FC01918D1C
:10020000228D892F90E0805C9F4F821B91098F7314
:100210009927089585E893E00E94FE0021E0892B4C
:1002200009F420E0822F0895FC01848DDF01A80FDE
:10023000B11DA35ABF4F2C91848D90E001968F730E
:100240009927848FA689B7892C93A089B1898C912D
:10025000837080648C93938D848D981306C002887C
:10026000F389E02D80818F7D80830895EF92FF9246
:100270000F931F93CF93DF93EC0181E0888F9B8DC9
:100280008C8D981305C0E889F989808185FD26C089
:10029000F62E0B8D10E00F5F1F4F0F731127E02E0E
:1002A0008C8DE8120CC00FB607FCFACFE889F989EB
:1002B000808185FFF5CFCE010E941401F1CF8B8D97
:1002C000FE01E80FF11DE35AFF4FF0829FB7F8944B
:1002D0000B8FEA89FB89808180620AC09FB7F894FE
:1002E000EE89FF896083E889F98980818370806461
:1002F00080839FBF81E090E0DF91CF911F910F91AC
:10030000FF90EF900895CF93DF93EC01888D8823C1
:10031000C9F0EA89FB89808185FD05C0A889B98972
:100320008C9186FD0FC00FB607FCF5CF808185FF4D
:10033000F2CFA889B9898C9185FFEDCFCE010E94BB
:100340001401E7CFDF91CF91089580E090E0892BF1
:1003500029F00E940A0181110C940000089585ED96
:100360008093BC008091BC0084FDFCCF10923002D1
:10037000089540913A03262F30E0240F311D213299
:100380003105DCF4209130022430C9F4FC0180E016
:1003900090E0861758F430913A032191DC01A65E73
:1003A000BC4FA30FB11D2C930196F3CF80913A035C
:1003B000680F60933A0380E0089581E0089582E039
:1003C0000895089508950895E091340280913302CC
:1003D000E81730F4F0E0E650FD4F808190E008959A
:1003E0008FEF9FEF08959091340280913302981718
:1003F00050F4E92FF0E0E650FD4F208130E09F5FA0
:100400009093340202C02FEF3FEFC901089580910D
:10041000330290E020913402821B91090895CF921B
:10042000DF92EF92FF920F931F93CF93DF937C01A4
:10043000CB018A012091F902222389F0EB016B01A3
:10044000C40ED51ECC15DD0569F06991D701ED917B
:10045000FC910190F081E02DC7010995F3CF642F45
:100460000E94B901C801DF91CF911F910F91FF90B8
:10047000EF90DF90CF900895CF93DF931F92CDB789
:10048000DEB769832091F9022223D1F02091310255
:10049000203240F021E030E0FC013383228380E011
:1004A00090E015C080913202E82FF0E0E752FD4F56
:1004B000998190838F5F809332028093310205C0CF
:1004C00061E0CE0101960E94B90181E090E00F90B9
:1004D000DF91CF910895089580E090E008950E9403
:1004E000DF151F920F920FB60F9211242F933F9397
:1004F0004F935F936F937F938F939F93AF93BF932C
:10050000EF93FF9385E893E00E941401FF91EF9130
:10051000BF91AF919F918F917F916F915F914F911B
:100520003F912F910F900FBE0F901F9018951F9223
:100530000F920FB60F9211242F938F939F93EF93E7
:10054000FF93E0919503F09196038081E0919B03E6
:10055000F0919C0382FD12C0908180919E038F5F79
:100560008F7320919F03821751F0E0919E03F0E07A
:10057000EB57FC4F958F80939E0301C08081FF91C4
:10058000EF919F918F912F910F900FBE0F901F9021
:1005900018951F920F920FB60F9211242F933F932D
:1005A0004F935F936F937F938F939F93AF93BF937B
:1005B000EF93FF938091B900887F803609F49CC047
:1005C00068F5883209F45BC090F4803109F454C0B6
:1005D00038F4882309F4F6C0883009F44DC0F6C019
:1005E000883109F44CC0803209F45DC0EFC080341A
:1005F00009F468C048F4803309F455C0883309F021
:10060000E5C080935D03D8C0803509F44FC08835BC
:1006100009F45DC0883409F0D9C0D6C0883909F41E
:10062000C7C0A8F4883709F467C038F4883609F4DD
:1006300063C0803709F460C0C9C0883809F4B8C005
:10064000803909F45FC0803809F0C0C05BC0803BCE
:1006500009F486C038F4803A09F466C0883A09F48F
:100660007FC0B4C0803C09F4A7C0883C09F4A4C092
:10067000883B09F48AC0AAC08091800310C0909181
:100680007F0380917E03981770F5E0917F0381E0EE
:100690008E0F80937F03F0E0E25AFC4F80818093BD
:1006A000BB0085EC86C080935D038EC0E0917F0324
:1006B00081E08E0F80937F038091BB00F0E0E25ACF
:1006C000FC4F808390917F0380917E036EC0E09108
:1006D0007F0381E08E0F80937F038091BB00F0E069
:1006E000E25AFC4F808380912F0281116DC081E01E
:1006F00080932E0284EA61C083E0809330021092DE
:100700005C03CFCF80915C03803208F051C0E09150
:100710005C0381E08E0F80935C038091BB00F0E06E
:10072000E45CFC4F8083BDCF85EC8093BC001092CD
:10073000300280915C03803230F4E0915C03F0E0A1
:10074000E45CFC4F108260915C0370E0E0912A024F
:10075000F0912B028CE393E0099510925C0336C074
:1007600084E08093300210923B0310923A03E091B0
:100770002C02F0912D02099580913A03811105C058
:1007800081E080933A0310921A03E0913B0381E0E9
:100790008E0F80933B03F0E0E65EFC4F80818093F8
:1007A000BB0090913B0380913A03981708F479CFEE
:1007B00085E88093BC000AC085EC8093BC00109251
:1007C000300204C010925D030E94AF01FF91EF91CF
:1007D000BF91AF919F918F917F916F915F914F9159
:1007E0003F912F910F900FBE0F901F9018950F9370
:1007F0001F93CF93C82F8B0181E08093F902C093A0
:10080000D802109232021092310260E485E392E045
:100810000E943C02B80184E0769567958A95E1F7DD
:1008200085E392E00E943C02B80194E0660F771FD6
:100830009A95E1F785E392E00E943C0290913102A3
:10084000913208F045C0809130028111FCCF82E0E6
:100850008093300281E080932F028FEF80935D03BD
:1008600010927F0390937E03A9EDB2E0EEE5F3E0F2
:1008700080E0981721F02D9121938F5FFACF10928D
:10088000800380918003CC0FC82BC093800380919C
:100890002E02813061F410922E02809180038093A9
:1008A000BB008091BC0083FDF8CF85EC01C085EED4
:1008B0008093BC00809130028230E1F380915D032F
:1008C0008F3F31F080915D03803211F080915D03A4
:1008D00010923202109231021092F902CF911F91C0
:1008E0000F910895CF93DF93EC0160E08AE00E94BE
:1008F0002606DEBD00000DB407FEFDCFDEB5CEBD81
:1009000000000DB407FEFDCFCEB561E08AE00E9485
:1009100026068C2F90E09D2BDF91CF910895833098
:1009200081F028F4813099F08230A1F00895873069
:10093000A9F08830B9F08430D1F4809180008F7DA7
:1009400003C0809180008F7780938000089584B5E4
:100950008F7702C084B58F7D84BD08958091B000EB
:100960008F7703C08091B0008F7D8093B000089591
:10097000009769F0FC0101900020E9F73197AF0181
:10098000481B590BBC0185E893E00C94A30080E060
:1009900090E008958F929F92AF92BF920F931F9312
:1009A000CF93DF93CDB7DEB7A1970FB6F894DEBF34
:1009B0000FBECDBF19A2423008F44AE08E010F5D90
:1009C0001F4F842E912CA12CB12CA50194010E94C3
:1009D0009612E62FB901CA0101501109EA3014F448
:1009E000E05D01C0E95CD801EC93232B242B252B7F
:1009F00061F7C8010E94B804A1960FB6F894DEBF53
:100A00000FBECDBFDF91CF911F910F91BF90AF90DF
:100A10009F908F900895CF92DF92EF92FF92CF93A5
:100A2000DF936C01990FEE08FF08F7FE13C06DE22B
:100A300085E893E00E943601EC0166277727CB0119
:100A40006C197D098E099F094AE00E94CA04C80FEB
:100A5000D91F06C04AE0C701B6010E94CA04EC01D2
:100A600082E292E00E94B8048C0F9D1FDF91CF912B
:100A7000FF90EF90DF90CF9008950F931F93CF9347
:100A8000DF938C01C0E0D0E0F801EC0FFD1F649112
:100A9000662341F085E893E00E943601892B11F02E
:100AA0002196F2CFCE01DF91CF911F910F91089542
:100AB0004F925F926F927F928F929F92AF92BF926E
:100AC000CF92DF92EF92FF926B017C012FEF3FEF0D
:100AD0004FE75FE40E946D15181634F485E292E04A
:100AE0000E94B8047C0176C02FEF3FEF4FE75FEC28
:100AF000C701B6010E940E1487FDF0CF20E030E060
:100B0000A901C701B6010E940E1487FF0BC06DE258
:100B100085E893E00E9436015C01F7FAF094F7F85B
:100B2000F09402C0A12CB12C2BE037ED43EA5BE33B
:100B3000C701B6010E94A2132B013C010E948C1434
:100B40006B017C010E94BB149B01AC01C301B2018B
:100B50000E94A1132B013C014AE0C701B6010E948B
:100B6000CA047C01EA0CFB1C6EE285E893E00E945B
:100B70003601E80EF91E20E030E040E251E4C30106
:100B8000B2010E9472152B013C010E948C144B0192
:100B9000A12CB12C4AE0C501B4010E94CA04E80EA0
:100BA000F91EC501B4010E94BB149B01AC01C30135
:100BB000B2010E94A11320E030E040E251E40E9423
:100BC00072150E948C1480E090E04AE00E94CA04F2
:100BD000E80EF91E82E292E00E94B8048E0D9F1D7D
:100BE000FF90EF90DF90CF90BF90AF909F908F904D
:100BF0007F906F905F904F900895CF93DF93282F51
:100C000030E0F901E452FF4F8491F901E853FF4FBE
:100C1000D491F901EC54FF4FC491CC2391F0811190
:100C20000E948F04EC2FF0E0EE0FFF1FE655FF4F00
:100C3000A591B491EC91ED2381E090E021F480E066
:100C400002C080E090E0DF91CF9108951F93CF9391
:100C5000DF93282F30E0F901E452FF4F8491F9012E
:100C6000E853FF4FD491F901EC54FF4FC491CC23CA
:100C7000C1F0162F81110E948F04EC2FF0E0EE0FCF
:100C8000FF1FE056FF4FA591B4919FB7F894111143
:100C900004C08C91D095D82302C0EC91DE2BDC935C
:100CA0009FBFDF91CF911F910895CF93DF9390E085
:100CB000FC01E853FF4F2491FC01EC54FF4F849159
:100CC000882361F190E0880F991FFC01EA56FF4FDD
:100CD000C591D491FC01E056FF4FA591B4916111EB
:100CE00009C09FB7F8948881209582238883EC916E
:100CF0002E230BC0623061F49FB7F8948881322FA5
:100D0000309583238883EC912E2B2C939FBF06C0B4
:100D10008FB7F894E8812E2B28838FBFDF91CF9176
:100D200008951F93CF93DF93182FEB0161E00E948A
:100D30005506209711F460E004C0CF3FD10539F487
:100D400061E0812FDF91CF911F910C942606E12F56
:100D5000F0E0E452FF4FE491E330F9F048F4E13081
:100D6000B9F0E230A1F584B5806284BDC8BD34C05D
:100D7000E730E9F0E83019F1E43049F5809180007E
:100D8000806280938000D0938B00C0938A0024C03F
:100D900084B5806884BDC7BD1FC080918000806815
:100DA00080938000D0938900C093880015C0809103
:100DB000B00080688093B000C093B3000DC08091F4
:100DC000B00080628093B000C093B40005C0C0380A
:100DD000D1050CF0B5CFAFCFDF91CF911F91089522
:100DE0008E3008F08E508770806480937C008091F4
:100DF0007A00806480937A0080917A0086FDFCCF2F
:100E0000809178002091790090E0922B08953FB76F
:100E1000F8948091230490912404A0912504B0912A
:100E2000260426B5A89B05C02F3F19F00196A11DE9
:100E3000B11D3FBFBA2FA92F982F8827820F911D70
:100E4000A11DB11DBC01CD0142E0660F771F881FB7
:100E5000991F4A95D1F708951F920F920FB60F92DE
:100E600011242F933F938F939F93AF93BF938091C0
:100E7000810390918203A0918303B0918403309108
:100E8000220423E0230F2D3720F40196A11DB11D6C
:100E900005C026E8230F0296A11DB11D2093220450
:100EA0008093810390938203A0938303B093840380
:100EB0008091230490912404A0912504B0912604EC
:100EC0000196A11DB11D8093230490932404A09347
:100ED0002504B0932604BF91AF919F918F913F91CC
:100EE0002F910F900FBE0F901F901895CF93DF9307
:100EF000CDB7DEB767970FB6F894DEBF0FBECDBF94
:100F0000789484B5826084BD84B5816084BD85B5E4
:100F1000826085BD85B5816085BD80916E008160F0
:100F200080936E0010928100809181008260809396
:100F30008100809181008160809381008091800098
:100F40008160809380008091B10084608093B100C3
:100F50008091B00081608093B00080917A008460BD
:100F600080937A0080917A00826080937A008091E9
:100F70007A00816080937A0080917A008068809303
:100F80007A001092C10087E3E1EAF2E0DF011D92EE
:100F90008A95E9F78BE0E6E9F2E0DF011D928A9598
:100FA000E9F788E0EEE8F2E0DF011D928A95E9F7C3
:100FB00086E0EAE7F2E0DF011D928A95E9F74BE06F
:100FC00050E060E070E08FE692E00E94591280915C
:100FD00075028F3FF1F492E0909375028AE080935E
:100FE0006F02809370029093730296E9909372025D
:100FF0008093710281E18093740280E797E190937E
:1010000077028093760288EE93E090937902809342
:1010100078024BE050E060E070E08FE692E00E94E2
:10102000691261E08AE00E94550661E088E00E9452
:10103000550661E085E00E94550661E089E00E9466
:10104000550661E086E00E94550660E084E00E945B
:10105000550662E082E00E94550662E083E00E944D
:10106000550684E0809381008CE08093B80061E0B5
:101070008AE00E94260660E088E00E94260660E082
:1010800085E00E94260660E089E00E94260660E076
:1010900086E00E94260610925F0210925E02109275
:1010A000610210926002109262021092630210922A
:1010B000640210926502109266021092670210920A
:1010C00068021092690210926A0210926B021092EA
:1010D0006C0210926D0210925D0280E091E1A0E03E
:1010E000B0E08093410290934202A0934302B093F8
:1010F000440287E090E0A0E0B0E080934502909346
:101100004602A0934702B0934802109249021092FF
:101110004A0210924B0210924C0210924D028FEF35
:1011200080934E0210924F02109250021092510280
:1011300010925202109253021092540210925502D1
:1011400010925602109257021092580210925902B1
:1011500010925A0210925B0210925C02EFB6E98282
:10116000F89480916E02811127C0EEEBF0E084913B
:10117000E2EDF0E09491E82FF0E0EE0FFF1FEA5669
:10118000FF4FA591B491EC91E92321F461E08AE04D
:101190000E94260661E08AE00E9455068CB58061B7
:1011A0008CBD8CB580648CBD61E08DE00E945506DD
:1011B00061E08BE00E94550680916E028F5F809304
:1011C0006E02F980FFBE8CB58C7F81608CBD8DB5C1
:1011D00081608DBD8CB58F7D8CBD8CB5837F846027
:1011E0008CBD10923402109233021092320210928F
:1011F00031021092300281E080932F0210922E0271
:1012000061E082E10E94260661E083E10E942606F9
:101210008091B9008E7F8093B9008091B9008D7F55
:101220008093B90088E48093B80085E48093BC0083
:1012300081EE91E090932D0280932C0282EE91E05A
:1012400090932B0280932A02E0919503F0919603EC
:1012500082E08083E0919103F09192031082E0910B
:101260009303F091940380E1808310929D03E091B9
:101270009903F0919A0386E08083E0919703F091BF
:101280009803808180618083E0919703F0919803B7
:10129000808188608083E0919703F091980380813A
:1012A00080688083E0919703F091980380818F7D1F
:1012B00080830E9407074B015C01EAEFCE2ED12C00
:1012C000E12CF12C0E940707DC01CB018819990958
:1012D000AA09BB09883E9340A105B10598F301E036
:1012E000C01AD108E108F10818EE810E13E0911E32
:1012F000A11CB11CC114D104E104F10419F70FB60B
:10130000F894A895809160008861809360001092A5
:1013100060000FBEA8959CE088E10FB6F894A895F0
:10132000809360000FBE90936000A8952FB7F8944B
:101330008091810390918203A0918303B0918403F3
:101340002FBF8093A4029093A502A093A602B0930E
:10135000A7024091A8025091A9026091AA0270913F
:10136000AB02841B950BA60BB70B0297A105B10529
:1013700010F40C94F51182E00E94F00690939B0209
:1013800080939A0283E00E94F00690939D028093DE
:101390009C0281E00E94F00690939702809396024F
:1013A00080E00E94F006909399028093980284E076
:1013B0000E94FD0580939E0282E00E94FD058093BD
:1013C0009F0283E00E94FD058093A002A0919C02F1
:1013D000B0919D0228E833E10E94F1122FEF33E033
:1013E00040E050E00E9496123093CA022093C90256
:1013F00079ECE72E74E0F72EE21AF30AF092C502B8
:10140000E092C402A0919A02B0919B0224EB3FE5C6
:101410000E94F1122FEF33E040E050E00E9496125C
:101420002E0D3F1D3093C7022093C602245039422F
:101430002536394178F08091C8028F5F833068F09B
:101440001092C8028091A102813051F181E0809315
:10145000A10205C01092C80202C08093C802809108
:10146000A10282508230E0F48091A4029091A50202
:10147000A091A602B091A7024091C0025091C10272
:101480006091C2027091C302841B950BA60BB70B2F
:1014900088389341A105B10518F081E08093A1023D
:1014A000E091A1028E2F90E08A30910508F0DCC611
:1014B000FC01EC5CFF4F0C94EB1281E08093A102E5
:1014C00084E690E09093D7028093D6028EE997E06D
:1014D0009093910280939002909393028093920252
:1014E00089E780938F0210928E02109295021092DB
:1014F000A3021092A2021092D2021092D102109274
:10150000D4021092D3021092CE021092CD02109209
:10151000CF021092D0021092D5028091C602909113
:10152000C702895F9A428B37954150F480918D02B2
:101530008F5F80938D028A3028F082E08093A10231
:1015400010928D028091A4029091A502A091A60212
:10155000B091A7028093C0029093C102A093C202EF
:10156000B093C30284C682E08093A10280E098E732
:101570000E9472049093CE028093CD0298728F3FA6
:101580009842D9F480918C028F5F80938C028A30CC
:1015900008F46DC683E08093A1028091A40290912B
:1015A000A502A091A602B091A7028093C0029093D9
:1015B000C102A093C202B093C30210928C0257C61C
:1015C00083E08093A1028091CF028130C9F08DE940
:1015D00096E50E94720481E08093CF0210928B0204
:1015E0008091A4029091A502A091A602B091A702B9
:1015F0008093B0029093B102A093B202B093B30271
:101600008091A4029091A502A091A602B091A70298
:101610004091B0025091B1026091B2027091B30258
:10162000841B950BA60BB70B86399105A105B10557
:1016300008F41DC62091960230919702C90187597E
:101640009109893F910548F58091980290919902FE
:10165000AC014759510945395105F8F44091D1027F
:101660005091D202240F351F3093D2022093D10221
:101670002091D3023091D402820F931F9093D40211
:101680008093D3029091940281E089278093940201
:1016900080918B028F5F80938B0280918B028A30C6
:1016A00008F482C58091D1029091D2022AE030E004
:1016B000B9010E94D7127093D2026093D102809137
:1016C000D3029091D402B9010E94D7127093D40230
:1016D0006093D30281E08093940284E08093A1021E
:1016E0008AE192E00E94B8048091D1029091D202E6
:1016F0000E940B058EE192E00E94B8048091D30213
:101700009091D4020E940B058091A4029091A502B1
:10171000A091A602B091A7028093C0029093C1024B
:10172000A093C202B093C30210928B023DC584E025
:101730008093A1028091CF028230B9F088E896E5CB
:101740000E94720482E08093CF028091A402909163
:10175000A502A091A602B091A70280938702909360
:101760008802A0938902B0938A024091A40250910A
:10177000A5026091A6027091A702809187029091C4
:101780008802A0918902B0918A027A018B01E81A3D
:10179000F90A0A0B1B0BD801C7018A3F9105A10565
:1017A000B10570F09091950281E0892780939502B0
:1017B00040938702509388026093890270938A0253
:1017C00080919E02811153C585E08093A102109201
:1017D00095024DC585E08093A1029091D502C090FD
:1017E000A402D090A502E090A602F090A702953046
:1017F00091F08093D502C0928302D0928402E0924D
:101800008502F0928602C092AC02D092AD02E092C4
:10181000AE02F092AF022091C6023091C702032EB1
:10182000000C440B550B64E276ED85E090E00E94DD
:101830009612233218F420938E0203C082E2809322
:101840008E028091AC029091AD02A091AE02B09157
:10185000AF0297018601081B190B2A0B3B0BD9011C
:10186000C80180379741A105B10558F086E0809303
:10187000A102C092C002D092C102E092C202F092D4
:10188000C3028091830290918402A0918502B0915D
:101890008602A7019601281B390B4A0B5B0B2436E5
:1018A00031054105510508F4E2C49091950281E0AB
:1018B000892780939502C0928302D0928402E0929D
:1018C0008502F0928602D3C486E08093A1029091B3
:1018D000D502C090A402D090A502E090A602F0909C
:1018E000A702963009F444C08093D502C092AC029E
:1018F000D092AD02E092AE02F092AF02C092B4027A
:10190000D092B502E092B602F092B7020091C60200
:101910001091C7021A8309834801110FAA08BB0856
:1019200060EC70E28FE190E0A50194010E949612B4
:10193000122F60E77EE881E090E0A50194010E940B
:1019400096122093820229813A81283C324324F462
:101950008FEF809381020AC068E375E982E390E02B
:10196000A50194010E9496122093810210938E0289
:101970008091AC029091AD02A091AE02B091AF0205
:1019800097018601081B190B2A0B3B0BD901C801D3
:10199000883E9340A105B105A8F19091950281E0A0
:1019A00089278093950220918E02909181022917B8
:1019B00058F460919802709199024091D30250912D
:1019C000D4024617570764F088E08093A102C092C2
:1019D000C002D092C102E092C202F092C3020AC0D9
:1019E00080918202820F981718F080938E0202C0B5
:1019F00090938E02C092AC02D092AD02E092AE0201
:101A0000F092AF028091B4029091B502A091B6021B
:101A1000B091B702C81AD90AEA0AFB0A28E9C21625
:101A20002AE3D206E104F10408F01EC420C488E0D1
:101A30008093A1028091D502873019F087E08093CE
:101A4000D5028091CF02823039F088E896E50E9475
:101A5000720482E08093CF028091A4029091A5024B
:101A6000A091A602B091A70289879A87AB87BC870D
:101A70008091AC029091AD02A091AE02B091AF0204
:101A8000E984FA840B851C85E81AF90A0A0B1B0BFA
:101A9000D801C7010A97A105B10508F4D9C1809101
:101AA000D502873009F0C4C1209098023090990285
:101AB000A101032C000C660B770B8091D30290914F
:101AC000D402092E000CAA0BBB0B2A013B01481AB9
:101AD000590A6A0A7B0A20914102309142024091E0
:101AE000430250914402211531054105510549F049
:101AF000C301B2010E94C71269837A838B839C83DE
:101B000004C019821A821B821C8200914502109126
:101B10004602209147023091480201151105210526
:101B2000310509F482C058016901E12CF12C00E073
:101B300010E09201A301D301C201BB0F880B982FC3
:101B4000DC018D839E83AF83B8876D81762F862FCE
:101B5000962F0E94F812A0906202B0906302C0908B
:101B60006402D0906502E0906602F09067020091F6
:101B70006802109169020E946F1379018A012F3F58
:101B8000EFEF3E074E07EFE75E0761057105810540
:101B90009105A1F09CF08FEF809362028093630225
:101BA000809364028FE78093650210926602109220
:101BB000670210926802109269022EC02115310549
:101BC0004105E0E85E07EFEF6E077E078E079E0790
:101BD0008CF020936202F0926302409364021093AF
:101BE0006502609366027093670280936802909327
:101BF000690212C010926202109263021092640293
:101C000080E8809365028FEF80936602809367027D
:101C10008093680280936902E0906202F090630210
:101C2000009164021091650203C0E12CF12C870140
:101C30006091490270914A0280914B0290914C024E
:101C4000611571058105910509F449C080906A020A
:101C500090906B02A0906C02B0906D02A301920173
:101C6000281939094A095B0949015A0140915E0264
:101C700050915F02D101A41BB50B9D01BB0F440B1A
:101C8000550B30925F0220925E0240926A0250929F
:101C90006B0260926C0270926D02821A930AA40A1F
:101CA000B50A8114B0E89B06BFEFAB06BB0634F45F
:101CB000812CF0E89F2EAA24AA94BA2CA5019401A5
:101CC0008114E0E89E06A104B10424F02FEF3FE761
:101CD00040E050E00E94C7122B013C0103C0412CA0
:101CE000512C320189809A80AB80BC80BB0C880863
:101CF000982C5401A8019701550F220B322FA901EE
:101D00002D833E834F83588729813A814B815C81A3
:101D1000682D782D882D982D57016801ED80FE2CB7
:101D20000E2D1E2D0E946F1383017201110FEE08FC
:101D3000FE2C8701E982FA820B831C835201630126
:101D4000E980FE2C0E2D1E2D0E946F132A013B01EF
:101D500089839D8380904D0290904E02A0914F0206
:101D6000AF8BB0915002BD8BB0915102A091520245
:101D7000F0915302E09154025401CF88DD88EB2E9C
:101D8000FA2E0F2F1E2F0E94781309F08CF5E09188
:101D90005502ED87F0915602FE87A0915702AF875A
:101DA000B0915802B88BE0915902E98BF0915A0238
:101DB000FA8BA0915B02AB8BB0915C02BC8B4901AA
:101DC0004F8B5D8AB62FA72DF82FE92FAD84BE84E7
:101DD000CF84D888E988FA880B891C890E947813F7
:101DE0003CF44501CF8ADD8ABE2DAF2DF02FE12FC7
:101DF00094014F895D896B2F7A2F8F2F9E2F08E0DA
:101E00000E945113E22FF32F282D207830E040E07C
:101E100050E060E070E080E090E0A0E00E9481137C
:101E200009F03196E0938E0281E08093950204C020
:101E300010928E0210929502E984FA840B851C851B
:101E4000E092AC02F092AD020093AE021093AF02AA
:101E50008091B0029091B102A091B202B091B30210
:101E600009851A852B853C85081B190B2A0B3B0B12
:101E7000083011052105310508F4F9C180E098E723
:101E80000E9472049093CC028093CB0298728F3F91
:101E9000984289F08091D0028F5F8093D002833086
:101EA00090F084E090E09093CE028093CD0289E0A0
:101EB0008093A10206C082E090E09093CE028093CE
:101EC000CD021092D0028091A102893009F45CC148
:101ED0006091960270919702E090D102F090D20248
:101EE000FA82E9826E157F0509F40DC1072E000CF8
:101EF000880B990B0E94BD142AE038E240EA5BE3AC
:101F00000E9472156B017C0109811A81B801110FC1
:101F1000880B990B0E94BD142AE038E240EA5BE38B
:101F20000E9472159B01AC01C701B6010E94A1136A
:101F30002091CF02223039F0C12CD12C48E8E42E78
:101F400041E4F42E05C0C12CD12CE12C31E4F32E58
:101F500020E030E04AE754E40E9472154B015C0136
:101F60002AE939E947E752E4C701B6010E94721530
:101F70009B01AC01C501B4010E94131420E030E0C4
:101F80004AE754E40E9472150E9485148B017093F5
:101F90007B0260937A02613328EF72070CF4A7C0CA
:101FA0006A3C38E073070CF024C220E0222E21E0C6
:101FB000322E40E351E05A834983CB01770FAA0BBD
:101FC000BB0B8D839E83AF83B887A981BA81ED90C7
:101FD000FD90BA83A983FA86E9860E151F0551F490
:101FE000D1016D917C91072E000C880B990B0E94FA
:101FF000BD1464C0E984FA840E151F050CF461C099
:10200000A981BA816D917C91601771070CF459C058
:10201000072E000C880B990B0E94BD144B015C012C
:10202000F10162817381072E000C880B990B0E94CD
:10203000BD142B013C01D1016D917C91072E000C48
:10204000880B990B0E94BD149B01AC01C301B20126
:102050000E94A1136B017C01E985FA85BF01FF0F86
:10206000880B990B0E94BD149B01AC01C501B40102
:102070000E94A1139B01AC01C701B6010E94131479
:102080006B017C016D817E818F8198850E94BD14DA
:10209000A70196010E947215A30192010E94A2134A
:1020A0002B013C01A7019601C501B4010E947215E4
:1020B0009B01AC01C301B2010E94A1136B017C0121
:1020C00003C0C12CD12C7601F2E02F0E311C2EE280
:1020D00031E02215330589F020E030E0A901C70185
:1020E000B6010E940E14882309F46FCF06C0C12CDC
:1020F000D12C92E8E92E92E4F92EC701B6010E9494
:102100008514DB0102C0A4E6B0E0B093D702A0932F
:10211000D602A434B10534F0A938B1052CF0A8E8F2
:10212000B0E002C0A4E4B0E02AEF36E10E94F11270
:1021300024E630E040E050E00E94961269017A0106
:10214000AFEFB0E00E948B1264557E498D4091093B
:1021500028E833E140E050E00E94961220938F027D
:10216000AFEFBFE0A70196010E948B126455724B3E
:102170008A4D910928E833E140E050E00E94961230
:10218000309391022093900290919E02913051F4ED
:10219000809180028F5F80938002833028F090933B
:1021A000A10202C0109280028091A4029091A50227
:1021B000A091A602B091A7028093B0029093B102C1
:1021C000A093B202B093B30252C084E690E0909321
:1021D000D7028093D6028EE997E090939102809384
:1021E0009002909393028093920289E780938F02EA
:1021F00010928E024091A4025091A5026091A60215
:102200007091A7028091BC029091BD02A091BE0284
:10221000B091BF027A018B01E81AF90A0A0B1B0B75
:10222000D801C701843F9140A105B105C8F0809154
:10223000CD029091CE02049759F49091940281E0DE
:102240009827909394029091950289278093950204
:102250004093BC025093BD026093BE027093BF02D4
:1022600080919E02813019F481E08093A1026091F7
:102270008E0270E089E00E94910660918F0270E00A
:1022800086E00E9491066091940288E00E942606F2
:102290006091950285E00E942606609190027091FF
:1022A000910284E60E94F70360919202709193027A
:1022B00085E60E94F7038091A4029091A502A09167
:1022C000A602B091A7024091B8025091B902609164
:1022D000BA027091BB02841B950BA60BB70B863913
:1022E0009105A105B10508F470C08091A10281306B
:1022F00029F49091940289278093940280E990E0D8
:102300000E943D058091A1021FE0819FC001112420
:10231000805A9E4F0E94B80482E292E00E94B80464
:1023200088E890E00E943D056091C6027091C70266
:10233000072E000C880B990B0E94BD142FE632E18A
:1023400043E85AE30E9472150E9458058091CD021D
:102350009091CE0202970297B8F480E890E00E9434
:102360003D056091D6027091D702072E000C880BB4
:10237000990B0E94BD142AE037ED43E25CE30E9412
:1023800072150E94580511C08CE790E00E943D052F
:102390006091CB027091CC0280E090E040E10E941D
:1023A000CA0482E292E00E94B8048091A402909153
:1023B000A502A091A602B091A7028093B8029093C3
:1023C000B902A093BA02B093BB028091A40290918B
:1023D000A502A091A602B091A7028093A8029093B3
:1023E000A902A093AA02B093AB020E94A5010C948B
:1023F0009509C12C80ECD82E8CE7E82E84E4F82EC9
:102400007CCEE5E8F3E01382128288EE93E0A0E050
:10241000B0E084839583A683B7838CE092E09183B8
:10242000808385EC90E09587848784EC90E09787A3
:10243000868780EC90E0918B808B81EC90E0938B91
:10244000828B82EC90E0958B848B86EC90E0978B6E
:10245000868B118E128E138E148E0895E5E3F2E0B2
:102460001382128288EE93E0A0E0B0E0848395832B
:10247000A683B7838AEF91E0918380830895E1E496
:10248000F2E0168E158E10A2178E11A212A213A2C0
:1024900014A215A216A217A210A611A612A613A680
:1024A00014A6148E08950E9401120E942E120C94FC
:1024B0003F12DC01CB01FC01F999FECF06C0F2BD51
:1024C000E1BDF89A319600B40D9241505040B8F7F2
:1024D0000895DC01A40FB51F4150504048F0CB01D6
:1024E000840F951F2E910E947A1241505040D0F7D0
:1024F0000895262FF999FECF92BD81BDF89A0197D4
:1025000000B4021639F01FBA20BD0FB6F894FA9A3B
:10251000F99A0FBE08950E94B812A59F900DB49F1E
:10252000900DA49F800D911D11240895A1E21A2EF3
:10253000AA1BBB1BFD010DC0AA1FBB1FEE1FFF1F67
:10254000A217B307E407F50720F0A21BB30BE40BB7
:10255000F50B661F771F881F991F1A9469F76095FE
:102560007095809590959B01AC01BD01CF010895B8
:10257000A29FB001B39FC001A39F700D811D1124C4
:10258000911DB29F700D811D1124911D0895DB01D5
:102590008F939F930E948B12BF91AF91A29F800D4A
:1025A000911DA39F900DB29F900D1124089597FB4C
:1025B000072E16F4009407D077FD09D00E948D13E2
:1025C00007FC05D03EF4909581959F4F0895709536
:1025D00061957F4F0895EE0FFF1F0590F491E02D58
:1025E00009940E94B812B7FF0895821B930B0895B7
:1025F000DF93CF931F930F939A9DF02D219FF00DA2
:102600008B9DF00D8A9DE02DF10D039FF00D029F33
:10261000E00DF11D4E9DE00DF11D5E9DF00D4F9DF5
:10262000F00D7F936F93BF92AF925F934F93D5015D
:102630000E94B8128B01AC01D7010E94B812EB01C5
:10264000E80FF91FD6010E9448132F913F91D60140
:102650000E94B812C60FD71FE81FF91FAF91BF9194
:102660000E9448132F913F910E94B812C60FD71FA6
:10267000E81FF91FD6010E94B812E60FF71F980154
:10268000BE01CF0111240F911F91CF91DF910895C9
:102690000E94B812460F571FC81FD91F08F4319661
:1026A000089597FB10F8169400080F93083098F0DF
:1026B0000850232F342F452F562F672F782F892F1F
:1026C000902DF4CF059497958795779567955795B5
:1026D0004795379527950A95AAF70F9108952A0DE2
:1026E0003B1D4C1D5D1D6E1D7F1D801F911F08959C
:1026F0002A153B054C055D056E057F058007910792
:1027000008950024A7FD00942A17300540055005C0
:1027100060057005800590050895AA1BBB1B51E15B
:1027200007C0AA1FBB1FA617B70710F0A61BB70B41
:10273000881F991F5A95A9F780959095BC01CD01E6
:1027400008955058BB27AA270E94B9130C9433153B
:102750000E94251538F00E942C1520F039F49F3F77
:1027600019F426F40C9422150EF4E095E7FB0C9472
:102770001C15E92F0E94441558F3BA176207730716
:102780008407950720F079F4A6F50C9466150EF4ED
:10279000E0950B2EBA2FA02D0B01B90190010C0171
:1027A000CA01A0011124FF27591B99F0593F50F489
:1027B000503E68F11A16F040A22F232F342F4427E1
:1027C000585FF3CF469537952795A795F0405395D9
:1027D000C9F77EF41F16BA0B620B730B840BBAF0A9
:1027E0009150A1F0FF0FBB1F661F771F881FC2F714
:1027F0000EC0BA0F621F731F841F48F48795779528
:102800006795B795F7959E3F08F0B0CF9395880FE1
:1028100008F09927EE0F9795879508950E94F81470
:1028200008F481E008950E9427140C9433150E9447
:102830002C1558F00E94251540F029F45F3F29F02F
:102840000C941C1551110C9467150C9422150E94C0
:10285000441568F39923B1F3552391F3951B550B58
:10286000BB27AA2762177307840738F09F5F5F4F63
:10287000220F331F441FAA1FA9F335D00E2E3AF0A2
:10288000E0E832D091505040E695001CCAF72BD0BA
:10289000FE2F29D0660F771F881FBB1F261737070B
:1028A0004807AB07B0E809F0BB0B802DBF01FF273D
:1028B00093585F4F3AF09E3F510578F00C941C15E9
:1028C0000C9467155F3FE4F3983ED4F386957795B3
:1028D0006795B795F7959F5FC9F7880F911D9695F6
:1028E000879597F90895E1E0660F771F881FBB1F52
:1028F000621773078407BA0720F0621B730B840BFF
:10290000BA0BEE1F88F7E09508950E948C14689426
:10291000B1110C94671508950E944C1588F09F57CB
:1029200098F0B92F9927B751B0F0E1F0660F771FF3
:10293000881F991F1AF0BA95C9F714C0B13091F0E9
:102940000E946615B1E008950C946615672F782FE4
:102950008827B85F39F0B93FCCF3869577956795AE
:10296000B395D9F73EF490958095709561957F4F1A
:102970008F4F9F4F0895E89409C097FB3EF49095C0
:102980008095709561957F4F8F4F9F4F9923A9F048
:10299000F92F96E9BB279395F695879577956795D7
:1029A000B795F111F8CFFAF4BB0F11F460FF1BC01B
:1029B0006F5F7F4F8F4F9F4F16C0882311F096E9AE
:1029C00011C0772321F09EE8872F762F05C066235C
:1029D00071F096E8862F70E060E02AF09A95660F15
:1029E000771F881FDAF7880F9695879597F90895CE
:1029F000990F0008550FAA0BE0E8FEEF1616170610
:102A0000E807F907C0F012161306E407F50798F077
:102A1000621B730B840B950B39F40A2661F0232B90
:102A2000242B252B21F408950A2609F4A140A6950C
:102A30008FEF811D811D089597F99F6780E870E0F1
:102A400060E008959FEF80EC089500240A94161624
:102A5000170618060906089500240A94121613068C
:102A6000140605060895092E0394000C11F488231A
:102A700052F0BB0F40F4BF2B11F460FF04C06F5F36
:102A80007F4F8F4F9F4F089557FD9058440F551F0C
:102A900059F05F3F71F04795880F97FB991F61F0E0
:102AA0009F3F79F087950895121613061406551F57
:102AB000F2CF4695F1DF08C0161617061806991FC3
:102AC000F1CF86957105610508940895E894BB27B8
:102AD00066277727CB0197F908950E94F81408F428
:102AE0008FEF08950E9485150C9433150E942515CB
:102AF00038F00E942C1520F0952311F00C941C1531
:102B00000C94221511240C9467150E94441570F33F
:102B1000959FC1F3950F50E0551F629FF001729F82
:102B2000BB27F00DB11D639FAA27F00DB11DAA1F91
:102B3000649F6627B00DA11D661F829F2227B00DDE
:102B4000A11D621F739FB00DA11D621F839FA00D69
:102B5000611D221F749F3327A00D611D231F849FB9
:102B6000600D211D822F762F6A2F11249F57504010
:102B70009AF0F1F088234AF0EE0FFF1FBB1F661F8B
:102B8000771F881F91505040A9F79E3F510580F054
:102B90000C941C150C9467155F3FE4F3983ED4F336
:102BA000869577956795B795F795E7959F5FC1F7F8
:102BB000FE2B880F911D9695879597F9089581E0D2
:0C2BC00090E0F8940C94E415F894FFCF1A
:102BCC00410046004B005000520055005A005F0077
:102BDC00610063006400650069006E00710075009F
:102BEC008E00AA00C700F30055011B02EE02F3038E
:102BFC0030F8BEF925FB61FCE0FC74FD6BFE49FF6F
:102C0C0096FFD8FF00000F006100C100FA004901D7
:102C1C009F02AA037E046905A406D0076608CA08A9
:102C2C00494E56414C494400000000000000005041
:102C3C00524553455400000000000000000053545E
:102C4C004152540000000000000000000043414CC1
:102C5C004942524154494F4E0000000049444C45F2
:102C6C000000000000000000000000434F4E4445EF
:102C7C004E53415445000000000050524548454118
:102C8C005400000000000000005049440000000007
:102C9C00000000000000000052554E4E494E470007
:102CAC00000000000000004552524F52000000008E
:102CBC00000000000000000000003C020F026C024B
:102CCC00E3010702F301E401000000003601A30058
:102CDC00CD008301FE00DC00F00055413A00555256
:0A2CEC003A000D0A006F7666000042
:00000001FF
