:100000000C9479000C94A1000C94A1000C94A10014
:100010000C94A1000C94A1000C94A1000C94A100DC
:100020000C94A1000C94A1000C94A1000C94A100CC
:100030000C94A1000C94A1000C94A1000C94A100BC
:100040000C946D030C94A1000C94AB050C948505E5
:100050000C94A1000C94A1000C94A1000C94A1009C
:100060000C94DD050C94A100F3100F0A650A920AA6
:10007000490B9C0B160CF310C90CA410436A3A00F0
:100080004C616D6264613A00537570706C793A002E
:100090004D6F64653A0000000000240027002A002C
:1000A00000000000250028002B00000000002300B5
:1000B00026002900040404040404040402020202C9
:1000C000020203030303030301020408102040801B
:1000D000010204081020010204081020000000089A
:1000E00000020100000304070000000000000000FF
:1000F0002E1211241FBECFEFD8E0DEBFCDBF12E01D
:10010000A0E0B1E0E8E1FCE202C005900D92A2336C
:10011000B107D9F724E0A2E3B2E001C01D92AF32EB
:10012000B207E1F710E0C9E7D0E004C02197FE0173
:100130000E944F15C837D107C9F70E9428070C94B1
:100140000A160C940000833081F028F4813099F075
:100150008230A1F008958730A9F08830B9F084305A
:10016000D1F4809180008F7D03C0809180008F77D3
:1001700080938000089584B58F7702C084B58F7D09
:1001800084BD08958091B0008F7703C08091B00046
:100190008F7D8093B0000895009769F0FC01019075
:1001A0000020E9F73197AF01481B590BBC0181EFE3
:1001B00092E00C94B70380E090E008958F929F92B4
:1001C000AF92BF920F931F93CF93DF93CDB7DEB75C
:1001D000A1970FB6F894DEBF0FBECDBF19A2423073
:1001E00008F44AE08E010F5D1F4F842E912CA12C44
:1001F000B12CA50194010E94B712E62FB901CA01E2
:1002000001501109EA3014F4E05D01C0E95CD80145
:10021000EC93232B242B252B61F7C8010E94CC00E3
:10022000A1960FB6F894DEBF0FBECDBFDF91CF9180
:100230001F910F91BF90AF909F908F900895CF9294
:10024000DF92EF92FF92CF93DF936C01990FEE084C
:10025000FF08F7FE13C06DE281EF92E00E944A04AE
:10026000EC0166277727CB016C197D098E099F0960
:100270004AE00E94DE00C80FD91F06C04AE0C7014D
:10028000B6010E94DE00EC0182E292E00E94CC0006
:100290008C0F9D1FDF91CF91FF90EF90DF90CF905B
:1002A00008950F931F93CF93DF938C01C0E0D0E0AC
:1002B000F801EC0FFD1F6491662341F081EF92E09D
:1002C0000E944A04892B11F02196F2CFCE01DF91D2
:1002D000CF911F910F9108958F929F92AF92BF92ED
:1002E000CF92DF92EF92FF920F931F93CF93DF9302
:1002F0006B017C01142F9B01AC010E942615882301
:1003000019F085E292E027C046015701E894B7F85A
:100310002FEF3FEF4FE75FE7C501B4010E942615BD
:1003200081110DC02FEF3FEF4FE75FE7C501B4012B
:100330000E94551318161CF489E292E00CC02FEFAE
:100340003FEF4FE75FE4C701B6010E94B4141816EF
:1003500084F48DE292E0DF91CF911F910F91FF9095
:10036000EF90DF90CF90BF90AF909F908F900C94C4
:10037000CC002FEF3FEF4FE75FECC701B6010E94C3
:10038000551387FDE6CF20E030E0A901C701B60193
:100390000E94551387FF0BC06DE281EF92E00E942F
:1003A0004A04EC01F7FAF094F7F8F09402C0C0E0C8
:1003B000D0E000E060E070E080E09FE3101741F0E3
:1003C00020E030E040E251E40E945A130F5FF6CF84
:1003D000A70196010E94E9126B017C010E94D313D0
:1003E0004B015C014AE00E94DE00C80FD91F1123B7
:1003F000B9F1C501B4010E9402149B01AC01C7010F
:10040000B6010E94E8126B017C016EE281EF92E07E
:100410000E944A04C80FD91F20E030E040E251E4B6
:10042000C701B6010E94B9144B015C010E94D313AD
:100430006B01E12CF12C4AE0C701B6010E94DE00FD
:10044000C80FD91FC701B6010E9402149B01AC015D
:10045000C501B4010E94E8126B017C011150E1F664
:10046000CE01DF91CF911F910F91FF90EF90DF9020
:10047000CF90BF90AF909F908F900895CF93DF93D0
:10048000282F30E0F901E452FF4F8491F901E8533D
:10049000FF4FD491F901EC54FF4FC491CC2391F05C
:1004A00081110E94A300EC2FF0E0EE0FFF1FE65534
:1004B000FF4FA591B491EC91ED2381E090E021F400
:1004C00080E002C080E090E0DF91CF9108951F931B
:1004D000CF93DF93282F30E0F901E452FF4F84914E
:1004E000F901E853FF4FD491F901EC54FF4FC49147
:1004F000CC23C1F0162F81110E94A300EC2FF0E055
:10050000EE0FFF1FE056FF4FA591B4919FB7F894EF
:10051000111104C08C91D095D82302C0EC91DE2B30
:10052000DC939FBFDF91CF911F910895CF93DF930D
:1005300090E0FC01E853FF4F2491FC01EC54FF4F85
:100540008491882361F190E0880F991FFC01EA569D
:10055000FF4FC591D491FC01E056FF4FA591B49196
:10056000611109C09FB7F894888120958223888300
:10057000EC912E230BC0623061F49FB7F894888110
:10058000322F309583238883EC912E2B2C939FBFA1
:1005900006C08FB7F894E8812E2B28838FBFDF9198
:1005A000CF9108951F93CF93DF93182FEB0161E054
:1005B0000E949602209711F460E004C0CF3FD1055D
:1005C00039F461E0812FDF91CF911F910C94670284
:1005D000E12FF0E0E452FF4FE491E330F9F048F40A
:1005E000E130B9F0E230A1F584B5806284BDC8BDC8
:1005F00034C0E730E9F0E83019F1E43049F5809192
:100600008000806280938000D0938B00C0938A002A
:1006100024C084B5806884BDC7BD1FC080918000A0
:10062000806880938000D0938900C093880015C0B3
:100630008091B00080688093B000C093B3000DC07B
:100640008091B00080628093B000C093B40005C078
:10065000C038D1050CF0B5CFAFCFDF91CF911F914E
:1006600008958E3008F08E508770806480937C00EF
:1006700080917A00806480937A0080917A0086FD70
:10068000FCCF809178002091790090E0922B089522
:100690003FB7F8948091C8039091C903A091CA0311
:1006A000B091CB0326B5A89B05C02F3F19F001964A
:1006B000A11DB11D3FBFBA2FA92F982F8827820FE8
:1006C000911DA11DB11DBC01CD0142E0660F771F38
:1006D000881F991F4A95D1F708951F920F920FB660
:1006E0000F9211242F933F938F939F93AF93BF93B8
:1006F0008091ED029091EE02A091EF02B091F00294
:100700003091C70323E0230F2D3720F40196A11D5C
:10071000B11D05C026E8230F0296A11DB11D20932F
:10072000C7038093ED029093EE02A093EF02B09383
:10073000F0028091C8039091C903A091CA03B091BF
:10074000CB030196A11DB11D8093C8039093C903EB
:10075000A093CA03B093CB03BF91AF919F918F91A8
:100760003F912F910F900FBE0F901F901895CF9231
:10077000DF92EF92FF920F931F93CF93DF936C0161
:100780007A018B01C0E0D0E0CE15DF0581F0D80101
:100790006D918D01D601ED91FC910190F081E02DDC
:1007A000C6010995892B11F02196EECF7E01C70174
:1007B000DF91CF911F910F91FF90EF90DF90CF903D
:1007C0000895FC01538D448D252F30E0842F90E057
:1007D000821B930B541710F0CF960895019708953C
:1007E000FC01918D828D981761F0828DDF01A80F39
:1007F000B11D5D968C91928D9F5F9F73928F90E05B
:1008000008958FEF9FEF0895FC01918D828D9817C9
:1008100031F0828DE80FF11D858D90E008958FEF06
:100820009FEF0895FC01918D228D892F90E0805CCF
:100830009F4F821B91098F739927089581EF92E052
:100840000E94120421E0892B09F420E0822F0895F0
:10085000FC01848DDF01A80FB11DA35ABF4F2C915D
:10086000848D90E001968F739927848FA689B7892C
:100870002C93A089B1898C91837080648C93938D23
:10088000848D981306C00288F389E02D80818F7DC6
:1008900080830895EF92FF920F931F93CF93DF937E
:1008A000EC0181E0888F9B8D8C8D981305C0E889C1
:1008B000F989808185FD26C0F62E0B8D10E00F5F33
:1008C0001F4F0F731127E02E8C8DE8120CC00FB64E
:1008D00007FCFACFE889F989808185FFF5CFCE0141
:1008E0000E942804F1CF8B8DFE01E80FF11DE35A21
:1008F000FF4FF0829FB7F8940B8FEA89FB898081C4
:1009000080620AC09FB7F894EE89FF896083E88906
:10091000F98980818370806480839FBF81E090E04B
:10092000DF91CF911F910F91FF90EF900895CF939A
:10093000DF93EC01888D8823C9F0EA89FB898081E7
:1009400085FD05C0A889B9898C9186FD0FC00FB6B9
:1009500007FCF5CF808185FFF2CFA889B9898C91FA
:1009600085FFEDCFCE010E942804E7CFDF91CF9124
:10097000089580E090E0892B29F00E941E048111E7
:100980000C940000089585ED8093BC008091BC001C
:1009900084FDFCCF10925E02089540910C04262F36
:1009A00030E0240F311D21323105DCF420915E024C
:1009B0002430C9F4FC0180E090E0861758F43091AF
:1009C0000C042191DC01A451BC4FA30FB11D2C9349
:1009D0000196F3CF80910C04680F60930C0480E0C3
:1009E000089581E0089582E0089508950895089596
:1009F000E091370280913602E81730F4F0E0E453DA
:100A0000FC4F808190E008958FEF9FEF08959091C3
:100A1000370280913602981750F4E92FF0E0E45342
:100A2000FC4F208130E09F5F9093370202C02FEF90
:100A30003FEFC90108958091360290E0209137027E
:100A4000821B91090895CF92DF92EF92FF920F934C
:100A50001F93CF93DF937C01CB018A012091810208
:100A6000222389F0EB016B01C40ED51ECC15DD05E8
:100A700069F06991D701ED91FC910190F081E02D31
:100A8000C7010995F3CF642F0E94CD04C801DF91FF
:100A9000CF911F910F91FF90EF90DF90CF9008952D
:100AA000CF93DF931F92CDB7DEB769832091810288
:100AB0002223D1F020917F02203240F021E030E06B
:100AC000FC013383228380E090E015C08091800296
:100AD000E82FF0E0E15AFD4F998190838F5F80937A
:100AE000800280937F0205C061E0CE0101960E94E2
:100AF000CD0481E090E00F90DF91CF9108950895AB
:100B000080E090E008950E9405161F920F920FB6A4
:100B10000F9211242F933F934F935F936F937F9383
:100B20008F939F93AF93BF93EF93FF9381EF92E0E7
:100B30000E942804FF91EF91BF91AF919F918F91F7
:100B40007F916F915F914F913F912F910F900FBEC9
:100B50000F901F9018951F920F920FB60F921124AD
:100B60002F938F939F93EF93FF93E0910103F09165
:100B700002038081E0910703F091080382FD12C017
:100B8000908180910A038F5F8F7320910B038217EE
:100B900051F0E0910A03F0E0EF50FD4F958F809304
:100BA0000A0301C08081FF91EF919F918F912F9156
:100BB0000F900FBE0F901F9018951F920F920FB6B7
:100BC0000F9211242F933F934F935F936F937F93D3
:100BD0008F939F93AF93BF93EF93FF938091B9004F
:100BE000887F803609F49CC068F5883209F45BC0C0
:100BF00090F4803109F454C038F4882309F4F6C025
:100C0000883009F44DC0F6C0883109F44CC08032F8
:100C100009F45DC0EFC0803409F468C048F4803343
:100C200009F455C0883309F0E5C080935C02D8C050
:100C3000803509F44FC0883509F45DC0883409F067
:100C4000D9C0D6C0883909F4C7C0A8F4883709F4D8
:100C500067C038F4883609F463C0803709F460C08F
:100C6000C9C0883809F4B8C0803909F45FC0803839
:100C700009F0C0C05BC0803B09F486C038F4803AFC
:100C800009F466C0883A09F47FC0B4C0803C09F416
:100C9000A7C0883C09F4A4C0883B09F48AC0AAC054
:100CA0008091390210C090915B0280915A0298178E
:100CB00070F5E0915B0281E08E0F80935B02F0E0C3
:100CC000E65CFD4F80818093BB0085EC86C08093FD
:100CD0005C028EC0E0915B0281E08E0F80935B022C
:100CE0008091BB00F0E0E65CFD4F808390915B0259
:100CF00080915A026EC0E0915B0281E08E0F80937A
:100D00005B028091BB00F0E0E65CFD4F8083809148
:100D10005D0281116DC081E08093380284EA61C078
:100D200083E080935E0210922E04CFCF80912E0438
:100D3000803208F051C0E0912E0481E08E0F809344
:100D40002E048091BB00F0E0E25FFB4F8083BDCFBB
:100D500085EC8093BC0010925E0280912E0480325C
:100D600030F4E0912E04F0E0E25FFB4F10826091DE
:100D70002E0470E0E0913202F09133028EE094E0B4
:100D8000099510922E0436C084E080935E02109282
:100D90000D0410920C04E0913402F0913502099593
:100DA00080910C04811105C081E080930C041092A5
:100DB000EC03E0910D0481E08E0F80930D04F0E0D0
:100DC000E451FC4F80818093BB0090910D04809191
:100DD0000C04981708F479CF85E88093BC000AC00A
:100DE00085EC8093BC0010925E0204C010925C02FD
:100DF0000E94C304FF91EF91BF91AF919F918F919A
:100E00007F916F915F914F913F912F910F900FBE06
:100E10000F901F901895CF93DF93EC0160E08AE06C
:100E20000E946702DEBD00000DB407FEFDCFDEB5F7
:100E3000CEBD00000DB407FEFDCFCEB561E08AE067
:100E40000E9467028C2F90E09D2BDF91CF91089537
:100E5000CF93DF93CDB7DEB767970FB6F894DEBFB9
:100E60000FBECDBF789484B5826084BD84B58160A7
:100E700084BD85B5826085BD85B5816085BD809165
:100E80006E00816080936E001092810080918100DD
:100E900082608093810080918100816080938100D5
:100EA000809180008160809380008091B100846097
:100EB0008093B1008091B00081608093B0008091F8
:100EC0007A00846080937A0080917A0082608093B7
:100ED0007A0080917A00816080937A0080917A0014
:100EE000806880937A001092C10087E3E6EBF2E01D
:100EF000DF011D928A95E9F78BE0EBEAF2E0DF0172
:100F00001D928A95E9F788E0E3EAF2E0DF011D929D
:100F10008A95E9F786E0EFE8F2E0DF011D928A9515
:100F2000E9F74BE050E060E070E083E892E00E9477
:100F30007A12809189028F3FF1F492E090938902B6
:100F40008AE080938302809384029093870296E9DB
:100F5000909386028093850281E18093880280E7E6
:100F600097E190938B0280938A0288EE93E09093AE
:100F70008D0280938C024BE050E060E070E083E8EB
:100F800092E00E948A1261E08AE00E94960261E08B
:100F900087E00E94960261E085E00E94960261E08F
:100FA00086E00E94960261E082E00E94960260E084
:100FB00080E10E94960262E083E00E94960262E075
:100FC00084E00E94960284E0809381008CE080930C
:100FD000B80061E08AE00E94670260E087E00E945A
:100FE000670260E085E00E94670260E086E00E94A0
:100FF000670260E082E00E9467021092B8031092DC
:10100000B7031092BA031092B9031092BB03109267
:10101000BC031092BD031092BE031092BF03109246
:10102000C0031092C1031092C2031092C303109226
:10103000C4031092C5031092C6031092B60380E059
:1010400091E1A0E0B0E080939A0390939B03A0937A
:101050009C03B0939D0387E090E0A0E0B0E0809314
:101060009E0390939F03A093A003B093A1031092BB
:10107000A2031092A3031092A4031092A50310924E
:10108000A6038FEF8093A7031092A8031092A903E1
:101090001092AA031092AB031092AC031092AD030E
:1010A0001092AE031092AF031092B0031092B103EE
:1010B0001092B2031092B3031092B4031092B503CE
:1010C000EFB6E982F89480918202811127C0EEEB9D
:1010D000F0E08491E2EDF0E09491E82FF0E0EE0F83
:1010E000FF1FEA56FF4FA591B491EC91E92321F43B
:1010F00061E08AE00E94670261E08AE00E94960255
:101100008CB580618CBD8CB580648CBD61E08DE058
:101110000E94960261E08BE00E949602809182021A
:101120008F5F80938202F980FFBE8CB58C7F8160D7
:101130008CBD8DB581608DBD8CB58F7D8CBD8CB522
:10114000837F84608CBD1092370210923602109219
:10115000800210927F0210925E0281E080935D0215
:101160001092380261E082E10E94670261E083E14F
:101170000E9467028091B9008E7F8093B9008091B0
:10118000B9008D7F8093B90088E48093B80085E42E
:101190008093BC0085EF94E09093350280933402F5
:1011A00086EF94E09093330280933202E091010342
:1011B000F091020382E08083E091FD02F091FE0253
:1011C0001082E091FF02F091000380E18083109291
:1011D0000903E0910503F091060386E08083E09126
:1011E0000303F0910403808180618083E091030315
:1011F000F0910403808188608083E0910303F09183
:101200000403808180688083E0910303F0910403EC
:1012100080818F7D80830E9448034B015C01EAEF4F
:10122000CE2ED12CE12CF12C0E944803DC01CB0105
:1012300088199909AA09BB09883E9340A105B105FF
:1012400098F301E0C01AD108E108F10818EE810E08
:1012500013E0911EA11CB11CC114D104E104F104DE
:1012600019F70FB6F894A895809160008861809373
:101270006000109260000FBEA8959CE088E10FB658
:10128000F894A895809360000FBE90936000A89595
:101290002FB7F8948091ED029091EE02A091EF02A9
:1012A000B091F0022FBF8093B9029093BA02A0933D
:1012B000BB02B093BC024091BD025091BE0260914E
:1012C000BF027091C002841B950BA60BB70B02974F
:1012D000A105B10510F40C9422128EE00E94310396
:1012E0009093B0028093AF028FE00E9431039093FD
:1012F000B2028093B10285E10E9431039093AC0267
:101300008093AB0284E10E9431039093AE028093FC
:10131000AD0280E10E943E028093B30283E00E940E
:101320003E028093B40284E00E943E028093B502A4
:10133000A091B102B091B20228E833E10E945515A4
:101340002FEF33E040E050E00E94B7123093DF020D
:101350002093DE0279ECE72E74E0F72EE21AF30A0E
:10136000F092DA02E092D902A091AF02B091B002FD
:1013700024EB3FE50E9455152FEF33E040E050E0AD
:101380000E94B7122E0D3F1D3093DC022093DB022A
:10139000245039422536394178F08091DD028F5F43
:1013A000833068F01092DD028091B602813051F1F5
:1013B00081E08093B60205C01092DD0202C08093E6
:1013C000DD028091B60282508230E0F48091B90251
:1013D0009091BA02A091BB02B091BC024091D5029B
:1013E0005091D6026091D7027091D802841B950B60
:1013F000A60BB70B88389341A105B10518F081E021
:101400008093B602E091B6028E2F90E08A3091056B
:1014100008F0E9C6FC01EC5CFF4F0C944F1581E02D
:101420008093B60284E690E09093EC028093EB0206
:101430008EE997E09093A6028093A5029093A8026C
:101440008093A70289E78093A4021092A3021092CE
:10145000AA021092B8021092B7021092E7021092FC
:10146000E6021092E9021092E8021092E302109252
:10147000E2021092E4021092E5021092EA028091D8
:10148000DB029091DC02895F9A428B37954150F4E0
:101490008091A2028F5F8093A2028A3028F082E0BE
:1014A0008093B6021092A2028091B9029091BA0282
:1014B000A091BB02B091BC028093D5029093D6025A
:1014C000A093D702B093D80291C682E08093B6026F
:1014D00080E098E70E940B079093E3028093E2027A
:1014E00098728F3F9842D9F48091A1028F5F8093C8
:1014F000A1028A3008F47AC683E08093B602809114
:10150000B9029091BA02A091BB02B091BC02809343
:10151000D5029093D602A093D702B093D80210922E
:10152000A10264C683E08093B6028091E402813018
:10153000C9F08DE996E50E940B0781E08093E402F3
:101540001092A0028091B9029091BA02A091BB02C0
:10155000B091BC028093C5029093C602A093C702CB
:10156000B093C8028091B9029091BA02A091BB02D7
:10157000B091BC024091C5025091C6026091C70271
:101580007091C802841B950BA60BB70B8639910589
:10159000A105B10508F42AC62091AB023091AC0236
:1015A000C90187599109893F910548F58091AD029C
:1015B0009091AE02AC014759510945395105F8F4F3
:1015C0004091E6025091E702240F351F3093E70265
:1015D0002093E6022091E8023091E902820F931FE6
:1015E0009093E9028093E8029091A90281E0892713
:1015F0008093A9028091A0028F5F8093A0028091C6
:10160000A0028A3008F48FC58091E6029091E7022B
:101610002AE030E0B9010E943B157093E702609325
:10162000E6028091E8029091E902B9010E943B151F
:101630007093E9026093E80281E08093A90284E05C
:101640008093B6028AE192E00E94CC008091E6028B
:101650009091E7020E941F018EE192E00E94CC006F
:101660008091E8029091E9020E941F018091B902E5
:101670009091BA02A091BB02B091BC028093D502B6
:101680009093D602A093D702B093D8021092A002F2
:101690004AC584E08093B6028091E4028230B9F0BA
:1016A00088E896E50E940B0782E08093E40280912F
:1016B000B9029091BA02A091BB02B091BC02809392
:1016C0009C0290939D02A0939E02B0939F02409132
:1016D000B9025091BA026091BB027091BC02809134
:1016E0009C0290919D02A0919E02B0919F027A016E
:1016F0008B01E81AF90A0A0B1B0BD801C7018A3FB4
:101700009105A105B10570F09091AA0281E08927A9
:101710008093AA0240939C0250939D0260939E0284
:1017200070939F028091B302811160C585E0809320
:10173000B6021092AA025AC585E08093B602909133
:10174000EA02C090B902D090BA02E090BB02F090D9
:10175000BC02953091F08093EA02C0929802D09238
:101760009902E0929A02F0929B02C092C102D0923A
:10177000C202E092C302F092C4022091DB023091D7
:10178000DC02032E000C440B550B64E276ED85E081
:1017900090E00E94B712233218F42093A30203C0F2
:1017A00082E28093A3028091C1029091C202A09133
:1017B000C302B091C40297018601081B190B2A0BC2
:1017C0003B0BD901C80180379741A105B10558F0FD
:1017D00086E08093B602C092D502D092D602E09203
:1017E000D702F092D8028091980290919902A0912C
:1017F0009A02B0919B02A7019601281B390B4A0B54
:101800005B0B243631054105510508F4EFC4909176
:10181000AA0281E089278093AA02C0929802D092FE
:101820009902E0929A02F0929B02E0C486E08093D3
:10183000B6029091EA02C090B902D090BA02E0904C
:10184000BB02F090BC02963009F444C08093EA02D7
:10185000C092C102D092C202E092C302F092C402CE
:10186000C092C902D092CA02E092CB02F092CC029E
:101870000091DB021091DC021A8309834801110FE9
:10188000AA08BB0860EC70E28FE190E0A50194012A
:101890000E94B712122F60E77EE881E090E0A50178
:1018A00094010E94B7122093970229813A81283C23
:1018B000324324F48FEF809396020AC068E375E9FF
:1018C00082E390E0A50194010E94B7122093960252
:1018D0001093A3028091C1029091C202A091C30211
:1018E000B091C40297018601081B190B2A0B3B0B10
:1018F000D901C801883E9340A105B105A8F1909196
:10190000AA0281E089278093AA022091A3029091E4
:101910009602291758F46091AD027091AE02409181
:10192000E8025091E9024617570764F088E0809377
:10193000B602C092D502D092D602E092D702F092BF
:10194000D8020AC080919702820F981718F08093EE
:10195000A30202C09093A302C092C102D092C2021D
:10196000E092C302F092C4028091C9029091CA022F
:10197000A091CB02B091CC02C81AD90AEA0AFB0A9C
:1019800028E9C2162AE3D206E104F10408F02BC4C8
:101990002DC488E08093B6028091EA02873019F066
:1019A00087E08093EA028091E402823039F088E88F
:1019B00096E50E940B0782E08093E4028091B902D1
:1019C0009091BA02A091BB02B091BC0289879A871C
:1019D000AB87BC878091C1029091C202A091C302E3
:1019E000B091C402E984FA840B851C85E81AF90ACF
:1019F0000A0B1B0BD801C7010A97A105B10508F412
:101A0000D9C18091EA02873009F0C4C12090AD02AB
:101A10003090AE02A101032C000C660B770B809175
:101A2000E8029091E902092E000CAA0BBB0B2A01D7
:101A30003B01481A590A6A0A7B0A20919A0330919D
:101A40009B0340919C0350919D0321153105410555
:101A5000510549F0C301B2010E942B1569837A83B5
:101A60008B839C8304C019821A821B821C82009182
:101A70009E0310919F032091A0033091A1030115B3
:101A800011052105310509F482C058016901E12CD5
:101A9000F12C00E010E09201A301D301C201BB0FC1
:101AA000880B982FDC018D839E83AF83B8876D816F
:101AB000762F862F962F0E945C15A090BB03B090C6
:101AC000BC03C090BD03D090BE03E090BF03F09074
:101AD000C0030091C1031091C2030E94D315790184
:101AE0008A012F3FEFEF3E074E07EFE75E076105E4
:101AF000710581059105A1F09CF08FEF8093BB03E8
:101B00008093BC038093BD038FE78093BE03109244
:101B1000BF031092C0031092C1031092C2032EC0E3
:101B2000211531054105E0E85E07EFEF6E077E07FE
:101B30008E079E078CF02093BB03F092BC0340936A
:101B4000BD031093BE036093BF037093C0038093E3
:101B5000C1039093C20312C01092BB031092BC0346
:101B60001092BD0380E88093BE038FEF8093BF0384
:101B70008093C0038093C1038093C203E090BB03B2
:101B8000F090BC030091BD031091BE0303C0E12C93
:101B9000F12C87016091A2037091A3038091A403AB
:101BA0009091A503611571058105910509F449C05E
:101BB0008090C3039090C403A090C503B090C60367
:101BC000A3019201281939094A095B0949015A01FF
:101BD0004091B7035091B803D101A41BB50B9D01EF
:101BE000BB0F440B550B3092B8032092B7034092C1
:101BF000C3035092C4036092C5037092C603821A55
:101C0000930AA40AB50A8114B0E89B06BFEFAB069D
:101C1000BB0634F4812C20E8922EAA24AA94BA2C74
:101C2000A50194018114E0E89E06A104B10424F00A
:101C30002FEF3FE740E050E00E942B152B013C01C5
:101C400003C0412C512C320189809A80AB80BC802A
:101C5000BB0C8808982C5401A8019701550F220B42
:101C6000322FA9012D833E834F83588729813A81E2
:101C70004B815C81682D782D882D982D5701680146
:101C8000ED80FE2C0E2D1E2D0E94D31583017201B6
:101C9000110FEE08FE2C8701E982FA820B831C8368
:101CA00052016301E980FE2C0E2D1E2D0E94D315DA
:101CB0002A013B0189839D838090A6039090A7030E
:101CC000A091A803AF8BB091A903BD8BB091AA03DB
:101CD000A091AB03F091AC03E091AD035401CF8828
:101CE000DD88EB2EFA2E0F2F1E2F0E94DC1509F037
:101CF0008CF5E091AE03ED87F091AF03FE87A091E4
:101D0000B003AF87B091B103B88BE091B203E98B18
:101D1000F091B303FA8BA091B403AB8BB091B503F0
:101D2000BC8B49014F8B5D8AB62FA72DF82FE92F69
:101D3000AD84BE84CF84D888E988FA880B891C8951
:101D40000E94DC153CF44501CF8ADD8ABE2DAF2D03
:101D5000F02FE12F94014F895D896B2F7A2F8F2F00
:101D60009E2F08E00E94B515E22FF32F282D207832
:101D700030E040E050E060E070E080E090E0A0E023
:101D80000E94E51509F03196E093A30281E080936B
:101D9000AA0204C01092A3021092AA02E984FA8453
:101DA0000B851C85E092C102F092C2020093C3022F
:101DB0001093C4028091C5029091C602A091C702FF
:101DC000B091C80209851A852B853C85081B190B23
:101DD0002A0B3B0B083011052105310508F406C21A
:101DE00080E098E70E940B079093E1028093E00265
:101DF00098728F3F984289F08091E5028F5F8093BF
:101E0000E502833090F084E090E09093E3028093C9
:101E1000E20289E08093B60206C082E090E09093EF
:101E2000E3028093E2021092E5028091B6028930CB
:101E300009F469C16091AB027091AC02E090E602D6
:101E4000F090E702FA82E9826E157F0509F41AC163
:101E5000072E000C880B990B0E94041420E030E040
:101E600040EA50E40E94B91420E030EC4FE754E41B
:101E70000E945A136B017C0109811A81B801110F6C
:101E8000880B990B0E94041420E030E040EA50E4F3
:101E90000E94B91420E030EC4FE754E40E945A133A
:101EA0009B01AC01C701B6010E94E8122091E40237
:101EB000223039F0C12CD12CE8E8EE2EE1E4FE2EE0
:101EC00005C0C12CD12CE12C51E4F52E20E030E0EE
:101ED0004AE754E40E94B9144B015C012AE939E94C
:101EE00047E752E4C701B6010E94B9149B01AC0157
:101EF000C501B4010E945A1320E030E04AE754E4DF
:101F00000E94B9140E94CC138B01709390026093CD
:101F10008F02613328EF72070CF4A8C06A3C38E0E6
:101F200073070CF093C240E0242E41E0342E40E3CE
:101F300051E05A834983C12CD12C7601CB01770F14
:101F4000AA0BBB0B8D839E83AF83B887A981BA810F
:101F5000ED91FD91BA83A983FA87E9870E171F07D0
:101F600051F4D1016D917C91072E000C880B990BD7
:101F70000E94041466C0E985FA850E171F070CF449
:101F800062C0A981BA816D917C91601771070CF4D0
:101F90005AC0072E000C880B990B0E9404142B01C9
:101FA0003C01F10162817381072E000C880B990BB3
:101FB0000E9404144B015C01D1016D917C91072EAC
:101FC000000C880B990B0E9404149B01AC01C50105
:101FD000B4010E94E8126B017C01E985FA85BF011A
:101FE000FF0F880B990B0E9404149B01AC01C301E5
:101FF000B2010E94E8129B01AC01C701B6010E9428
:102000005A136B017C019B01AC01C301B2010E9418
:10201000B9149B01AC01C501B4010E94E8124B0147
:102020005C016D817E818F8198850E940414A701D7
:1020300096010E94B9149B01AC01C501B4010E9434
:10204000E9126B017C01F2E02F0E311C2EE2221608
:1020500021E0320689F020E030E0A901C701B60195
:102060000E945513882309F471CF06C0C12CD12CCE
:1020700092E8E92E92E4F92EC701B6010E94CC1332
:10208000DB0102C0A4E6B0E0B093EC02A093EB0247
:10209000A434B10534F0A938B1052CF0A8E8B0E0BB
:1020A00002C0A4E4B0E02AEF36E10E94551524E610
:1020B00030E040E050E00E94B71269017A01AFEFD2
:1020C000B0E00E94AC1264557E498D40910928E829
:1020D00033E140E050E00E94B7122093A402AFEF3A
:1020E000BFE0A70196010E94AC126455724B8A4D65
:1020F000910928E833E140E050E00E94B7123093A4
:10210000A6022093A5029091B302913051F48091E0
:1021100095028F5F80939502833028F09093B602EA
:1021200002C0109295028091B9029091BA02A091DA
:10213000BB02B091BC028093C5029093C602A093EB
:10214000C702B093C80252C084E690E09093EC02BC
:102150008093EB028EE997E09093A6028093A5020C
:102160009093A8028093A70289E78093A40210921B
:10217000A3024091B9025091BA026091BB027091E2
:10218000BC028091D1029091D202A091D302B09171
:10219000D4027A018B01E81AF90A0A0B1B0BD80149
:1021A000C701843F9140A105B105C8F08091E202CA
:1021B0009091E302049759F49091A90281E0982745
:1021C0009093A9029091AA0289278093AA02409332
:1021D000D1025093D2026093D3027093D4028091C3
:1021E000B302813019F481E08093B6026091A302BA
:1021F00070E086E00E94D2026091A40270E082E06A
:102200000E94D2026091A90287E00E946702609159
:10221000AA0285E00E946702E090A502F090A60263
:1022200081E08093810284E680938E021092800286
:1022300010927F0260E48EE893E00E945005B7019F
:1022400024E0769567952A95E1F78EE893E00E9461
:102250005005B70134E0660F771F3A95E1F78EE835
:1022600093E00E94500590917F02913208F044C0A3
:1022700080915E028111FCCF82E080935E0281E05A
:1022800080935D028FEF80935C0210925B029093CB
:102290005A02AFE5B2E0EAE3F2E080E0981721F0FD
:1022A0002D9121938F5FFACF1092390280913902DC
:1022B000886C8093390280913802813061F41092E9
:1022C0003802809139028093BB008091BC0083FD6D
:1022D000F8CF85EC01C085EE8093BC0080915E0252
:1022E0008230E1F380915C028F3F31F080915C029B
:1022F000803211F080915C021092800210927F0275
:10230000109281028091B9029091BA02A091BB0211
:10231000B091BC024091CD025091CE026091CF02AB
:102320007091D002841B950BA60BB70B86399105D3
:10233000A105B10508F476C08091B602813029F478
:102340009091A90289278093A90280E990E00E94D8
:1023500051018091B6020FE0809FC0011124805A84
:102360009E4F0E94CC0082E292E00E94CC0088E85E
:1023700090E00E9451016091DB027091DC02072E17
:10238000000C880B990B0E94041420E030E04AE70F
:1023900054E40E945A1342E00E946C0182E292E0EF
:1023A0000E94CC008091E2029091E3020297029792
:1023B000C0F480E890E00E9451016091EB027091BE
:1023C000EC02072E000C880B990B0E94041420E0ED
:1023D00030E048EC52E40E945A1342E00E946C0143
:1023E0000DC08CE790E00E9451016091E002709175
:1023F000E10280E090E040E10E94DE0082E292E0B3
:102400000E94CC008091B9029091BA02A091BB02C7
:10241000B091BC028093CD029093CE02A093CF02E4
:10242000B093D0028091B9029091BA02A091BB0200
:10243000B091BC028093BD029093BE02A093BF02F4
:10244000B093C0020E94B9040C944709C12C80ECDF
:10245000D82E8CE7E82E84E4F82E0ECEE1EFF2E0E1
:102460001382128288EE93E0A0E0B0E0848395832B
:10247000A683B7832AEF31E03183208325EC30E057
:102480003587248724EC30E03787268720EC30E03E
:10249000318B208B21EC30E0338B228B22EC30E02F
:1024A000358B248B26EC30E0378B268B118E128EE9
:1024B000138E148EEEE8F3E01382128284839583E8
:1024C000A683B7838CE092E091838083EAE9F3E00E
:1024D000168E158E10A2178E11A212A213A214A28C
:1024E00015A216A217A210A611A612A613A614A62C
:1024F000148E0895DC01CB01FC01F999FECF06C0D2
:10250000F2BDE1BDF89A319600B40D9241505040B1
:10251000B8F70895DC01A40FB51F4150504048F0B2
:10252000CB01840F951F2E910E949B124150504069
:10253000D0F70895262FF999FECF92BD81BDF89A64
:10254000019700B4021639F01FBA20BD0FB6F894F7
:10255000FA9AF99A0FBE08950E94D912A59F900D7C
:10256000B49F900DA49F800D911D11240895A1E2A8
:102570001A2EAA1BBB1BFD010DC0AA1FBB1FEE1FFD
:10258000FF1FA217B307E407F50720F0A21BB30B48
:10259000E40BF50B661F771F881F991F1A9469F7C4
:1025A00060957095809590959B01AC01BD01CF0120
:1025B0000895A29FB001B39FC001A39F700D811D1C
:1025C0001124911DB29F700D811D1124911D08953C
:1025D0005058BB27AA270E9400130C947A140E941B
:1025E0006C1438F00E94731420F039F49F3F19F4F2
:1025F00026F40C9469140EF4E095E7FB0C94631434
:10260000E92F0E948B1458F3BA17620773078407E7
:10261000950720F079F4A6F50C94AD140EF4E0952E
:102620000B2EBA2FA02D0B01B90190010C01CA018C
:10263000A0011124FF27591B99F0593F50F4503E37
:1026400068F11A16F040A22F232F342F4427585F29
:10265000F3CF469537952795A795F0405395C9F741
:102660007EF41F16BA0B620B730B840BBAF09150F9
:10267000A1F0FF0FBB1F661F771F881FC2F70EC098
:10268000BA0F621F731F841F48F48795779567956B
:10269000B795F7959E3F08F0B0CF9395880F08F057
:1026A0009927EE0F9795879508950E943F1408F497
:1026B00081E008950E946E130C947A140E947314A2
:1026C00058F00E946C1440F029F45F3F29F00C94FC
:1026D000631451110C94AE140C9469140E948B1461
:1026E00068F39923B1F3552391F3951B550BBB2741
:1026F000AA2762177307840738F09F5F5F4F220F86
:10270000331F441FAA1FA9F335D00E2E3AF0E0E87C
:1027100032D091505040E695001CCAF72BD0FE2FC6
:1027200029D0660F771F881FBB1F2617370748075A
:10273000AB07B0E809F0BB0B802DBF01FF27935812
:102740005F4F3AF09E3F510578F00C9463140C945F
:10275000AE145F3FE4F3983ED4F386957795679582
:10276000B795F7959F5FC9F7880F911D9695879547
:1027700097F90895E1E0660F771F881FBB1F621766
:1027800073078407BA0720F0621B730B840BBA0B24
:10279000EE1F88F7E09508950E94D3136894B11155
:1027A0000C94AE1408950E94931488F09F5798F0EB
:1027B000B92F9927B751B0F0E1F0660F771F881F46
:1027C000991F1AF0BA95C9F714C0B13091F00E9460
:1027D000AD14B1E008950C94AD14672F782F8827BD
:1027E000B85F39F0B93FCCF3869577956795B39587
:1027F000D9F73EF490958095709561957F4F8F4FF6
:102800009F4F0895E89409C097FB3EF490958095FA
:10281000709561957F4F8F4F9F4F9923A9F0F92FA6
:1028200096E9BB279395F695879577956795B79524
:10283000F111F8CFFAF4BB0F11F460FF1BC06F5F0A
:102840007F4F8F4F9F4F16C0882311F096E911C01C
:10285000772321F09EE8872F762F05C0662371F03D
:1028600096E8862F70E060E02AF09A95660F771F51
:10287000881FDAF7880F9695879597F90895990F2D
:102880000008550FAA0BE0E8FEEF16161706E8073A
:10289000F907C0F012161306E407F50798F0621B5B
:1028A000730B840B950B39F40A2661F0232B242B30
:1028B000252B21F408950A2609F4A140A6958FEF4F
:1028C000811D811D089597F99F6780E870E060E0A1
:1028D00008959FEF80EC089500240A9416161706B9
:1028E00018060906089500240A9412161306140601
:1028F00005060895092E0394000C11F4882352F064
:10290000BB0F40F4BF2B11F460FF04C06F5F7F4F1B
:102910008F4F9F4F089557FD9058440F551F59F002
:102920005F3F71F04795880F97FB991F61F09F3FBC
:1029300079F087950895121613061406551FF2CFE5
:102940004695F1DF08C0161617061806991FF1CF35
:1029500086957105610508940895E894BB2766275C
:102960007727CB0197F908950E943F1408F48FEF61
:1029700008950E94CC140C947A140E946C1438F0C0
:102980000E94731420F0952311F00C9463140C949E
:10299000691411240C94AE140E948B1470F3959F4B
:1029A000C1F3950F50E0551F629FF001729FBB2746
:1029B000F00DB11D639FAA27F00DB11DAA1F649FE2
:1029C0006627B00DA11D661F829F2227B00DA11D95
:1029D000621F739FB00DA11D621F839FA00D611D1B
:1029E000221F749F3327A00D611D231F849F600D3C
:1029F000211D822F762F6A2F11249F5750409AF065
:102A0000F1F088234AF0EE0FFF1FBB1F661F771FF0
:102A1000881F91505040A9F79E3F510580F00C94BB
:102A200063140C94AE145F3FE4F3983ED4F38695A0
:102A300077956795B795F795E7959F5FC1F7FE2B5B
:102A4000880F911D9695879597F908950E943F14D8
:102A5000880B990B0895DB018F939F930E94AC1212
:102A6000BF91AF91A29F800D911DA39F900DB29F2A
:102A7000900D1124089597FB072E16F4009407D0AB
:102A800077FD09D00E94F11507FC05D03EF4909522
:102A900081959F4F0895709561957F4F0895EE0F32
:102AA000FF1F0590F491E02D09940E94D912B7FF01
:102AB0000895821B930B0895DF93CF931F930F9379
:102AC0009A9DF02D219FF00D8B9DF00D8A9DE02D9C
:102AD000F10D039FF00D029FE00DF11D4E9DE00DE5
:102AE000F11D5E9DF00D4F9DF00D7F936F93BF9292
:102AF000AF925F934F93D5010E94D9128B01AC0125
:102B0000D7010E94D912EB01E80FF91FD6010E94EC
:102B1000AC152F913F91D6010E94D912C60FD71F35
:102B2000E81FF91FAF91BF910E94AC152F913F9103
:102B30000E94D912C60FD71FE81FF91FD6010E94A5
:102B4000D912E60FF71F9801BE01CF0111240F9192
:102B50001F91CF91DF9108950E94D912460F571F00
:102B6000C81FD91F08F43196089597FB10F81694E2
:102B700000080F93083098F00850232F342F452F6A
:102B8000562F672F782F892F902DF4CF0594979586
:102B900087957795679557954795379527950A9522
:102BA000AAF70F9108952A0D3B1D4C1D5D1D6E1D4A
:102BB0007F1D801F911F08952A153B054C055D055B
:102BC0006E057F058007910708950024A7FD0094F6
:102BD0002A173005400550056005700580059005F1
:102BE0000895AA1BBB1B51E107C0AA1FBB1FA61754
:102BF000B70710F0A61BB70B881F991F5A95A9F7A6
:102C000080959095BC01CD01089581E090E0F89405
:082C10000C940A16F894FFCFA2
:102C1800410046004B005000520055005A005F002A
:102C2800610063006400650069006E007100750052
:102C38008E00AA00C700F30055011B02EE02F30341
:102C480030F8BEF925FB61FCE0FC74FD6BFE49FF22
:102C580096FFD8FF00000F006100C100FA0049018B
:102C68009F02AA037E046905A406D0076608CA085D
:102C7800494E56414C4944000000000000000050F5
:102C88005245534554000000000000000000535412
:102C98004152540000000000000000000043414C75
:102CA8004942524154494F4E0000000049444C45A6
:102CB8000000000000000000000000434F4E4445A3
:102CC8004E534154450000000000505245484541CC
:102CD80054000000000000000050494400000000BB
:102CE800000000000000000052554E4E494E4700BB
:102CF800000000000000004552524F520000000042
:102D0800000000000000000000004A04B703E103CF
:102D180097041204F0030404000000005005230582
:102D28008005F7041B050705F80455413A0055527C
:102D38003A000D0A006E616E00696E66006F766675
:022D4800000089
:107E0000112484B714BE81FFF0D085E080938100F7
:107E100082E08093C00088E18093C10086E0809377
:107E2000C20080E18093C4008EE0C9D0259A86E02C
:107E300020E33CEF91E0309385002093840096BBD3
:107E4000B09BFECF1D9AA8958150A9F7CC24DD24C4
:107E500088248394B5E0AB2EA1E19A2EF3E0BF2EE7
:107E6000A2D0813461F49FD0082FAFD0023811F036
:107E7000013811F484E001C083E08DD089C08234E0
:107E800011F484E103C0853419F485E0A6D080C0E4
:107E9000853579F488D0E82EFF2485D0082F10E0AE
:107EA000102F00270E291F29000F111F8ED06801E7
:107EB0006FC0863521F484E090D080E0DECF843638
:107EC00009F040C070D06FD0082F6DD080E0C81688
:107ED00080E7D80618F4F601B7BEE895C0E0D1E017
:107EE00062D089930C17E1F7F0E0CF16F0E7DF06D8
:107EF00018F0F601B7BEE89568D007B600FCFDCFD4
:107F0000A601A0E0B1E02C9130E011968C91119780
:107F100090E0982F8827822B932B1296FA010C0160
:107F200087BEE89511244E5F5F4FF1E0A038BF0790
:107F300051F7F601A7BEE89507B600FCFDCF97BE46
:107F4000E89526C08437B1F42ED02DD0F82E2BD052
:107F50003CD0F601EF2C8F010F5F1F4F84911BD097
:107F6000EA94F801C1F70894C11CD11CFA94CF0C13
:107F7000D11C0EC0853739F428D08EE10CD085E9AC
:107F80000AD08FE07ACF813511F488E018D01DD067
:107F900080E101D065CF982F8091C00085FFFCCF94
:107FA0009093C60008958091C00087FFFCCF809118
:107FB000C00084FD01C0A8958091C6000895E0E648
:107FC000F0E098E1908380830895EDDF803219F02E
:107FD00088E0F5DFFFCF84E1DECF1F93182FE3DFCA
:107FE0001150E9F7F2DF1F91089580E0E8DFEE27F6
:047FF000FF270994CA
:027FFE00040479
:0400000300007E007B
:00000001FF
