:100000000C9479000C94A1000C94A1000C94A10014
:100010000C94A1000C94A1000C94A1000C94A100DC
:100020000C94A1000C94A1000C94A1000C94A100CC
:100030000C94A1000C94A1000C94A1000C94A100BC
:100040000C94E3060C94A1000C948C020C946602B0
:100050000C94A1000C94A1000C94A1000C94A1009C
:100060000C94BE020C94A100F510040A5A0A870AE7
:100070003E0B910B0B0CF510BF0CA610436A3A0017
:100080004C616D6264613A00537570706C793A002E
:100090004D6F64653A0000000000240027002A002C
:1000A00000000000250028002B00000000002300B5
:1000B00026002900040404040404040402020202C9
:1000C000020203030303030301020408102040801B
:1000D000010204081020010204081020000000089A
:1000E00000020100000304070000000000000000FF
:1000F000231211241FBECFEFD8E0DEBFCDBF12E028
:10010000A0E0B1E0E2E0FCE202C005900D92A23373
:10011000B107D9F724E0A2E3B2E001C01D92A031FB
:10012000B207E1F710E0C9E7D0E004C02197FE0173
:100130000E944415C837D107C9F70E942D070C94B7
:10014000FF150C940000CF92DF92EF92FF920F9375
:100150001F93CF93DF936C017A018B01C0E0D0E055
:10016000CE15DF0589F0D8016D918D01D601ED9195
:10017000FC910190F081E02DC6010995892B11F4C5
:100180007E0102C02196ECCFC701DF91CF911F9174
:100190000F91FF90EF90DF90CF900895FC01538D69
:1001A000448D252F30E0842F90E0821B930B541751
:1001B00010F0CF96089501970895FC01918D828DDE
:1001C000981761F0828DDF01A80FB11D5D968C91AB
:1001D000928D9F5F9F73928F90E008958FEF9FEFB6
:1001E0000895FC01918D828D981731F0828DE80F72
:1001F000F11D858D90E008958FEF9FEF0895FC012C
:10020000918D228D892F90E0805C9F4F821B9109F8
:100210008F739927089585E393E00E94FF0021E002
:10022000892B09F420E0822F0895FC01848DDF01E1
:10023000A80FB11DA35ABF4F2C91848D90E0019659
:100240008F739927848FA689B7892C93A089B18948
:100250008C9180648C93938D848D981306C0028852
:10026000F389E02D80818F7D80830895EF92FF9246
:100270000F931F93CF93DF93EC0181E0888F9B8DC9
:100280008C8D981305C0E889F989808185FD24C08B
:10029000F62E0B8D10E00F5F1F4F0F731127E02E0E
:1002A0008C8DE8120CC00FB607FCFACFE889F989EB
:1002B000808185FFF5CFCE010E941501F1CF8B8D96
:1002C000FE01E80FF11DE35AFF4FF0820B8FEA8920
:1002D000FB898081806207C0EE89FF896083E8899D
:1002E000F98980818064808381E090E0DF91CF9103
:1002F0001F910F91FF90EF900895CF93DF93EC0142
:10030000888D8823C9F0EA89FB89808185FD05C035
:10031000A889B9898C9186FD0FC00FB607FCF5CF6F
:10032000808185FFF2CFA889B9898C9185FFEDCFB7
:10033000CE010E941501E7CFDF91CF91089580E0B3
:1003400090E0892B29F00E940B0181110C94000090
:10035000089585ED8093BC008091BC0084FDFCCFA6
:1003600010925A02089540910C03262F30E0240F7A
:10037000311D21323105DCF420915A022430C9F4B8
:10038000FC0180E090E0861758F430910C03219135
:10039000DC01A651BD4FA30FB11D2C930196F3CFE5
:1003A00080910C03680F60930C0380E0089581E056
:1003B000089582E00895089581E090E0309133023D
:1003C00020913202321710F480E090E091958195EF
:1003D000910908958091330290913202891730F487
:1003E0008F5F8093330280E090E008958FEF9FEF5E
:1003F00008958091320290E020913302821B91098E
:100400000895CF92DF92EF92FF920F931F93CF93B5
:10041000DF937C01262F972F8A0180917D0288230C
:1004200091F0C62FD72F6E01C40ED51ECC15DD0559
:1004300071F06991D701ED91FC910190F081E02D6F
:10044000C7010995F3CF642F822F0E94B301C80121
:10045000DF91CF911F910F91FF90EF90DF90CF90A0
:100460000895CF93DF931F92CDB7DEB769832091B4
:100470007D022223D1F020917B02203240F021E046
:1004800030E0FC013383228380E090E015C080914E
:100490007C02E82FF0E0E55AFD4F998190838F5F51
:1004A00080937C0280937B0205C061E0CE010196BF
:1004B0000E94B30181E090E00F90DF91CF91089509
:1004C000089580E090E008950E94FA151F920F921F
:1004D0000FB60F9211242F933F934F935F936F9317
:1004E0007F938F939F93AF93BF93EF93FF9385E396
:1004F00093E00E941501FF91EF91BF91AF919F9101
:100500008F917F916F915F914F913F912F910F90BC
:100510000FBE0F901F9018951F920F920FB60F925B
:1005200011242F938F939F93EF93FF93E0914503B3
:10053000F09146038081E0914B03F0914C0382FDE2
:1005400012C0908180914E038F5F8F7320914F0373
:10055000821751F0E0914E03F0E0EB5CFC4F958F79
:1005600080934E0301C08081FF91EF919F918F9105
:100570002F910F900FBE0F901F9018951F920F9202
:100580000FB60F9211242F933F934F935F936F9366
:100590007F938F939F93AF93BF93EF93FF9380913C
:1005A000B900887F803609F49CC068F5883209F468
:1005B0005BC090F4803109F454C038F4882309F406
:1005C000F6C0883009F44DC0F6C0883109F44CC03B
:1005D000803209F45DC0EFC0803409F468C048F48B
:1005E000803309F455C0883309F0E5C08093580280
:1005F000D8C0803509F44FC0883509F45DC088340F
:1006000009F0D9C0D6C0883909F4C7C0A8F4883722
:1006100009F467C038F4883609F463C0803709F4F8
:1006200060C0C9C0883809F4B8C0803909F45FC017
:10063000803809F0C0C05BC0803B09F486C038F444
:10064000803A09F466C0883A09F47FC0B4C0803C9F
:1006500009F4A7C0883C09F4A4C0883B09F48AC007
:10066000AAC08091350210C0909157028091560225
:10067000981770F5E091570281E08E0F8093570232
:10068000F0E0EA5CFD4F80818093BB0085EC86C082
:10069000809358028EC0E091570281E08E0F8093C4
:1006A00057028091BB00F0E0EA5CFD4F808390919F
:1006B0005702809156026EC0E091570281E08E0F82
:1006C000809357028091BB00F0E0EA5CFD4F80838D
:1006D0008091590281116DC081E08093340284EAD7
:1006E00061C083E080935A0210923003CFCF809193
:1006F0003003803208F051C0E091300381E08E0F6A
:10070000809330038091BB00F0E0E05FFC4F80837A
:10071000BDCF85EC8093BC0010925A0280913003CB
:10072000803230F4E0913003F0E0E05FFC4F108263
:100730006091300370E0E0910E03F0910F0380E1CF
:1007400093E009951092300336C084E080935A02FA
:1007500010920D0310920C03E0910A03F0910B0329
:10076000099580910C03811105C081E080930C03F1
:100770001092EA02E0910D0381E08E0F80930D0349
:10078000F0E0E651FD4F80818093BB0090910D0316
:1007900080910C03981708F479CF85E88093BC000A
:1007A0000AC085EC8093BC0010925A0204C01092DB
:1007B00058020E94A901FF91EF91BF91AF919F91C3
:1007C0008F917F916F915F914F913F912F910F90FA
:1007D0000FBE0F901F9018950F931F93CF93DF9329
:1007E0001F92CDB7DEB7082F60E08AE099830E94A0
:1007F000DC0599819EBD00000DB407FEFDCF1EB53E
:100800000EBD00000DB407FEFDCF0EB561E08AE01D
:100810000E94DC05802F90E0912B0F90DF91CF910B
:100820001F910F910895E0913503F09136030190E7
:10083000F081E02D682F85E393E00994833081F007
:1008400028F4813099F08230A1F008958730A9F022
:100850008830B9F08430D1F4809180008F7D03C05E
:10086000809180008F7780938000089584B58F7782
:1008700002C084B58F7D84BD08958091B0008F77CC
:1008800003C08091B0008F7D8093B00008950097E1
:1008900069F0FC0101900020E9F73197AF01481B96
:1008A000590BBC0185E393E00C94A30080E090E039
:1008B00008958F929F92AF92BF920F931F93CF9301
:1008C000DF93CDB7DEB7A1970FB6F894DEBF0FBEAA
:1008D000CDBF19A2423008F44AE08E010F5D1F4FD0
:1008E000842E912CA12CB12CA50194010E94AC1254
:1008F000E62FB901CA0101501109EA3014F4E05D94
:1009000001C0E95CD801EC93232B242B252B61F744
:10091000C8010E944704A1960FB6F894DEBF0FBE2F
:10092000CDBFDF91CF911F910F91BF90AF909F905E
:100930008F900895CF92DF92EF92FF92CF93DF9343
:100940006C01990FEE08FF08F7FE12C08DE20E94BD
:100950001304EC0166277727CB016C197D098E09FA
:100960009F094AE00E9459047C01EC0EFD1E06C05E
:100970004AE0C701B6010E9459047C0182E292E07C
:100980000E9447048E0D9F1DDF91CF91FF90EF9045
:10099000DF90CF9008950F931F93CF93DF938C0137
:1009A000C0E0D0E0F801EC0FFD1F6491662371F008
:1009B000E0913503F09136030190F081E02D85E35D
:1009C00093E00995892B11F02196ECCFCE01DF91B0
:1009D000CF911F910F9108954F925F926F927F92E6
:1009E0008F929F92AF92BF92CF92DF92EF92FF923F
:1009F0006B017C019B01AC010E941B15882319F03F
:100A000085E292E01AC046015701E894B7F82FEF4B
:100A10003FEF4FE75FE7C501B4010E941B1581114D
:100A200010C02FEF3FEF4FE75FE7C501B4010E9411
:100A30004A13181634F489E292E00E9447047C01BC
:100A40007FC02FEF3FEF4FE75FE4C701B6010E9481
:100A5000A91418161CF48DE292E0EFCF2FEF3FEFB0
:100A60004FE75FECC701B6010E944A1387FDF3CF41
:100A700020E030E0A901C701B6010E944A1387FFB8
:100A800009C08DE20E9413045C01F7FAF094F7F8B4
:100A9000F09402C0A12CB12C2AE037ED43EA5BE3CD
:100AA000C701B6010E94DE122B013C010E94C8134F
:100AB0006B017C010E94F7139B01AC01C301B201E1
:100AC0000E94DD122B013C014AE0C701B6010E94E1
:100AD00059047C01EA0CFB1C8EE20E941304E80E10
:100AE000F91E20E030E040E251E4C301B2010E946F
:100AF000AE142B013C010E94C8134B01A12CB12C58
:100B00004AE0C501B4010E945904E80EF91EC5016E
:100B1000B4010E94F7139B01AC01C301B2010E9412
:100B2000DD1220E030E040E251E40E94AE140E9469
:100B3000C81380E090E04AE00E945904E80EF91ED4
:100B400082E292E00E9447048E0D9F1DFF90EF907D
:100B5000DF90CF90BF90AF909F908F907F906F90DD
:100B60005F904F900895CF93DF93282F30E0F901E5
:100B7000E452FF4F8491F901E853FF4FD491F901FA
:100B8000EC54FF4FC491CC2391F081110E941E04BC
:100B9000EC2FF0E0EE0FFF1FE655FF4FA591B4914B
:100BA000EC91ED2381E090E021F480E002C080E050
:100BB00090E0DF91CF9108951F93CF93DF93282F7B
:100BC00030E0F901E452FF4F8491F901E853FF4FFF
:100BD000D491F901EC54FF4FC491CC23C9F0162FE6
:100BE00081110E941E04EC2FF0E0EE0FFF1FE05673
:100BF000FF4FA591B4918FB7F894111105C09C9146
:100C0000ED2FE095E92302C0EC91ED2BEC938FBF23
:100C1000DF91CF911F910895CF93DF9390E0FC0176
:100C2000E853FF4F2491FC01EC54FF4F849188233B
:100C300061F190E0880F991FFC01EA56FF4FC591C2
:100C4000D491FC01E056FF4FA591B491611109C008
:100C50009FB7F8948881209582238883EC912E2376
:100C60000BC0623061F49FB7F8943881822F809571
:100C700083238883EC912E2B2C939FBF06C08FB7C4
:100C8000F894E8812E2B28838FBFDF91CF910895B0
:100C90001F93CF93DF93182FEB0161E00E940C06A6
:100CA000209711F460E004C0CF3FD10539F461E032
:100CB000812FDF91CF911F910C94DC05E12FF0E0A3
:100CC000E452FF4FE491E330F9F048F4E130B9F039
:100CD000E230A1F584B5806284BDC8BD34C0E73080
:100CE000E9F0E83019F1E43049F580918000806244
:100CF00080938000D0938B00C0938A0024C084B579
:100D0000806884BDC7BD1FC08091800080688093CB
:100D10008000D0938900C093880015C08091B000F6
:100D200080688093B000C093B3000DC08091B00084
:100D300080628093B000C093B40005C0C038D10574
:100D40000CF0B5CFAFCFDF91CF911F9108958E30CA
:100D500008F08E508770806480937C0080917A00C8
:100D6000806480937A0080917A0086FDFCCF809128
:100D700078002091790090E0922B08953FB7F89485
:100D800080910C0490910D04A0910E04B0910F0479
:100D900026B5A89B05C02F3F19F00196A11DB11DD6
:100DA0003FBFBA2FA92F982F8827820F911DA11D11
:100DB000B11DBC01CD0142E0660F771F881F991F4E
:100DC0004A95D1F708951F920F920FB60F921124F2
:100DD0002F933F938F939F93AF93BF938091310352
:100DE00090913203A0913303B091340330910B04FE
:100DF00023E0230F2D3720F40196A11DB11D05C05E
:100E000026E8230F0296A11DB11D20930B048093A9
:100E1000310390933203A0933303B0933403809152
:100E20000C0490910D04A0910E04B0910F04019652
:100E3000A11DB11D80930C0490930D04A0930E048A
:100E4000B0930F04BF91AF919F918F913F912F91DC
:100E50000F900FBE0F901F901895CF93DF93CDB7D3
:100E6000DEB767970FB6F894DEBF0FBECDBF78949C
:100E700084B5826084BD84B5816084BD85B582609F
:100E800085BD85B5816085BD80916E008160809350
:100E90006E001092810080918100826080938100B9
:100EA00080918100816080938100809180008160C9
:100EB000809380008091B10084608093B100809124
:100EC000B00081608093B00080917A00846080934C
:100ED0007A0080917A00826080937A0080917A0013
:100EE000816080937A0080917A00806880937A0094
:100EF0001092C10087E3E3EBF2E0DF011D928A95D7
:100F0000E9F78BE0E8EAF2E0DF011D928A95E9F764
:100F100088E0E0EAF2E0DF011D928A95E9F786E0D9
:100F2000EBE8F2E0DF011D928A95E9F74BE050E033
:100F300060E070E08FE792E00E946F12809185027E
:100F40008F3FF1F492E0909385028AE080937F02D4
:100F5000809380029093830296E99093820280931B
:100F6000810281E18093840280E797E19093870278
:100F70008093860288EE93E09093890280938802A2
:100F80004BE050E060E070E08FE792E00E947F125B
:100F900061E08AE00E940C0661E087E00E940C0696
:100FA00061E085E00E940C0661E086E00E940C068C
:100FB00061E083E00E940C0660E080E10E940C0684
:100FC00062E082E00E940C0662E084E00E940C066F
:100FD00084E0809381008CE08093B80061E08AE037
:100FE0000E94DC0560E087E00E94DC0560E085E0AF
:100FF0000E94DC0560E086E00E94DC0560E083E0A2
:101000000E94DC051092FC031092FB031092FE0379
:101010001092FD031092FF0310920004109201043D
:10102000109202041092030410920404109205041A
:1010300010920604109207041092080410920904FA
:1010400010920A041092FA0380E091E1A0E0B0E06F
:101050008093DE039093DF03A093E003B093E1035A
:1010600087E090E0A0E0B0E08093E2039093E30398
:10107000A093E403B093E5031092E6031092E70314
:101080001092E8031092E9031092EA038FEF809325
:10109000EB031092EC031092ED031092EE0310920A
:1010A000EF031092F0031092F1031092F2031092EA
:1010B000F3031092F4031092F5031092F6031092CA
:1010C000F7031092F8031092F9031FB7F894809178
:1010D0007E02811127C0EEEBF0E08491E2EDF0E0BA
:1010E0009491E82FF0E0EE0FFF1FEA56FF4FA59115
:1010F000B491EC91E92321F461E08AE00E94DC05DF
:1011000061E08AE00E940C068CB580618CBD8CB5D4
:1011100080648CBD61E08DE00E940C0661E08BE094
:101120000E940C0680917E028F5F80937E021FBF1B
:101130008CB58C7F81608CBD8DB581608DBD8CB58B
:101140008F7D8CBD8CB5837F84608CBD1092330203
:101150001092320210927C0210927B0210925A027C
:1011600081E0809359021092340261E082E10E9492
:10117000DC0561E083E10E94DC058091B9008E7F8F
:101180008093B9008091B9008D7F8093B90088E485
:101190008093B80085E48093BC00E0914503F09112
:1011A000460382E08083E0914103F0914203108284
:1011B000E0914303F091440380E1808310924D035A
:1011C000E0914903F0914A0386E08083E091470370
:1011D000F0914803808180618083E0914703F09122
:1011E0004803808188608083E0914703F091480341
:1011F000808180688083E0914703F091480380817B
:101200008F7D80830E94BE064B015C01FAEFCF2EDA
:10121000D12CE12CF12C0E94BE06DC01CB018819F7
:101220009909AA09BB09883E9340A105B10558F068
:10123000B1E0CB1AD108E108F108E8EE8E0EE3E048
:101240009E1EA11CB11CC114D104E104F10419F7C4
:101250000FB6F894A8958091600088618093600033
:10126000109260000FBEA8959CE088E10FB6F8943C
:10127000A895809360000FBE90936000A8952FB74B
:10128000F8948091310390913203A0913303B0918F
:1012900034032FBF8093B6029093B702A093B80295
:1012A000B093B9024091BA025091BB026091BC0266
:1012B0007091BD02841B950BA60BB70B0297A1057D
:1012C000B10510F40C941F128EE00E94A7069093B3
:1012D000AD028093AC028FE00E94A7069093AF020C
:1012E0008093AE0285E10E94A7069093A9028093A5
:1012F000A80284E10E94A7069093AB028093AA0201
:1013000080E10E94B3058093B00282E00E94B305A1
:101310008093B10284E00E94B3058093B202A09151
:10132000AE02B091AF0228E833E10E944A152FEFD8
:1013300033E040E050E00E94AC123093DC02209396
:10134000DB0209EC14E0021B130B1093D70200938D
:10135000D602A091AC02B091AD0224EB3FE50E9411
:101360004A152FEF33E040E050E00E94AC12200F0E
:10137000311F3093D9022093D802245039422536A8
:10138000394178F08091DA028F5F833068F01092F3
:10139000DA028091B302813049F081E08093B30298
:1013A00005C01092DA0202C08093DA028091B30283
:1013B00082508230E0F48091B6029091B702A09101
:1013C000B802B091B9024091D2025091D30260911B
:1013D000D4027091D502841B950BA60BB70B8838ED
:1013E0009341A105B10518F081E08093B302E0912B
:1013F000B3028E2F90E08A30910508F0F6C6FC010A
:10140000EC5CFF4F0C94441581E08093B30284E6BA
:1014100090E09093E9028093E8028EE997E0909340
:10142000A3028093A2029093A5028093A40289E76D
:101430008093A1021092A0021092A7021092B5020E
:101440001092B4021092E4021092E3021092E602AB
:101450001092E5021092E0021092DF021092E10277
:101460001092E2021092E7028091D8029091D90284
:10147000895F9A428B37954150F480919F028F5F2C
:1014800080939F028A3028F082E08093B30210920A
:101490009F028091B6029091B702A091B802B091DC
:1014A000B9028093D2029093D302A093D402B09356
:1014B000D5029EC682E08093B30280E098E70E9446
:1014C000EC039093E0028093DF0298728F3F984282
:1014D000D9F480919E028F5F80939E028A3008F437
:1014E00087C683E08093B3028091B6029091B702E1
:1014F000A091B802B091B9028093D2029093D30226
:10150000A093D402B093D50210929E0271C683E0DC
:101510008093B3028091E1028130C9F08DE996E5B4
:101520000E94EC0381E08093E10210929D02809181
:10153000B6029091B702A091B802B091B90280931F
:10154000C2029093C302A093C402B093C5028091DB
:10155000B6029091B702A091B802B091B902409141
:10156000C2025091C3026091C4027091C502841BF3
:10157000950BA60BB70B86399105A105B10508F4AB
:1015800037C62091A8023091A902C9018759910953
:10159000893F910548F58091AA029091AB02AC0178
:1015A0004759510945395105F8F44091E3025091EA
:1015B000E402240F351F3093E4022093E3022091CC
:1015C000E5023091E602820F931F9093E60280932A
:1015D000E5029091A60281E089278093A60280917E
:1015E0009D028F5F80939D0280919D028A3008F456
:1015F0009CC58091E3029091E4022AE030E0B901B9
:101600000E9430157093E4026093E3028091E5023A
:101610009091E602B9010E9430157093E602609342
:10162000E50281E08093A60284E08093B3028AE120
:1016300092E00E9447048091E3029091E4020E94AC
:101640009A048EE192E00E9447048091E502909115
:10165000E6020E949A048091B6029091B702A0918E
:10166000B802B091B9028093D2029093D302A093B2
:10167000D402B093D50210929D0257C584E08093A6
:10168000B3028091E1028230B9F088E896E50E94C9
:10169000EC0382E08093E1028091B6029091B70260
:1016A000A091B802B091B9028093990290939A02E6
:1016B000A0939B02B0939C024091B6025091B70256
:1016C0006091B8027091B9028091990290919A024A
:1016D000A0919B02B0919C022A013B01481A590A31
:1016E0006A0A7B0AD301C2018A3F9105A105B105AF
:1016F00070F09091A70281E089278093A702409320
:10170000990250939A0260939B0270939C0280917D
:10171000B00281116DC585E08093B3021092A702DB
:1017200067C585E08093B3029091E702C090B6024E
:10173000D090B702E090B802F090B902953091F0E5
:101740008093E702C0929502D0929602E0929702AF
:10175000F0929802C092BE02D092BF02E092C00204
:10176000F092C1022091D8023091D902032E000CD0
:10177000440B550B64E276ED85E090E00E94AC12DC
:10178000233218F42093A00203C082E28093A002C7
:101790008091BE029091BF02A091C002B091C1029F
:1017A00097018601081B190B2A0B3B0BD901C801B5
:1017B00080379741A105B10558F086E08093B302C8
:1017C000C092D202D092D302E092D402F092D5021B
:1017D0008091950290919602A0919702B091980203
:1017E000A7019601281B390B4A0B5B0B24363105E8
:1017F0004105510508F4FCC49091A70281E08927B6
:101800008093A702C0929502D0929602E09297022E
:10181000F0929802EDC486E08093B3029091E702C3
:10182000C090B602D090B702E090B802F090B90232
:10183000963009F445C08093E702C092BE02D09270
:10184000BF02E092C002F092C102C092C602D092E2
:10185000C702E092C802F092C9026090D80270906C
:10186000D9024301072C000CAA08BB0860EC70E207
:101870008FE190E0A50194010E94AC12122F2093F9
:10188000940260E77EE881E090E0A50194010E9467
:10189000AC122093930238EC631632E3730624F4FF
:1018A0008FEF809392020AC068E375E982E390E0CB
:1018B000A50194010E94AC12209392021093A00201
:1018C0008091BE029091BF02A091C002B091C1026E
:1018D000B701A601481B590B6A0B7B0BDB01CA0140
:1018E000883E9340A105B105A8F19091A70281E03F
:1018F00089278093A7022091A00290919202291734
:1019000058F46091AA027091AB024091E5025091A7
:10191000E6024617570764F088E08093B302C0924E
:10192000D202D092D302E092D402F092D5020AC041
:1019300080919302820F981718F08093A00202C042
:101940009093A002C092BE02D092BF02E092C00269
:10195000F092C1028091C6029091C702A091C80284
:10196000B091C902C81AD90AEA0AFB0A68E9C61680
:101970006AE3D606E104F10408F037C439C488E00C
:101980008093B3028091E702873019F087E080935B
:10199000E7028091E102823039F088E896E50E9402
:1019A000EC0382E08093E1024090B6025090B702CF
:1019B0006090B8027090B90249865A866B867C8620
:1019C0008091BE029091BF02A091C002B091C1026D
:1019D000481A590A6A0A7B0AD301C2010A97A1056B
:1019E000B10508F4E2C18091E702873009F0CDC16A
:1019F0002090AA023090AB02A101032C000C660BD0
:101A0000770B8091E5029091E602092E000CAA0B5B
:101A1000BB0B2A013B01481A590A6A0A7B0A20912A
:101A2000DE033091DF034091E0035091E103211583
:101A300031054105510549F0C301B2010E9420154D
:101A400069837A838B839C8304C019821A821B82E8
:101A50001C820091E2031091E3032091E403309192
:101A6000E503011511052105310509F488C0580168
:101A70006901E12CF12C00E010E09201A301C30107
:101A8000B201990F660B762FCB016D837E838F8316
:101A900098876D81762F862F962F0E945115A090E2
:101AA000FF03B0900004C0900104D0900204E090C5
:101AB0000304F090040400910504109106040E94B0
:101AC000C81579018A01B62FA72FF82FD92E2F3FDD
:101AD0003F4F4F4F5F476105710581059105A1F0AB
:101AE0009CF08FEF8093FF038093000480930104A8
:101AF0008FE7809302041092030410920404109262
:101B000005041092060432C09701A8016B2F7A2FAA
:101B10008F2F9D2D21153105410550486F4F7F4F67
:101B20008F4F9F4F8CF0E092FF03F09200040093E0
:101B3000010410930204B0930304A0930404F093EF
:101B40000504D092060412C01092FF031092000404
:101B50001092010480E8809302048FEF80930304C5
:101B6000809304048093050480930604E090FF03AF
:101B7000F0900004009101041091020403C0E12CD4
:101B8000F12C87012091E6033091E7034091E803AF
:101B90005091E903211531054105510509F44AC069
:101BA0008091070490910804A0910904B0910A045F
:101BB00053014201881A990AAA0ABB0A8091FB03C1
:101BC0009091FC03B101681B790BCB01092E000C2D
:101BD000AA0BBB0B3092FC032092FB03409207043C
:101BE000509208046092090470920A04240135019D
:101BF000481A590A6A0A7B0AD301C201411460E8F3
:101C000056066FEF6606760624F480E090E8AFEFA4
:101C1000BFEFBC01CD016115A0E87A0781059105F0
:101C200024F06FEF7FE780E090E00E9420152B0109
:101C30003C0103C0412C512C320189809A80AB8039
:101C4000BC80BB0C8808982C5401A8019701550F43
:101C5000220B322FA9012D833E834F835887298180
:101C60003A814B815C81682D782D882D982D570104
:101C70006801ED80FE2C0E2D1E2D0E94C8158301DB
:101C80007201110FEE08FE2C8701E982FA820B83A4
:101C90001C8352016301E980FE2C0E2D1E2D0E9433
:101CA000C8151901DA012B01682E9D83E091EA0322
:101CB000ED8B7090EB038090EC039090ED03F0912E
:101CC000EE03FE8BE091EF03EF8BF091F003E091D8
:101CD000F103AD88B72C6401EE88FF880F2F1E2F0B
:101CE0000E94D11509F08CF5F091F203FD877090F8
:101CF000F3037E86E091F403EF87F091F503F88B10
:101D00007090F603798AE091F703EA8BF091F8037B
:101D1000FB8B7090F9037C8A2D8A732C4D014E8ABF
:101D20005F8AF62DE92FAD84BE84CF84D888E988F8
:101D3000FA880B891C890E94D1153CF4AD8A7B2C52
:101D40004601EE8AFF8AF02FE12F2D89372DA4015D
:101D50006E897F898F2F9E2F08E00E94AA15E22F9F
:101D6000F32F2D89207830E040E050E060E070E013
:101D700080E090E0A0E00E94DA1509F03196E0934F
:101D8000A00281E08093A70204C01092A0021092EA
:101D9000A70249845A846B847C844092BE0250928C
:101DA000BF026092C0027092C1028091C202909103
:101DB000C302A091C402B091C50249845A846B84C5
:101DC0007C84481A590A6A0A7B0AD301C20108971F
:101DD000A105B10508F40CC280E098E70E94EC036D
:101DE0009093DE028093DD0298728F3F984289F0D3
:101DF0008091E2028F5F8093E202833090F084E072
:101E000090E09093E0028093DF0289E08093B30238
:101E100006C082E090E09093E0028093DF0210928F
:101E2000E2028091B302893009F46FC16091A80287
:101E30007091A9020091E3021091E402601771070A
:101E400009F422C1072E000C880B990B0E94F9138C
:101E500020E030E040EA50E40E94AE1420E030EC94
:101E60004FE754E40E944F136B017C01B801110F3E
:101E7000880B990B0E94F91320E030E040EA50E40F
:101E80000E94AE1420E030EC4FE754E40E944F1360
:101E90009B01AC01C701B6010E94DD122091E10255
:101EA000223031F4C12CD12CE12CE1E4FE2E06C00D
:101EB000C12CD12C58E8E52E51E4F52E20E030E07D
:101EC0004AE754E40E94AE144B015C012AE939E967
:101ED00047E752E4C701B6010E94AE149B01AC0172
:101EE000C501B4010E944F1320E030E04AE754E4FA
:101EF0000E94AE140E94C1138B0170938C026093F8
:101F00008B02613328EF72075CF06A3C78407CF00A
:101F1000C12C40ECD42E4CE7E42E44E4F42E0AC04D
:101F2000C12CD12C32E8E32E32E4F32E03C0C12CB5
:101F3000D12C760120E0222E21E0322E40E351E028
:101F40005A8349832801012E000C660877084986C8
:101F50005A866B867C8620E030E0A901C701B60175
:101F60000E944A1381118AC0A981BA814D905D9067
:101F7000BA83A9835E824D824016510651F4D10185
:101F80006D917C91072E000C880B990B0E94F91320
:101F90006AC04D805E80041515050CF466C0A981E9
:101FA000BA816D917C91601771070CF45EC0072EA9
:101FB000000C880B990B0E94F9132B013C01F101D5
:101FC00062817381072E000C880B990B0E94F91314
:101FD0006B017C01D1016D917C91072E000C880B67
:101FE000990B0E94F9139B01AC01C701B6010E9435
:101FF000DD124B015C01ED81FE81BF01FF0F880BFB
:10200000990B0E94F9139B01AC01C301B2010E941C
:10201000DD129B01AC01C501B4010E944F134B01BD
:102020005C0169857A858B859C850E94F913A501E1
:1020300094010E94AE146D837E838F839887A501DF
:102040009401C301B2010E94AE149B01AC01C7010F
:10205000B6010E94DD129B01AC016D817E818F81F2
:1020600098850E94DE126B017C01F2E02F0E311C7C
:102070002EE2221621E0320609F06DCFC701B6012B
:102080000E94C113DB0102C0A4E6B0E0B093E902F4
:10209000A093E802A434B10534F0A938B1052CF0BE
:1020A000A8E8B0E002C0A4E4B0E02AEF36E10E9464
:1020B0004A1524E630E040E050E00E94AC1269018D
:1020C0007A01AFEFB0E00E94A11264557E498D40C5
:1020D000910928E833E140E050E00E94AC122093DF
:1020E000A102AFEFBFE0A70196010E94A1126455C3
:1020F000724B8A4D910928E833E140E050E00E949C
:10210000AC123093A3022093A2029091B0029130BE
:1021100051F4809191028F5F80939102833028F077
:102120009093B30202C0109291028091B6029091F6
:10213000B702A091B802B091B9028093C202909305
:10214000C302A093C402B093C50252C084E690E0DB
:102150009093E9028093E8028EE997E09093A302BE
:102160008093A2029093A5028093A40289E78093B2
:10217000A1021092A0024091B6025091B702609164
:10218000B8027091B9028091CE029091CF02A091D5
:10219000D002B091D1022A013B01481A590A6A0AB9
:1021A0007B0A04EF401601E0500661047104C8F098
:1021B0008091DF029091E002049759F49091A60279
:1021C00081E098279093A6029091A7028927809397
:1021D000A7024093CE025093CF026093D002709337
:1021E000D1028091B002813019F481E08093B30272
:1021F0006091A00270E086E00E9448066091A10212
:1022000070E083E00E9448066091A60287E00E9489
:10221000DC056091A70285E00E94DC050091A20226
:102220001091A30281E080937D0284E680938A026C
:1022300010927C0210927B0260E482ED93E00E9497
:102240003102B80184E0769567958A95E1F782EDD1
:1022500093E00E943102B80194E0660F771F9A95CF
:10226000E1F782ED93E00E94310280917B0281329E
:1022700008F045C090915A029111FCCF92E09093E2
:102280005A0291E0909359029FEF90935802109256
:10229000570280935602ABE5B2E026E332E0F90143
:1022A0009E2F921B981718F49D919193F9CF10923D
:1022B000350280913502886C80933502809134021A
:1022C000813061F410923402809135028093BB001A
:1022D0008091BC0083FDF8CF85EC01C085EE809332
:1022E000BC0080915A028230E1F3809158028F3F06
:1022F00031F080915802803211F080915802109292
:102300007C0210927B0210927D028091B602909125
:10231000B702A091B802B091B9024091CA0250919F
:10232000CB026091CC027091CD02841B950BA60B61
:10233000B70B86399105A105B10508F470C08091ED
:10234000B302813029F49091A60289278093A602D6
:1023500080E990E00E94CB048091B3021FE0819F4E
:10236000C0011124805A9E4F0E94470482E292E0ED
:102370000E94470488E890E00E94CB046091D80254
:102380007091D902072E000C880B990B0E94F9134B
:1023900020E030E04AE754E40E944F130E94EC042E
:1023A0008091DF029091E00202970297B8F480E8F2
:1023B00090E00E94CB046091E8027091E902072E40
:1023C000000C880B990B0E94F91320E030E048ECD8
:1023D00052E40E944F130E94EC0411C08CE790E07D
:1023E0000E94CB046091DD027091DE0280E090E0FB
:1023F00040E10E94590482E292E00E9447048091E9
:10240000B6029091B702A091B802B091B902809340
:10241000CA029093CB02A093CC02B093CD028091DC
:10242000B6029091B702A091B802B091B902809320
:10243000BA029093BB02A093BC02B093BD020E946B
:102440009F010C943E09E5E3F3E01382128288EECB
:1024500093E0A0E0B0E084839583A683B7832AEF5E
:1024600031E03183208325EC30E03587248724EC6C
:1024700030E03787268720EC30E0318B208B21EC51
:1024800030E0338B228B22EC30E0358B248B26EC32
:1024900030E0378B268B118E128E138E148EE2ED68
:1024A000F3E01382128284839583A683B7838CE042
:1024B00092E091838083EEEDF3E0168E158E10A2EC
:1024C000178E11A212A213A214A215A216A217A26D
:1024D00010A611A612A613A614A6148E0895DC0148
:1024E000CB01FC01F999FECF06C0F2BDE1BDF89A1F
:1024F000319600B40D9241505040B8F70895DC0178
:10250000A40FB51F4150504048F0CB01840F951FD8
:102510002E910E94901241505040D0F70895262FDE
:10252000F999FECF92BD81BDF89A019700B40216C9
:1025300039F01FBA20BD0FB6F894FA9AF99A0FBE77
:1025400008950E94CE12A59F900DB49F900DA49F58
:10255000800D911D11240895A1E21A2EAA1BBB1B08
:10256000FD010DC0AA1FBB1FEE1FFF1FA217B3075F
:10257000E407F50720F0A21BB30BE40BF50B661F75
:10258000771F881F991F1A9469F760957095809539
:1025900090959B01AC01BD01CF010895A29FB001B0
:1025A000B39FC001A39F700D811D1124911DB29F87
:1025B000700D811D1124911D08955058BB27AA2725
:1025C0000E94F5120C946F140E94611438F00E945E
:1025D000681420F039F49F3F19F426F40C945E142B
:1025E0000EF4E095E7FB0C945814E92F0E94801438
:1025F00058F3BA17620773078407950720F079F438
:10260000A6F50C94A2140EF4E0950B2EBA2FA02D73
:102610000B01B90190010C01CA01A0011124FF278F
:10262000591B99F0593F50F4503E68F11A16F0408A
:10263000A22F232F342F4427585FF3CF4695379589
:102640002795A795F0405395C9F77EF41F16BA0B4E
:10265000620B730B840BBAF09150A1F0FF0FBB1FFC
:10266000661F771F881FC2F70EC0BA0F621F731F45
:10267000841F48F4879577956795B795F7959E3FA2
:1026800008F0B0CF9395880F08F09927EE0F979533
:10269000879508950E94341408F481E008950E94FB
:1026A00063130C946F140E94681458F00E94611414
:1026B00040F029F45F3F29F00C94581451110C9408
:1026C000A3140C945E140E94801468F39923B1F350
:1026D000552391F3951B550BBB27AA276217730748
:1026E000840738F09F5F5F4F220F331F441FAA1FDC
:1026F000A9F335D00E2E3AF0E0E832D09150504098
:10270000E695001CCAF72BD0FE2F29D0660F771F45
:10271000881FBB1F261737074807AB07B0E809F02B
:10272000BB0B802DBF01FF2793585F4F3AF09E3FB0
:10273000510578F00C9458140C94A3145F3FE4F303
:10274000983ED4F3869577956795B795F7959F5FF3
:10275000C9F7880F911D9695879597F90895E1E03F
:10276000660F771F881FBB1F621773078407BA079E
:1027700020F0621B730B840BBA0BEE1F88F7E095F9
:1027800008950E94C8136894B1110C94A31408957D
:102790000E94881488F09F5798F0B92F9927B75155
:1027A000B0F0E1F0660F771F881F991F1AF0BA95F5
:1027B000C9F714C0B13091F00E94A214B1E008959D
:1027C0000C94A214672F782F8827B85F39F0B93F8F
:1027D000CCF3869577956795B395D9F73EF49095A8
:1027E0008095709561957F4F8F4F9F4F0895E89426
:1027F00009C097FB3EF490958095709561957F4F49
:102800008F4F9F4F9923A9F0F92F96E9BB279395F6
:10281000F695879577956795B795F111F8CFFAF406
:10282000BB0F11F460FF1BC06F5F7F4F8F4F9F4F37
:1028300016C0882311F096E911C0772321F09EE895
:10284000872F762F05C0662371F096E8862F70E0FB
:1028500060E02AF09A95660F771F881FDAF7880FD5
:102860009695879597F90895990F0008550FAA0B2B
:10287000E0E8FEEF16161706E807F907C0F0121693
:102880001306E407F50798F0621B730B840B950B96
:1028900039F40A2661F0232B242B252B21F40895EB
:1028A0000A2609F4A140A6958FEF811D811D089588
:1028B00097F99F6780E870E060E008959FEF80ECF3
:1028C000089500240A941616170618060906089596
:1028D00000240A9412161306140605060895092EFC
:1028E0000394000C11F4882352F0BB0F40F4BF2B6B
:1028F00011F460FF04C06F5F7F4F8F4F9F4F0895AB
:1029000057FD9058440F551F59F05F3F71F04795A0
:10291000880F97FB991F61F09F3F79F08795089585
:10292000121613061406551FF2CF4695F1DF08C0A4
:10293000161617061806991FF1CF869571056105C1
:1029400008940895E894BB2766277727CB0197F969
:1029500008950E94341408F48FEF08950E94C11462
:102960000C946F140E94611438F00E94681420F0D7
:10297000952311F00C9458140C945E1411240C94AB
:10298000A3140E94801470F3959FC1F3950F50E03B
:10299000551F629FF001729FBB27F00DB11D639F11
:1029A000AA27F00DB11DAA1F649F6627B00DA11DB7
:1029B000661F829F2227B00DA11D621F739FB00D5D
:1029C000A11D621F839FA00D611D221F749F3327CD
:1029D000A00D611D231F849F600D211D822F762F66
:1029E0006A2F11249F5750409AF0F1F088234AF043
:1029F000EE0FFF1FBB1F661F771F881F91505040AF
:102A0000A9F79E3F510580F00C9458140C94A31420
:102A10005F3FE4F3983ED4F3869577956795B79535
:102A2000F795E7959F5FC1F7FE2B880F911D96954F
:102A3000879597F908950E943414880B990B08958F
:102A4000DB018F939F930E94A112BF91AF91A29F30
:102A5000800D911DA39F900DB29F900D112408959C
:102A600097FB072E16F4009407D077FD09D00E943B
:102A7000E61507FC05D03EF4909581959F4F08958B
:102A8000709561957F4F0895EE0FFF1F0590F491AB
:102A9000E02D09940E94CE12B7FF0895821B930B7C
:102AA0000895DF93CF931F930F939A9DF02D219F4D
:102AB000F00D8B9DF00D8A9DE02DF10D039FF00D23
:102AC000029FE00DF11D4E9DE00DF11D5E9DF00D8C
:102AD0004F9DF00D7F936F93BF92AF925F934F9393
:102AE000D5010E94CE128B01AC01D7010E94CE12FB
:102AF000EB01E80FF91FD6010E94A1152F913F911C
:102B0000D6010E94CE12C60FD71FE81FF91FAF9142
:102B1000BF910E94A1152F913F910E94CE12C60F26
:102B2000D71FE81FF91FD6010E94CE12E60FF71F2C
:102B30009801BE01CF0111240F911F91CF91DF9118
:102B400008950E94CE12460F571FC81FD91F08F4C0
:102B50003196089597FB10F8169400080F930830EB
:102B600098F00850232F342F452F562F672F782F9A
:102B7000892F902DF4CF0594979587957795679534
:102B800057954795379527950A95AAF70F91089578
:102B90002A0D3B1D4C1D5D1D6E1D7F1D801F911F4D
:102BA00008952A153B054C055D056E057F058007D8
:102BB000910708950024A7FD00942A1730054005C9
:102BC000500560057005800590050895AA1BBB1B84
:102BD00051E107C0AA1FBB1FA617B70710F0A61B1D
:102BE000B70B881F991F5A95A9F780959095BC013E
:102BF000CD01089581E090E0F8940C94FF15F894CD
:022C0000FFCF04
:102C0200410046004B005000520055005A005F0040
:102C1200610063006400650069006E007100750068
:102C22008E00AA00C700F30055011B02EE02F30357
:102C320030F8BEF925FB61FCE0FC74FD6BFE49FF38
:102C420096FFD8FF00000F006100C100FA004901A1
:102C52009F02AA037E046905A406D0076608CA0873
:102C6200494E56414C49440000000000000000500B
:102C72005245534554000000000000000000535428
:102C82004152540000000000000000000043414C8B
:102C92004942524154494F4E0000000049444C45BC
:102CA2000000000000000000000000434F4E4445B9
:102CB2004E534154450000000000505245484541E2
:102CC20054000000000000000050494400000000D1
:102CD200000000000000000052554E4E494E4700D1
:102CE200000000000000004552524F520000000058
:102CF200000000000000000000003601A300CE002A
:102D02007D01FF00DD00F100000000003102010240
:102D12006102DB01F901EA01DC0155413A00555239
:102D22003A000D0A006E616E00696E66006F76668B
:022D320000009F
:107E0000112484B714BE81FFF0D085E080938100F7
:107E100082E08093C00088E18093C10086E0809377
:107E2000C20080E18093C4008EE0C9D0259A86E02C
:107E300020E33CEF91E0309385002093840096BBD3
:107E4000B09BFECF1D9AA8958150A9F7CC24DD24C4
:107E500088248394B5E0AB2EA1E19A2EF3E0BF2EE7
:107E6000A2D0813461F49FD0082FAFD0023811F036
:107E7000013811F484E001C083E08DD089C08234E0
:107E800011F484E103C0853419F485E0A6D080C0E4
:107E9000853579F488D0E82EFF2485D0082F10E0AE
:107EA000102F00270E291F29000F111F8ED06801E7
:107EB0006FC0863521F484E090D080E0DECF843638
:107EC00009F040C070D06FD0082F6DD080E0C81688
:107ED00080E7D80618F4F601B7BEE895C0E0D1E017
:107EE00062D089930C17E1F7F0E0CF16F0E7DF06D8
:107EF00018F0F601B7BEE89568D007B600FCFDCFD4
:107F0000A601A0E0B1E02C9130E011968C91119780
:107F100090E0982F8827822B932B1296FA010C0160
:107F200087BEE89511244E5F5F4FF1E0A038BF0790
:107F300051F7F601A7BEE89507B600FCFDCF97BE46
:107F4000E89526C08437B1F42ED02DD0F82E2BD052
:107F50003CD0F601EF2C8F010F5F1F4F84911BD097
:107F6000EA94F801C1F70894C11CD11CFA94CF0C13
:107F7000D11C0EC0853739F428D08EE10CD085E9AC
:107F80000AD08FE07ACF813511F488E018D01DD067
:107F900080E101D065CF982F8091C00085FFFCCF94
:107FA0009093C60008958091C00087FFFCCF809118
:107FB000C00084FD01C0A8958091C6000895E0E648
:107FC000F0E098E1908380830895EDDF803219F02E
:107FD00088E0F5DFFFCF84E1DECF1F93182FE3DFCA
:107FE0001150E9F7F2DF1F91089580E0E8DFEE27F6
:047FF000FF270994CA
:027FFE00040479
:0400000300007E007B
:00000001FF
