:100000000C9479000C94A1000C94A1000C94A10014
:100010000C94A1000C94A1000C94A1000C94A100DC
:100020000C94A1000C94A1000C94A1000C94A100CC
:100030000C94A1000C94A1000C94A1000C94A100BC
:100040000C9488060C94A1000C9497020C947102F5
:100050000C94A1000C94A1000C94A1000C94A1009C
:100060000C94C9020C94A1009210C309150A420A0B
:10007000F90A4C0BC60B9210790C471000000000D7
:10008000230026002900436A3A004C616D626461D6
:100090003A00537570706C793A004D6F64653A00A0
:1000A00000000000240027002A00000000002500B6
:1000B00028002B00040404040404040402020202C5
:1000C000020203030303030301020408102040801B
:1000D000010204081020010204081020000000089A
:1000E00000020100000304070000000000000000FF
:1000F000191211241FBECFEFD8E0DEBFCDBF12E032
:10010000A0E0B1E0E8E5FBE202C005900D92AA3262
:10011000B107D9F724E0AAE2B2E001C01D92A732EC
:10012000B207E1F710E0C9E7D0E004C02197FE0173
:100130000E94B112C837D107C9F70E94D2060C94A9
:10014000AA150C940000CF92DF92EF92FF920F93CA
:100150001F93CF93DF936C017A018B01C0E0D0E055
:10016000CE15DF0581F0D8016D918D01D601ED919D
:10017000FC910190F081E02DC6010995892B11F0C9
:100180002196EECF7E01C701DF91CF911F910F9194
:10019000FF90EF90DF90CF900895FC01538D448D38
:1001A000252F30E0842F90E0821B930B541710F022
:1001B000CF96089501970895FC01918D828D98172F
:1001C00061F0828DDF01A80FB11D5D968C91928D3B
:1001D0009F5F9F73928F90E008958FEF9FEF089538
:1001E000FC01918D828D981731F0828DE80FF11D01
:1001F000858D90E008958FEF9FEF0895FC01918D1C
:10020000228D892F90E0805C9F4F821B91098F7314
:100210009927089585E893E00E94FE0021E0892B4C
:1002200009F420E0822F0895FC01848DDF01A80FDE
:10023000B11DA35ABF4F2C91848D90E001968F730E
:100240009927848FA689B7892C93A089B1898C912D
:10025000837080648C93938D848D981306C002887C
:10026000F389E02D80818F7D80830895EF92FF9246
:100270000F931F93CF93DF93EC0181E0888F9B8DC9
:100280008C8D981305C0E889F989808185FD26C089
:10029000F62E0B8D10E00F5F1F4F0F731127E02E0E
:1002A0008C8DE8120CC00FB607FCFACFE889F989EB
:1002B000808185FFF5CFCE010E941401F1CF8B8D97
:1002C000FE01E80FF11DE35AFF4FF0829FB7F8944B
:1002D0000B8FEA89FB89808180620AC09FB7F894FE
:1002E000EE89FF896083E889F98980818370806461
:1002F00080839FBF81E090E0DF91CF911F910F91AC
:10030000FF90EF900895CF93DF93EC01888D8823C1
:10031000C9F0EA89FB89808185FD05C0A889B98972
:100320008C9186FD0FC00FB607FCF5CF808185FF4D
:10033000F2CFA889B9898C9185FFEDCFCE010E94BB
:100340001401E7CFDF91CF91089580E090E0892BF1
:1003500029F00E940A0181110C940000089585ED96
:100360008093BC008091BC0084FDFCCF10925602AB
:10037000089540915E03262F30E0240F311D213275
:100380003105DCF4209156022430C9F4FC0180E0F0
:1003900090E0861758F430915E032191DC01A25C55
:1003A000BC4FA30FB11D2C930196F3CF80915E0338
:1003B000680F60935E0380E0089581E0089582E015
:1003C0000895089508950895E0912F0280912E02D6
:1003D000E81730F4F0E0E25EFC4F808190E0089591
:1003E0008FEF9FEF089590912F0280912E02981722
:1003F00050F4E92FF0E0E25EFC4F208130E09F5F97
:1004000090932F0202C02FEF3FEFC9010895809112
:100410002E0290E020912F02821B91090895CF9225
:10042000DF92EF92FF920F931F93CF93DF937C01A4
:10043000CB018A0120917902222389F0EB016B0123
:10044000C40ED51ECC15DD0569F06991D701ED917B
:10045000FC910190F081E02DC7010995F3CF642F45
:100460000E94B901C801DF91CF911F910F91FF90B8
:10047000EF90DF90CF900895CF93DF931F92CDB789
:10048000DEB76983209179022223D1F0209177028F
:10049000203240F021E030E0FC013383228380E011
:1004A00090E015C080917802E82FF0E0E95AFD4F06
:1004B000998190838F5F809378028093770205C043
:1004C00061E0CE0101960E94B90181E090E00F90B9
:1004D000DF91CF910895089580E090E008950E9403
:1004E000A5151F920F920FB60F9211242F933F93D1
:1004F0004F935F936F937F938F939F93AF93BF932C
:10050000EF93FF9385E893E00E941401FF91EF9130
:10051000BF91AF919F918F917F916F915F914F911B
:100520003F912F910F900FBE0F901F9018951F9223
:100530000F920FB60F9211242F938F939F93EF93E7
:10054000FF93E0919503F09196038081E0919B03E6
:10055000F0919C0382FD12C0908180919E038F5F79
:100560008F7320919F03821751F0E0919E03F0E07A
:10057000EB57FC4F958F80939E0301C08081FF91C4
:10058000EF919F918F912F910F900FBE0F901F9021
:1005900018951F920F920FB60F9211242F933F932D
:1005A0004F935F936F937F938F939F93AF93BF937B
:1005B000EF93FF938091B900887F803609F49CC047
:1005C00068F5883209F45BC090F4803109F454C0B6
:1005D00038F4882309F4F6C0883009F44DC0F6C019
:1005E000883109F44CC0803209F45DC0EFC080341A
:1005F00009F468C048F4803309F455C0883309F021
:10060000E5C080935402D8C0803509F44FC08835C6
:1006100009F45DC0883409F0D9C0D6C0883909F41E
:10062000C7C0A8F4883709F467C038F4883609F4DD
:1006300063C0803709F460C0C9C0883809F4B8C005
:10064000803909F45FC0803809F0C0C05BC0803BCE
:1006500009F486C038F4803A09F466C0883A09F48F
:100660007FC0B4C0803C09F4A7C0883C09F4A4C092
:10067000883B09F48AC0AAC08091310210C09091D1
:10068000530280915202981770F5E091530281E075
:100690008E0F80935302F0E0EE5CFD4F80818093DB
:1006A000BB0085EC86C0809354028EC0E09153025B
:1006B00081E08E0F809353028091BB00F0E0EE5CEE
:1006C000FD4F808390915302809152026EC0E09161
:1006D000530281E08E0F809353028091BB00F0E0C3
:1006E000EE5CFD4F80838091550281116DC081E0E9
:1006F0008093300284EA61C083E0809356021092B6
:100700008003CFCF80918003803208F051C0E09108
:10071000800381E08E0F809380038091BB00F0E026
:10072000E05AFC4F8083BDCF85EC8093BC001092D3
:10073000560280918003803230F4E0918003F0E033
:10074000E05AFC4F10826091800370E0E0912A0231
:10075000F0912B0280E693E009951092800336C059
:1007600084E08093560210925F0310925E03E09142
:100770002C02F0912D02099580915E03811105C034
:1007800081E080935E0310923E03E0915F0381E07D
:100790008E0F80935F03F0E0E25CFC4F80818093DA
:1007A000BB0090915F0380915E03981708F479CFA6
:1007B00085E88093BC000AC085EC8093BC00109251
:1007C000560204C0109254020E94AF01FF91EF91B3
:1007D000BF91AF919F918F917F916F915F914F9159
:1007E0003F912F910F900FBE0F901F901895CF93B0
:1007F000DF93EC0160E08AE00E948205DEBD00002C
:100800000DB407FEFDCFDEB5CEBD00000DB407FE72
:10081000FDCFCEB561E08AE00E9482058C2F90E08A
:100820009D2BDF91CF910895009769F0FC01019015
:100830000020E9F73197AF01481B590BBC0185E84F
:1008400093E00C94A30080E090E008958F929F9233
:10085000AF92BF920F931F93CF93DF93CDB7DEB7C5
:10086000A1970FB6F894DEBF0FBECDBF19A24230DC
:1008700008F44AE08E010F5D1F4F842E912CA12CAD
:10088000B12CA50194010E945C12E62FB901CA01A6
:1008900001501109EA3014F4E05D01C0E95CD801AF
:1008A000EC93232B242B252B61F7C8010E94140401
:1008B000A1960FB6F894DEBF0FBECDBFDF91CF91EA
:1008C0001F910F91BF90AF909F908F900895CF92FE
:1008D000DF92EF92FF92CF93DF936C01990FEE08B6
:1008E000FF08F7FE13C06DE285E893E00E94360131
:1008F000EC0166277727CB016C197D098E099F09CA
:100900004AE00E942604C80FD91F06C04AE0C7016A
:10091000B6010E942604EC0182E292E00E941404D7
:100920008C0F9D1FDF91CF91FF90EF90DF90CF90C4
:1009300008950F931F93CF93DF938C01C0E0D0E015
:10094000F801EC0FFD1F6491662341F085E893E008
:100950000E943601892B11F02196F2CFCE01DF9152
:10096000CF911F910F9108954F925F926F927F9256
:100970008F929F92AF92BF92CF92DF92EF92FF92AF
:100980006B017C012FEF3FEF4FE75FE40E943315CF
:10099000181634F485E292E00E9414047C0176C0BB
:1009A0002FEF3FEF4FE75FECC701B6010E94D41372
:1009B00087FDF0CF20E030E0A901C701B6010E9419
:1009C000D41387FF0BC06DE285E893E00E943601E7
:1009D0005C01F7FAF094F7F8F09402C0A12CB12C66
:1009E0002BE037ED43EA5BE3C701B6010E946813D1
:1009F0002B013C010E9452146B017C010E94811466
:100A00009B01AC01C301B2010E9467132B013C01A1
:100A10004AE0C701B6010E9426047C01EA0CFB1CD7
:100A20006EE285E893E00E943601E80EF91E20E0B0
:100A300030E040E251E4C301B2010E9438152B01BD
:100A40003C010E9452144B01A12CB12C4AE0C5017B
:100A5000B4010E942604E80EF91EC501B4010E94EB
:100A600081149B01AC01C301B2010E94671320E015
:100A700030E040E251E40E9438150E94521480E0B8
:100A800090E04AE00E942604E80EF91E82E292E01D
:100A90000E9414048E0D9F1DFF90EF90DF90CF9069
:100AA000BF90AF909F908F907F906F905F904F908E
:100AB0000895833081F028F4813099F08230A1F0DC
:100AC00008958730A9F08830B9F08430D1F480914E
:100AD00080008F7D03C0809180008F77809380009D
:100AE000089584B58F7702C084B58F7D84BD089545
:100AF0008091B0008F7703C08091B0008F7D80938C
:100B0000B00008951F93CF93DF93282F30E0F901B1
:100B1000E452FF4F8491F901E853FF4FD491F9015A
:100B2000EC54FF4FC491CC23C1F0162F81110E94C9
:100B30005905EC2FF0E0EE0FFF1FE655FF4FA59192
:100B4000B4919FB7F894111104C08C91D095D8231B
:100B500002C0EC91DE2BDC939FBFDF91CF911F9100
:100B60000895CF93DF9390E0FC01E853FF4F249169
:100B7000FC01EC54FF4F8491882361F190E0880FD1
:100B8000991FFC01E056FF4FC591D491FC01E65539
:100B9000FF4FA591B491611109C09FB7F894888166
:100BA000209582238883EC912E230BC0623061F460
:100BB0009FB7F8948881322F309583238883EC91F6
:100BC0002E2B2C939FBF06C08FB7F894E8812E2B55
:100BD00028838FBFDF91CF9108951F93CF93DF9329
:100BE000182FEB0161E00E94B105209711F460E03D
:100BF00004C0CF3FD10539F461E0812FDF91CF915F
:100C00001F910C948205E12FF0E0E452FF4FE49134
:100C1000E330F9F048F4E130B9F0E230A1F584B501
:100C2000806284BDC8BD34C0E730E9F0E83019F116
:100C3000E43049F580918000806280938000D093F9
:100C40008B00C0938A0024C084B5806884BDC7BD72
:100C50001FC080918000806880938000D0938900BD
:100C6000C093880015C08091B00080688093B00068
:100C7000C093B3000DC08091B00080628093B0003B
:100C8000C093B40005C0C038D1050CF0B5CFAFCFCC
:100C9000DF91CF911F9108958E3008F08E508770AC
:100CA000806480937C0080917A00806480937A00D5
:100CB00080917A0086FDFCCF8091780020917900A8
:100CC00090E0922B08953FB7F8948091230490917F
:100CD0002404A0912504B091260426B5A89B05C044
:100CE0002F3F19F00196A11DB11D3FBFBA2FA92FAB
:100CF000982F8827820F911DA11DB11DBC01CD0128
:100D000042E0660F771F881F991F4A95D1F7089513
:100D10001F920F920FB60F9211242F933F938F9330
:100D20009F93AF93BF938091810390918203A09191
:100D30008303B09184033091220423E0230F2D37E5
:100D400020F40196A11DB11D05C026E8230F0296CF
:100D5000A11DB11D209322048093810390938203EF
:100D6000A0938303B093840380912304909124047F
:100D7000A0912504B09126040196A11DB11D809378
:100D8000230490932404A0932504B0932604BF91D8
:100D9000AF919F918F913F912F910F900FBE0F9028
:100DA0001F901895CF93DF93CDB7DEB767970FB637
:100DB000F894DEBF0FBECDBF789484B5826084BD49
:100DC00084B5816084BD85B5826085BD85B581604F
:100DD00085BD80916E00816080936E0010928100CD
:100DE0008091810082608093810080918100816088
:100DF0008093810080918000816080938000809149
:100E0000B10084608093B1008091B00081608093D4
:100E1000B00080917A00846080937A0080917A009B
:100E2000826080937A0080917A00816080937A005A
:100E300080917A00806880937A001092C10087E3E5
:100E4000E7EEF2E0DF011D928A95E9F78BE0ECED29
:100E5000F2E0DF011D928A95E9F788E0E4EDF2E027
:100E6000DF011D928A95E9F786E0E0ECF2E0DF0110
:100E70001D928A95E9F74BE050E060E070E084EB6A
:100E800092E00E941F128091BA028F3FF1F492E02B
:100E90009093BA028AE08093B4028093B502909353
:100EA000B80296E99093B7028093B60281E18093ED
:100EB000B90280E797E19093BC028093BB0288EE71
:100EC00093E09093BE028093BD024BE050E060E05F
:100ED00070E084EB92E00E942F1261E08AE00E94B1
:100EE000B10561E087E00E94B10561E085E00E9404
:100EF000B10561E086E00E94B10561E083E00E94F7
:100F0000B10560E080E10E94B10584E0809381003A
:100F10008CE08093B80061E08AE00E94820560E086
:100F200087E00E94820560E085E00E94820560E023
:100F300086E00E94820560E083E00E9482051092B4
:100F4000A4021092A3021092A6021092A50210927F
:100F5000A7021092A8021092A9021092AA0210925F
:100F6000AB021092AC021092AD021092AE0210923F
:100F7000AF021092B0021092B1021092B20210921F
:100F8000A20280E091E1A0E0B0E08093860290931D
:100F90008702A0938802B093890287E090E0A0E0E6
:100FA000B0E080938A0290938B02A0938C02B0935E
:100FB0008D0210928E0210928F0210929002109267
:100FC0009102109292028FEF8093930210929402FA
:100FD0001092950210929602109297021092980227
:100FE0001092990210929A0210929B0210929C0207
:100FF00010929D0210929E0210929F021092A002E7
:101000001092A102EFB6E982F8948091B3028111A7
:1010100027C0EEEBF0E08491E2EDF0E09491E82F50
:10102000F0E0EE0FFF1FE056FF4FA591B491EC9159
:10103000E92321F461E08AE00E94820561E08AE010
:101040000E94B1058CB580618CBD8CB580648CBD6F
:1010500061E08DE00E94B10561E08BE00E94B10586
:101060008091B3028F5F8093B302F980FFBE8CB58D
:101070008C7F81608CBD8DB581608DBD8CB58F7D81
:101080008CBD8CB5837F84608CBD10922F02109232
:101090002E0210927802109277021092560281E08E
:1010A000809355021092300261E082E10E94820535
:1010B00061E083E10E9482058091B9008E7F809378
:1010C000B9008091B9008D7F8093B90088E4809346
:1010D000B80085E48093BC0081EE91E090932D02EE
:1010E00080932C0282EE91E090932B0280932A024F
:1010F000E0919503F091960382E08083E091910363
:10110000F09192031082E0919303F091940380E1B7
:10111000808310929D03E0919903F0919A0386E0F9
:101120008083E0919703F0919803808180618083B0
:10113000E0919703F0919803808188608083E0912B
:101140009703F0919803808180688083E0919703F2
:10115000F091980380818F7D80830E9463064B010C
:101160005C01BAEFCB2ED12CE12CF12C0E9463064E
:10117000DC01CB0188199909AA09BB09883E934073
:10118000A105B10598F301E0C01AD108E108F10802
:1011900018EE810E13E0911EA11CB11CC114D104E4
:1011A000E104F10419F70FB6F894A8958091600056
:1011B000886180936000109260000FBEA8959CE04B
:1011C00088E10FB6F894A895809360000FBE9093C5
:1011D0006000A8952FB7F8948091810390918203C5
:1011E000A0918303B09184032FBF8093EA02909370
:1011F000EB02A093EC02B093ED024091EE0250910D
:10120000EF026091F0027091F102841B950BA60B26
:10121000B70B0297A105B10510F40C94BB118EE039
:101220000E944C069093E1028093E0028FE00E94BE
:101230004C069093E3028093E20285E10E944C0603
:101240009093DD028093DC0284E10E944C0690932F
:10125000DF028093DE02ECEEF0E08491E8EDF0E056
:10126000E490E982E4ECF0E0F490FD82FF2089F064
:1012700081110E9459050D81E02FF0E0EE0FFF1F54
:10128000E458FF4FA591B491EC9119811E2381E0A0
:1012900009F480E08093E402A091E202B091E302BD
:1012A00028E833E10E94B7122FEF33E040E050E02E
:1012B0000E945C123093100320930F0379ECE72E09
:1012C00074E0F72EE21AF30AF0920B03E0920A039D
:1012D000A091E002B091E10224EB3FE50E94B71239
:1012E0002FEF33E040E050E00E945C122E0D3F1DD6
:1012F00030930D0320930C03245039422536394195
:1013000078F080910E038F5F833068F010920E03A7
:101310008091E702813051F181E08093E70205C0BE
:1013200010920E0302C080930E038091E702825058
:101330008230E0F48091EA029091EB02A091EC02FD
:10134000B091ED02409106035091070360910803AC
:1013500070910903841B950BA60BB70B883893413A
:10136000A105B10518F081E08093E702E091E70262
:101370008E2F90E08A30910508F0D4C6FC01EC5C19
:10138000FF4F0C94B11281E08093E70284E690E075
:1013900090931D0380931C038EE997E09093D702EE
:1013A0008093D60289E78093D5021092D4021092DE
:1013B000DB021092E9021092E802109218031092D8
:1013C000170310921A03109219031092140310922B
:1013D0001303109215031092160310921B038091B1
:1013E0000C0390910D03895F9A428B37954150F41D
:1013F0008091D3028F5F8093D3028A3028F082E0FD
:101400008093E7021092D3028091EA029091EB025E
:10141000A091EC02B091ED02809306039093070334
:10142000A0930803B093090380C682E08093E7028B
:1014300080E098E70E94F7039093140380931303CE
:1014400098728F3F9842D9F48091D2028F5F809337
:10145000D2028A3008F469C683E08093E702809163
:10146000EA029091EB02A091EC02B091ED02809320
:10147000060390930703A0930803B0930903109207
:10148000D20253C683E08093E70280911503813036
:10149000C9F08DE996E50E94F70381E0809315037A
:1014A0001092D1028091EA029091EB02A091EC029D
:1014B000B091ED028093F6029093F702A093F802A8
:1014C000B093F9028091EA029091EB02A091EC02B4
:1014D000B091ED024091F6025091F7026091F8024E
:1014E0007091F902841B950BA60BB70B86399105F9
:1014F000A105B10508F419C62091DC023091DD0286
:10150000C90187599109893F910548F58091DE020B
:101510009091DF02AC014759510945395105F8F462
:101520004091170350911803240F351F309318036F
:10153000209317032091190330911A03820F931FF0
:1015400090931A03809319039091DA0281E089271E
:101550008093DA028091D1028F5F8093D1028091D3
:10156000D1028A3008F482C5809117039091180344
:101570002AE030E0B9010E949D1270931803609335
:1015800017038091190390911A03B9010E949D12CB
:1015900070931A036093190381E08093DA0284E068
:1015A0008093E7028AE192E00E941404809117037D
:1015B000909118030E9467048EE192E00E94140447
:1015C0008091190390911A030E9467048091EA02A6
:1015D0009091EB02A091EC02B091ED028093060392
:1015E00090930703A0930803B09309031092D102CC
:1015F0003DC584E08093E702809115038230B9F005
:1016000088E896E50E94F70382E0809315038091B5
:10161000EA029091EB02A091EC02B091ED0280936E
:10162000CD029093CE02A093CF02B093D00240910E
:10163000EA025091EB026091EC027091ED02809110
:10164000CD029091CE02A091CF02B091D0027A014A
:101650008B01E81AF90A0A0B1B0BD801C7018A3F54
:101660009105A105B10570F09091DB0281E0892719
:101670008093DB024093CD025093CE026093CF0261
:101680007093D0028091E40281114FC585E0809370
:10169000E7021092DB0249C585E08093E702909152
:1016A0001B03C090EA02D090EB02E090EC02F090B5
:1016B000ED02953091F080931B03C092C902D09245
:1016C000CA02E092CB02F092CC02C092F202D09217
:1016D000F302E092F402F092F50220910C033091B3
:1016E0000D03032E000C440B550B64E276ED85E0F0
:1016F00090E00E945C12233218F42093D40203C0BD
:1017000082E28093D4028091F2029091F302A09140
:10171000F402B091F50297018601081B190B2A0B00
:101720003B0BD901C80180379741A105B10558F09D
:1017300086E08093E702C0920603D0920703E0920E
:101740000803F09209038091C9029091CA02A09106
:10175000CB02B091CC02A7019601281B390B4A0B92
:101760005B0B243631054105510508F4DEC4909128
:10177000DB0281E089278093DB02C092C902D0920C
:10178000CA02E092CB02F092CC02CFC486E08093F2
:10179000E70290911B03C090EA02D090EB02E09028
:1017A000EC02F090ED02963009F444C080931B03E4
:1017B000C092F202D092F302E092F402F092F502AB
:1017C000C092FA02D092FB02E092FC02F092FD027B
:1017D00000910C0310910D031A8309834801110F26
:1017E000AA08BB0860EC70E28FE190E0A5019401CB
:1017F0000E945C12122F60E77EE881E090E0A50174
:1018000094010E945C122093C80229813A81283CED
:10181000324324F48FEF8093C7020AC068E375E96E
:1018200082E390E0A50194010E945C122093C7021C
:101830001093D4028091F2029091F302A091F402ED
:10184000B091F50297018601081B190B2A0B3B0B7F
:10185000D901C801883E9340A105B105A8F1909136
:10186000DB0281E089278093DB022091D4029091F2
:10187000C702291758F46091DE027091DF0240918F
:10188000190350911A034617570764F088E08093B4
:10189000E702C0920603D0920703E0920803F09299
:1018A00009030AC08091C802820F981718F080932C
:1018B000D40202C09093D402C092F202D092F302FA
:1018C000E092F402F092F5028091FA029091FB020C
:1018D000A091FC02B091FD02C81AD90AEA0AFB0ADB
:1018E00028E9C2162AE3D206E104F10408F01AC47A
:1018F0001CC488E08093E70280911B03873019F0B5
:1019000087E080931B0380911503823039F088E8CB
:1019100096E50E94F70382E0809315038091EA0226
:101920009091EB02A091EC02B091ED0289879A8729
:10193000AB87BC878091F2029091F302A091F402F0
:10194000B091F502E984FA840B851C85E81AF90A3E
:101950000A0B1B0BD801C7010A97A105B10508F4B2
:10196000D9C180911B03873009F0C4C12090DE02E9
:101970003090DF02A101032C000C660B770B8091E5
:10198000190390911A03092E000CAA0BBB0B2A0114
:101990003B01481A590A6A0A7B0A20918602309153
:1019A0008702409188025091890221153105410535
:1019B000510549F0C301B2010E948D1269837A83F7
:1019C0008B839C8304C019821A821B821C82009123
:1019D0008A0210918B0220918C0230918D020115A8
:1019E00011052105310509F482C058016901E12C76
:1019F000F12C00E010E09201A301D301C201BB0F62
:101A0000880B982FDC018D839E83AF83B8876D810F
:101A1000762F862F962F0E94BE12A090A702B0901C
:101A2000A802C090A902D090AA02E090AB02F09068
:101A3000AC020091AD021091AE020E943513790103
:101A40008A012F3FEFEF3E074E07EFE75E07610584
:101A5000710581059105A1F09CF08FEF8093A7029D
:101A60008093A8028093A9028FE78093AA02109224
:101A7000AB021092AC021092AD021092AE022EC0D8
:101A8000211531054105E0E85E07EFEF6E077E079F
:101A90008E079E078CF02093A702F092A802409335
:101AA000A9021093AA026093AB027093AC028093D8
:101AB000AD029093AE0212C01092A7021092A8023B
:101AC0001092A90280E88093AA028FEF8093AB0264
:101AD0008093AC028093AD028093AE02E090A702A7
:101AE000F090A8020091A9021091AA0203C0E12C73
:101AF000F12C870160918E0270918F02809190028B
:101B000090919102611571058105910509F449C013
:101B10008090AF029090B002A090B102B090B2025B
:101B2000A3019201281939094A095B0949015A019F
:101B30004091A3025091A402D101A41BB50B9D01B9
:101B4000BB0F440B550B3092A4022092A30240928B
:101B5000AF025092B0026092B1027092B202821A49
:101B6000930AA40AB50A8114B0E89B06BFEFAB063E
:101B7000BB0634F4812C20E8922EAA24AA94BA2C15
:101B8000A50194018114E0E89E06A104B10424F0AB
:101B90002FEF3FE740E050E00E948D122B013C0107
:101BA00003C0412C512C320189809A80AB80BC80CB
:101BB000BB0C8808982C5401A8019701550F220BE3
:101BC000322FA9012D833E834F83588729813A8183
:101BD0004B815C81682D782D882D982D57016801E7
:101BE000ED80FE2C0E2D1E2D0E94351383017201F7
:101BF000110FEE08FE2C8701E982FA820B831C8309
:101C000052016301E980FE2C0E2D1E2D0E9435131A
:101C10002A013B0189839D838090920290909302D8
:101C2000A0919402AF8BB0919502BD8BB0919602BA
:101C3000A0919702F0919802E09199025401CF8807
:101C4000DD88EB2EFA2E0F2F1E2F0E943E1309F077
:101C50008CF5E0919A02ED87F0919B02FE87A091AE
:101C60009C02AF87B0919D02B88BE0919E02E98BF8
:101C7000F0919F02FA8BA091A002AB8BB091A102D0
:101C8000BC8B49014F8B5D8AB62FA72DF82FE92F0A
:101C9000AD84BE84CF84D888E988FA880B891C89F2
:101CA0000E943E133CF44501CF8ADD8ABE2DAF2D44
:101CB000F02FE12F94014F895D896B2F7A2F8F2FA1
:101CC0009E2F08E00E941713E22FF32F282D207873
:101CD00030E040E050E060E070E080E090E0A0E0C4
:101CE0000E94471309F03196E093D40281E080937B
:101CF000DB0204C01092D4021092DB02E984FA8461
:101D00000B851C85E092F202F092F3020093F4023C
:101D10001093F5028091F6029091F702A091F802DB
:101D2000B091F90209851A852B853C85081B190B92
:101D30002A0B3B0B083011052105310508F4F5C1CC
:101D400080E098E70E94F7039093120380931103B9
:101D500098728F3F984289F0809116038F5F80932D
:101D60001603833090F084E090E090931403809306
:101D7000130389E08093E70206C082E090E090932D
:101D8000140380931303109216038091E7028930A5
:101D900009F45CC16091DC027091DD02E0901703F0
:101DA000F0901803FA82E9826E157F0509F40DC1DF
:101DB000072E000C880B990B0E9483142AE038E24E
:101DC00040EA5BE30E9438156B017C0109811A81AE
:101DD000B801110F880B990B0E9483142AE038E296
:101DE00040EA5BE30E9438159B01AC01C701B601D4
:101DF0000E94671320911503223039F0C12CD12C99
:101E0000E8E8EE2EE1E4FE2E05C0C12CD12CE12C39
:101E100051E4F52E20E030E04AE754E40E94381502
:101E20004B015C012AE939E947E752E4C701B601F1
:101E30000E9438159B01AC01C501B4010E94D91361
:101E400020E030E04AE754E40E9438150E944B1429
:101E50008B017093C1026093C002613328EF720757
:101E60000CF4A7C06A3C38E073070CF088C240E06D
:101E7000242E41E0342E40E351E05A834983CB01C4
:101E8000770FAA0BBB0B8D839E83AF83B887A98185
:101E9000BA81ED90FD90BA83A983FA86E9860E1582
:101EA0001F0551F4D1016D917C91072E000C880B18
:101EB000990B0E94831464C0E984FA840E151F05EF
:101EC0000CF461C0A981BA816D917C916017710792
:101ED0000CF459C0072E000C880B990B0E94831438
:101EE0004B015C01F10162817381072E000C880BAC
:101EF000990B0E9483142B013C01D1016D917C91BF
:101F0000072E000C880B990B0E9483149B01AC01D7
:101F1000C301B2010E9467136B017C01E985FA8558
:101F2000BF01FF0F880B990B0E9483149B01AC012A
:101F3000C501B4010E9467139B01AC01C701B60142
:101F40000E94D9136B017C016D817E818F81988500
:101F50000E948314A70196010E943815A3019201E3
:101F60000E9468132B013C01A7019601C501B40131
:101F70000E9438159B01AC01C301B2010E94671396
:101F80006B017C0103C0C12CD12C7601F2E02F0E35
:101F9000311C2EE2221621E0320689F020E030E0EA
:101FA000A901C701B6010E94D413882309F46FCF99
:101FB00006C0C12CD12C92E8E92E92E4F92EC7017B
:101FC000B6010E944B14DB0102C0A4E6B0E0B0935E
:101FD0001D03A0931C03A434B10534F0A938B10546
:101FE0002CF0A8E8B0E002C0A4E4B0E02AEF36E1AB
:101FF0000E94B71224E630E040E050E00E945C12FC
:1020000069017A01AFEFB0E00E94511264557E4938
:102010008D40910928E833E140E050E00E945C12D5
:102020002093D502AFEFBFE0A70196010E945112A5
:102030006455724B8A4D910928E833E140E050E045
:102040000E945C123093D7022093D6029091E40252
:10205000913051F48091C6028F5F8093C602833025
:1020600028F09093E70202C01092C6028091EA0223
:102070009091EB02A091EC02B091ED028093F602F8
:102080009093F702A093F802B093F9024EC084E651
:1020900090E090931D0380931C038EE997E090934A
:1020A000D7028093D60289E78093D5021092D4029A
:1020B0004091EA025091EB026091EC027091ED02C6
:1020C0008091020390910303A0910403B091050352
:1020D0007A018B01E81AF90A0A0B1B0BD801C70118
:1020E000843F9140A105B105C8F080911303909100
:1020F0001403049759F49091DA0281E098279093A1
:10210000DA029091DB0289278093DB02409302037D
:102110005093030360930403709305038091E402DA
:10212000813019F481E08093E7026091D40270E07D
:1021300086E00E94ED056091D50270E083E00E9488
:10214000ED056091DA0287E00E9482056091DB0272
:1021500085E00E948205E090D602F090D70281E0EF
:102160008093790280E68093BF02109278021092E9
:10217000770260E48AE792E00E943C02B70124E023
:10218000769567952A95E1F78AE792E00E943C02EE
:10219000B70134E0660F771F3A95E1F78AE792E0DE
:1021A0000E943C0290917702913208F044C08091E5
:1021B00056028111FCCF82E08093560281E0809329
:1021C00055028FEF80935402109253029093520263
:1021D000A7E5B2E0E2E3F2E080E0981721F02D916C
:1021E00021938F5FFACF1092310280913102806C7F
:1021F0008093310280913002813061F4109230027C
:10220000809131028093BB008091BC0083FDF8CFA8
:1022100085EC01C085EE8093BC008091560282302F
:10222000E1F3809154028F3F31F08091540280326B
:1022300011F080915402109278021092770210925D
:1022400079028091EA029091EB02A091EC02B091A8
:10225000ED024091FE025091FF02609100037091E7
:102260000103841B950BA60BB70B86399105A105BD
:10227000B10508F470C08091E702813029F4909193
:10228000DA0289278093DA028AE990E00E949904B1
:102290008091E7020FE0809FC0011124805A9E4F79
:1022A0000E94140482E292E00E94140482E990E009
:1022B0000E94990460910C0370910D03072E000C8D
:1022C000880B990B0E9483142FE632E143E85AE30E
:1022D0000E9438150E94B404809113039091140356
:1022E00002970297B8F48AE890E00E9499046091FE
:1022F0001C0370911D03072E000C880B990B0E9484
:1023000083142AE037ED43E25CE30E9438150E9413
:10231000B40411C086E890E00E9499046091110312
:102320007091120380E090E040E10E94260482E276
:1023300092E00E9414048091EA029091EB02A09135
:10234000EC02B091ED028093FE029093FF02A09305
:102350000003B09301038091EA029091EB02A091F7
:10236000EC02B091ED028093EE029093EF02A09305
:10237000F002B093F1020E94A5010C94E908C12C6F
:1023800080ECD82E8CE7E82E84E4F82E18CEE5E811
:10239000F3E01382128288EE93E0A0E0B0E0848341
:1023A0009583A683B7838CE092E09183808385EC4C
:1023B00090E09587848784EC90E09787868780EC0F
:1023C00090E0918B808B81EC90E0938B828B82EC00
:1023D00090E0958B848B86EC90E0978B868B118EAA
:1023E000128E138E148E0895EAE7F2E013821282A1
:1023F00088EE93E0A0E0B0E084839583A683B78362
:102400008AEF91E0918380830895E6E8F2E0168EEA
:10241000158E10A2178E11A212A213A214A215A239
:1024200016A217A210A611A612A613A614A6148E01
:1024300008950E94C7110E94F4110C940512DC014A
:10244000CB01FC01F999FECF06C0F2BDE1BDF89ABF
:10245000319600B40D9241505040B8F70895DC0118
:10246000A40FB51F4150504048F0CB01840F951F79
:102470002E910E94401241505040D0F70895262FCF
:10248000F999FECF92BD81BDF89A019700B402166A
:1024900039F01FBA20BD0FB6F894FA9AF99A0FBE18
:1024A00008950E947E12A59F900DB49F900DA49F49
:1024B000800D911D11240895A1E21A2EAA1BBB1BA9
:1024C000FD010DC0AA1FBB1FEE1FFF1FA217B30700
:1024D000E407F50720F0A21BB30BE40BF50B661F16
:1024E000771F881F991F1A9469F7609570958095DA
:1024F00090959B01AC01BD01CF010895A29FB00151
:10250000B39FC001A39F700D811D1124911DB29F27
:10251000700D811D1124911D0895DB018F939F93F0
:102520000E945112BF91AF91A29F800D911DA39F58
:10253000900DB29F900D1124089597FB072E16F46D
:10254000009407D077FD09D00E94531307FC05D0F3
:102550003EF4909581959F4F0895709561957F4FBA
:102560000895EE0FFF1F0590F491E02D09940E944D
:102570007E12B7FF0895821B930B0895DF93CF93CC
:102580001F930F939A9DF02D219FF00D8B9DF00DC1
:102590008A9DE02DF10D039FF00D029FE00DF11DCE
:1025A0004E9DE00DF11D5E9DF00D4F9DF00D7F9352
:1025B0006F93BF92AF925F934F93D5010E947E12AB
:1025C0008B01AC01D7010E947E12EB01E80FF91FCD
:1025D000D6010E940E132F913F91D6010E947E12C8
:1025E000C60FD71FE81FF91FAF91BF910E940E13AE
:1025F0002F913F910E947E12C60FD71FE81FF91F2F
:10260000D6010E947E12E60FF71F9801BE01CF018E
:1026100011240F911F91CF91DF9108950E947E1296
:10262000460F571FC81FD91F08F43196089597FB0E
:1026300010F8169400080F93083098F00850232FD4
:10264000342F452F562F672F782F892F902DF4CFB9
:1026500005949795879577956795579547953795FD
:1026600027950A95AAF70F9108952A0D3B1D4C1D39
:102670005D1D6E1D7F1D801F911F08952A153B054E
:102680004C055D056E057F058007910708950024C0
:10269000A7FD00942A173005400550056005700518
:1026A000800590050895AA1BBB1B51E107C0AA1F16
:1026B000BB1FA617B70710F0A61BB70B881F991FE3
:1026C0005A95A9F780959095BC01CD010895505871
:1026D000BB27AA270E947F130C94F9140E94EB14C5
:1026E00038F00E94F21420F039F49F3F19F426F4D8
:1026F0000C94E8140EF4E095E7FB0C94E214E92F37
:102700000E940A1558F3BA176207730784079507E2
:1027100020F079F4A6F50C942C150EF4E0950B2E10
:10272000BA2FA02D0B01B90190010C01CA01A00123
:102730001124FF27591B99F0593F50F4503E68F17E
:102740001A16F040A22F232F342F4427585FF3CFBF
:10275000469537952795A795F0405395C9F77EF490
:102760001F16BA0B620B730B840BBAF09150A1F0D9
:10277000FF0FBB1F661F771F881FC2F70EC0BA0F5F
:10278000621F731F841F48F4879577956795B795E7
:10279000F7959E3F08F0B0CF9395880F08F09927E2
:1027A000EE0F9795879508950E94BE1408F481E076
:1027B00008950E94ED130C94F9140E94F21458F03D
:1027C0000E94EB1440F029F45F3F29F00C94E214CE
:1027D00051110C942D150C94E8140E940A1568F3FD
:1027E0009923B1F3552391F3951B550BBB27AA27CA
:1027F00062177307840738F09F5F5F4F220F331F04
:10280000441FAA1FA9F335D00E2E3AF0E0E832D0CB
:1028100091505040E695001CCAF72BD0FE2F29D0CE
:10282000660F771F881FBB1F261737074807AB07A0
:10283000B0E809F0BB0B802DBF01FF2793585F4F15
:102840003AF09E3F510578F00C94E2140C942D154B
:102850005F3FE4F3983ED4F3869577956795B795F7
:10286000F7959F5FC9F7880F911D9695879597F902
:102870000895E1E0660F771F881FBB1F621773077B
:102880008407BA0720F0621B730B840BBA0BEE1F90
:1028900088F7E09508950E9452146894B1110C9441
:1028A0002D1508950E94121588F09F5798F0B92FA2
:1028B0009927B751B0F0E1F0660F771F881F991F75
:1028C0001AF0BA95C9F714C0B13091F00E942C15D6
:1028D000B1E008950C942C15672F782F8827B85FE6
:1028E00039F0B93FCCF3869577956795B395D9F7CD
:1028F0003EF490958095709561957F4F8F4F9F4FD7
:102900000895E89409C097FB3EF4909580957095E2
:1029100061957F4F8F4F9F4F9923A9F0F92F96E92B
:10292000BB279395F695879577956795B795F111A0
:10293000F8CFFAF4BB0F11F460FF1BC06F5F7F4F3D
:102940008F4F9F4F16C0882311F096E911C077234F
:1029500021F09EE8872F762F05C0662371F096E858
:10296000862F70E060E02AF09A95660F771F881F27
:10297000DAF7880F9695879597F90895990F0008CB
:10298000550FAA0BE0E8FEEF16161706E807F90741
:10299000C0F012161306E407F50798F0621B730BDC
:1029A000840B950B39F40A2661F0232B242B252B5D
:1029B00021F408950A2609F4A140A6958FEF811D00
:1029C000811D089597F99F6780E870E060E00895A1
:1029D0009FEF80EC089500240A9416161706180637
:1029E0000906089500240A94121613061406050613
:1029F0000895092E0394000C11F4882352F0BB0FA4
:102A000040F4BF2B11F460FF04C06F5F7F4F8F4F06
:102A10009F4F089557FD9058440F551F59F05F3F41
:102A200071F04795880F97FB991F61F09F3F79F0F0
:102A300087950895121613061406551FF2CF469572
:102A4000F1DF08C0161617061806991FF1CF8695F4
:102A50007105610508940895E894BB2766277727D8
:102A6000CB0197F908950E94BE1408F48FEF0895E2
:102A70000E944B150C94F9140E94EB1438F00E943C
:102A8000F21420F0952311F00C94E2140C94E81445
:102A900011240C942D150E940A1570F3959FC1F313
:102AA000950F50E0551F629FF001729FBB27F00DFC
:102AB000B11D639FAA27F00DB11DAA1F649F662751
:102AC000B00DA11D661F829F2227B00DA11D621FA0
:102AD000739FB00DA11D621F839FA00D611D221F5A
:102AE000749F3327A00D611D231F849F600D211D3E
:102AF000822F762F6A2F11249F5750409AF0F1F0C1
:102B000088234AF0EE0FFF1FBB1F661F771F881F29
:102B100091505040A9F79E3F510580F00C94E2146B
:102B20000C942D155F3FE4F3983ED4F3869577958A
:102B30006795B795F795E7959F5FC1F7FE2B880FCF
:102B4000911D9695879597F9089581E090E0F89406
:082B50000C94AA15F894FFCFC4
:102B5800410046004B005000520055005A005F00EB
:102B6800610063006400650069006E007100750013
:102B78008E00AA00C700F30055011B02EE02F30302
:102B880030F8BEF925FB61FCE0FC74FD6BFE49FFE3
:102B980096FFD8FF00000F006100C100FA0049014C
:102BA8009F02AA037E046905A406D0076608CA081E
:102BB800494E56414C4944000000000000000050B6
:102BC80052455345540000000000000000005354D3
:102BD8004152540000000000000000000043414C36
:102BE8004942524154494F4E0000000049444C4567
:102BF8000000000000000000000000434F4E444564
:102C08004E534154494F4E000000505245484541EB
:102C1800540000000000000000504944000000007B
:102C2800000000000000000052554E4E494E47007B
:102C3800000000000000004552524F520000000002
:102C4800000000000000000000003C020F026C02BF
:102C5800E3010702F301E401000000003601A300CC
:102C6800CD008301FE00DC00F00055413A005552CA
:0A2C78003A000D0A006F76660000B6
:00000001FF
