:100000000C946F000C9497000C9497000C9497003C
:100010000C9497000C9497000C9497000C94970004
:100020000C9497000C9497000C9497000C949700F4
:100030000C9497000C9497000C9497000C949700E4
:100040000C9448050C9497000C94B8050C949205F8
:100050000C9497000C9497000C9497000C949700C4
:100060000C94EA050C949700000000002300260081
:100070002900436A3A004C616D6264613A0053752D
:1000800070706C793A004D6F64653A0000000000B2
:10009000240027002A0000000000250028002B0073
:1000A000040404040404040402020202020203031E
:1000B0000303030301020408102040800102040826
:1000C00010200102040810200000000800020100B6
:1000D00000030407000000000000000009071124CD
:1000E0001FBECFEFD8E0DEBFCDBF12E0A0E0B1E091
:1000F000E8EAFCE202C005900D92AA32B107D9F7F6
:1001000024E0AAE2B2E001C01D92AD32B207E1F7ED
:1001100010E0CFE6D0E004C02197FE010E946013FA
:10012000CE36D107C9F70E9455070C9452160C948D
:100130000000833081F028F4813099F08230A9F0FA
:1001400008958730A9F08830C9F08430B1F48091E7
:1001500080008F7D03C0809180008F778093800026
:10016000089584B58F7784BD089584B58F7DFBCFC6
:100170008091B0008F778093B00008958091B00097
:100180008F7DF9CF1F93CF93DF93282F30E0F901B4
:10019000E853FF4F8491F901EC54FF4FD491F901DA
:1001A000E056FF4FC491CC23A9F0162F81110E9475
:1001B0009900EC2FF0E0EE0FFF1FEA56FF4FA591DC
:1001C000B4918FB7F894EC91111108C0D095DE234B
:1001D000DC938FBFDF91CF911F910895DE2BF8CF75
:1001E000CF93DF9390E0FC01EC54FF4F24918056B5
:1001F0009F4FFC0184918823D1F090E0880F991FD4
:10020000FC01E457FF4FA591B491FC01EA56FF4F62
:10021000C591D491623071F49FB7F8943C91822FCC
:10022000809583238C93E8812E2B28839FBFDF91B9
:10023000CF9108958FB7F894EC912E2B2C938FBF0C
:10024000F6CF1F93CF93DF93182FEB0161E00E944D
:10025000F000209739F460E0812FDF91CF911F915A
:100260000C94C200CF3FD10511F461E0F5CFE12F2E
:10027000F0E0E853FF4FE491E33031F140F4E13036
:10028000B1F0E230E1F0C038D1057CF7E4CFE730DF
:1002900029F1E83059F1E430B1F7809180008062B3
:1002A00080938000D0938B00C0938A0004C084B5F3
:1002B000806884BDC7BDDF91CF911F91089584B53B
:1002C000806284BDC8BDF7CF809180008068809334
:1002D0008000D0938900C0938800EDCF8091B0005A
:1002E00080688093B000C093B300E5CF8091B000E8
:1002F00080628093B000C093B400DDCF8E508064E4
:1003000080937C0080917A00806480937A00809151
:100310007A0086FDFCCF8091780090917900089555
:100320003FB7F8948091530390915403A0915503E3
:10033000B091560326B5A89B05C02F3F19F0019632
:10034000A11DB11D3FBFBA2FA92F982F8827BC012F
:10035000CD01620F711D811D911D42E0660F771F57
:10036000881F991F4A95D1F7089508950895AF926F
:10037000BF92CF92DF92EF92FF920F931F93CF9392
:10038000DF936C017B018B01040F151FEB015E01F4
:10039000AE18BF08C017D10759F06991D601ED9189
:1003A000FC910190F081E02DC6010995892B79F728
:1003B000C501DF91CF911F910F91FF90EF90DF90DA
:1003C000CF90BF90AF900895FC01538D448D252FA1
:1003D00030E0842F90E0821B930B541710F0CF96DF
:1003E000089501970895FC01918D828D981761F011
:1003F000A28DAE0FBF2FB11D5D968C91928D9F5F28
:100400009F73928F90E008958FEF9FEF0895FC0106
:10041000918D828D981731F0828DE80FF11D858DB9
:1004200090E008958FEF9FEF0895FC01918D228D4C
:10043000892F90E0805C9F4F821B91098F739927D1
:10044000089587E593E00E94150221E0892B09F4C5
:1004500020E0822F089580E090E0892B29F00E940F
:10046000210281110C9400000895FC01A48DA80FB5
:10047000B92FB11DA35ABF4F2C91848D90E00196E6
:100480008F739927848FA689B7892C93A089B18906
:100490008C91837080648C93938D848D981306C0A7
:1004A0000288F389E02D80818F7D80830895EF920B
:1004B000FF920F931F93CF93DF93EC0181E0888F1E
:1004C0009B8D8C8D98131AC0E889F989808185FFEE
:1004D00015C09FB7F894EE89FF896083E889F98990
:1004E00080818370806480839FBF81E090E0DF9192
:1004F000CF911F910F91FF90EF900895F62E0B8DE5
:1005000010E00F5F1F4F0F731127E02E8C8D8E119F
:100510000CC00FB607FCFACFE889F989808185FF06
:10052000F5CFCE010E943502F1CFEB8DEC0FFD2F00
:10053000F11DE35AFF4FF0829FB7F8940B8FEA89C1
:10054000FB8980818062CFCF0F931F93CF93DF937E
:100550008C01D0E0C0E0F801EC0FFD1F6491662330
:1005600041F087E593E00E945702892B11F0219614
:10057000F2CFCE01DF91CF911F910F910895CF93CC
:10058000DF93EC01888D8823B9F0AA89BB89E889BB
:10059000F9898C9185FD03C0808186FD0DC00FB661
:1005A00007FCF7CF8C9185FFF2CF808185FFEDCFDF
:1005B000CE010E943502E9CFDF91CF9108952091BD
:1005C0006B02260F3327331F21323105ECF42091C3
:1005D000C602FC0190E080E0243069F082E00895DA
:1005E000A0916B022191AC01455B5D4FA40FB52F2B
:1005F000B11D2C930196861798F380916B02680FBA
:1006000060936B0280E0089581E008951092C60225
:1006100081E08093C5021092A00261E082E10E9415
:10062000C20061E083E10E94C200E9EBF0E080815A
:100630008E7F808380818D7F808388E48093B80063
:1006400085E48093BC000895CF93DF9391E090936D
:100650004A028823B9F0C091B800D091BA008091C5
:10066000BC008A7B8093BC0060E082E10E94C200F3
:1006700060E083E10E94C2000E940603D093BA00AA
:10068000C093B800DF91CF9108950895E09194024E
:1006900080919302E81730F4F0E0E65DFD4F808131
:1006A00090E008958FEF9FEF0895909194028091CC
:1006B00093022FEF3FEF981748F4E92FF0E0E65D43
:1006C000FD4F208130E09F5F90939402C90108950F
:1006D0008091930290919402891B990B0895CF9277
:1006E000DF92EF92FF920F931F93CF93DF937C01E2
:1006F000CB018A012091EF02222389F0EB016B01EB
:10070000C40ED51ECC15DD0569F06991D701ED91B8
:10071000FC910190F081E02DC7010995F3CF642F82
:100720000E94DF02C801DF91CF911F910F91FF90CE
:10073000EF90DF90CF900895CF93DF931F92CDB7C6
:10074000DEB769832091EF022223F9F02091EC02B9
:10075000203258F021E030E0FC013383228390E026
:1007600080E00F90DF91CF9108958091ED02E82F06
:10077000F0E0E453FD4F998190838F5F8093ED0209
:100780008093EC0281E090E0ECCF61E0CE01019635
:100790000E94DF02F7CF90E080E00895CF93DF93CF
:1007A000EC0160E08AE00E94C200DEBD00000DB4F2
:1007B00007FEFDCFDEB5CEBD00000DB407FEFDCFB8
:1007C000CEB561E08AE00E94C200CE01DF91CF91F8
:1007D0000895FC0101900020E9F73197AF01481B13
:1007E000590BBC0187E593E00C94B7018F929F925F
:1007F000AF92BF920F931F93CF93DF93CDB7DEB726
:10080000A1970FB6F894DEBF0FBECDBF19A242303C
:1008100008F44AE08E010F5D1F4F842E912CB12CFD
:10082000A12CA50194010E940B13E62FB901CA0166
:10083000EA30F4F4E05DD801EE938D01232B242BF4
:10084000252B79F790E080E0109719F0CD010E94F8
:10085000E903A1960FB6F894DEBF0FBECDBFDF91BE
:10086000CF911F910F91BF90AF909F908F9008955F
:10087000E95CE1CFCF92DF92EF92FF92CF93DF93CB
:100880006C01990FEE08FF08F7FE1FC06DE287E5C7
:1008900093E00E945702EC0166277727CB016C1981
:1008A0007D098E099F094AE00E94F603C80FD91FEF
:1008B0008AE192E00E94E9038C0F9D1FDF91CF91A6
:1008C000FF90EF90DF90CF9008954AE0C701B60106
:1008D0000E94F603EC01ECCF4F925F926F927F92F1
:1008E0008F929F92AF92BF92CF92DF92EF92FF9240
:1008F0006B017C012FEF3FEF4FE75FE40E94E015B3
:100900001816C4F48DE192E00E94E9037C018AE1AB
:1009100092E00E94E9038E0D9F1DFF90EF90DF9003
:10092000CF90BF90AF909F908F907F906F905F908F
:100930004F9008952FEF3FEF4FE75FECC701B601EF
:100940000E94811487FDDECF20E030E0A901C701BD
:10095000B6010E948114B12CA12C87FF0AC06DE260
:1009600087E593E00E9457025C01F7FAF094F7F8EC
:10097000F0942BE037ED43EA5BE3C701B6010E9438
:1009800015142B013C010E94FF146B017C010E9495
:100990002E159B01AC01C301B2010E9414142B015E
:1009A0003C014AE0C701B6010E94F6037C01EA0C53
:1009B000FB1C6EE287E593E00E945702E80EF91EE9
:1009C00020E030E040E251E4C301B2010E94E515AD
:1009D0002B013C010E94FF144B01B12CA12C4AE0D9
:1009E000C501B4010E94F603E80EF91EC501B40169
:1009F0000E942E159B01AC01C301B2010E94141488
:100A000020E030E040E251E40E94E5150E94FF142E
:100A100090E080E04AE00E94F603E80EF91E77CFEE
:100A200085ED8093BC008091C8029091C902A0918D
:100A3000CA02B091CB020796A11DB11D23E0B69565
:100A4000A795979587952A95D1F72091BC0024FD0D
:100A500003C01092C60208954091C8025091C90285
:100A60006091CA027091CB02452B462B472B69F34C
:100A70000097A105B10541F025E32A95F1F70000A3
:100A80000197A109B109E1CF8091C7020C94240319
:100A90001F920F920FB60F9211242F933F938F93B3
:100AA0009F93AF93BF9380914F0390915003A09178
:100AB0005103B091520330914E0323E0230F2D37A1
:100AC00058F50196A11DB11D20934E0380934F034D
:100AD00090935003A0935103B0935203809153031A
:100AE00090915403A0915503B09156030196A11D16
:100AF000B11D8093530390935403A0935503B09377
:100B00005603BF91AF919F918F913F912F910F907D
:100B10000FBE0F901F90189526E8230F0296A11D77
:100B2000B11DD2CF1F920F920FB60F9211242F93A7
:100B30003F934F935F936F937F938F939F93AF9365
:100B4000BF93EF93FF9387E593E00E943502FF91F7
:100B5000EF91BF91AF919F918F917F916F915F9135
:100B60004F913F912F910F900FBE0F901F901895AE
:100B70001F920F920FB60F9211242F938F939F9372
:100B8000EF93FF93E0916703F09168038081E09118
:100B90006D03F0916E0382FD1BC090818091700304
:100BA0008F5F8F7320917103821741F0E091700382
:100BB000F0E0E95AFC4F958F80937003FF91EF911D
:100BC0009F918F912F910F900FBE0F901F901895AE
:100BD0008081F4CF1F920F920FB60F9211242F93A2
:100BE0003F934F935F936F937F938F939F93AF93B5
:100BF000BF93EF93FF938091B900887F803609F40B
:100C00004AC0F0F5883209F4A7C018F5803109F41C
:100C10009BC0B8F4882309F4F9C0883009F494C063
:100C2000FF91EF91BF91AF919F918F917F916F91C4
:100C30005F914F913F912F910F900FBE0F901F909A
:100C40001895883109F488C0803251F78093C40226
:100C500014C0803409F49DC040F48033B9F3883364
:100C6000F9F68093C40285ECB0C0803509F485C0E4
:100C7000883509F496C0883499F60E941005D0CFC3
:100C8000883909F48CC038F5883729F050F4883653
:100C900011F0803729F683E08093C60210928D020E
:100CA00057C0883809F47BC0803919F0803809F0C2
:100CB000B7CF80918D02803208F071C0E0918D0233
:100CC00081E08E0F80938D028091BB00F0E0E359AC
:100CD000FD4F80833DC0803B39F0E0F4803A09F459
:100CE00079C0883A09F09CCF84E08093C6021092C4
:100CF0006C0210926B02E0919102F09192020995C0
:100D000080916B0281110FC081E080936B02109281
:100D10004B0209C0803C09F4A6CF883C09F4A3CF5C
:100D2000883B09F07DCFE0916C0281E08E0F8093CB
:100D30006C02F0E0E55BFD4F80818093BB009091F9
:100D40006C0280916B0229C08091A1028093BB004C
:100D500085EC8093BC0064CF9091C3028091C20265
:100D6000981758F5E091C30281E08E0F8093C3027B
:100D7000F0E0EE55FD4F8081E9CFE091C30281E0C4
:100D80008E0F8093C3028091BB00F0E0EE55FD4FC3
:100D900080839091C3028091C2029817C8F285E8BF
:100DA000D8CFE091C30281E08E0F8093C30280917F
:100DB000BB00F0E0EE55FD4F80838091C5028111AC
:100DC0005CCF81E08093A00284EA8093BC00109203
:100DD000C60226CF85EC8093BC001092C60280919B
:100DE0008D02803230F4E0918D02F0E0E359FD4F46
:100DF000108260918D0270E0E0918F02F09190027C
:100E00008DE692E0099510928D020ACF1092C402ED
:100E100034CFE7E5F3E01382128288EE93E0A0E09E
:100E2000B0E084839583A683B7832AEF31E03183D2
:100E3000208325EC30E03587248724EC30E03787A9
:100E4000268720EC30E0318B208B21EC30E0338B97
:100E5000228B22EC30E0358B248B26EC30E0378B74
:100E6000268B118E128E138E148EE4EFF3E0138214
:100E7000128284839583A683B7838CE092E091836A
:100E80008083E0E0F4E0168E158E10A2178E11A27A
:100E900012A213A214A215A216A217A210A611A69E
:100EA00012A613A614A6148E0895CF93DF93CDB780
:100EB000DEB72F970FB6F894DEBF0FBECDBF789484
:100EC00084B5826084BD84B5816084BD85B582604F
:100ED00085BD85B5816085BD80916E008160809300
:100EE0006E00109281008091810082608093810069
:100EF0008091810081608093810080918000816079
:100F0000809380008091B10084608093B1008091D3
:100F1000B00081608093B00080917A0084608093FB
:100F20007A0080917A00826080937A0080917A00C2
:100F3000816080937A0080917A00806880937A0043
:100F40001092C100E7E1F3E087E3DF011D928A958B
:100F5000E9F7ECE0F3E08BE0DF011D928A95E9F719
:100F6000E4E0F3E088E0DF011D928A95E9F7E0EF25
:100F7000F2E086E0DF011D928A95E9F74BE050E050
:100F800070E060E085E992E00E94CE1280919B02C1
:100F90008F3FF1F492E090939B028AE08093950258
:100FA000809396029093990296E990939802809389
:100FB000970281E180939A0280E797E190939D02E6
:100FC00080939C0288EE93E090939F0280939E0210
:100FD0004BE050E070E060E085E992E00E94DE12B4
:100FE00061E08AE00E94F00061E087E00E94F0008A
:100FF00061E085E00E94F00061E086E00E94F00080
:1010000061E083E00E94F00062E080E10E94F00075
:1010100084E0809381008CE08093B80061E08AE0F6
:101020000E94C20060E087E00E94C20060E085E0AC
:101030000E94C20060E086E00E94C20060E083E09F
:101040000E94C20010921E0410921D0410922004EF
:1010500010921F0410922104109222041092230473
:101060001092240410922504109226041092270452
:10107000109228041092290410922A0410922B0432
:1010800010922C0410921C0480E091E1A0E0B0E0EA
:101090008093000490930104A0930204B09303048E
:1010A00087E090E0A0E0B0E0809304049093050412
:1010B000A0930604B0930704109208041092090448
:1010C00010920A0410920B0410920C048FEF80937C
:1010D0000D0410920E0410920F041092100410923E
:1010E000110410921204109213041092140410921E
:1010F00015041092160410921704109218041092FE
:10110000190410921A0410921B04EFB6E982F894A5
:1011100080918E02811127C0EAEAF0E08491EEEB23
:10112000F0E09491E82FF0E0EE0FFF1FE457FF4F3F
:10113000A591B491EC91E92321F461E08AE00E9449
:10114000C20061E08AE00E94F0008CB580618CBD35
:101150008CB580648CBD61E08DE00E94F00061E0A0
:101160008BE00E94F00080918E028F5F80938E0250
:10117000F980FFBE8CB58C7F81608CBD8DB58160A0
:101180008DBD8CB58F7D8CBD8CB5837F84608CBD0F
:1011900010929402109293021092ED021092EC02BF
:1011A0000E94060385EB91E0909392028093910256
:1011B00086EB91E09093900280938F02E091670319
:1011C000F091680382E08083E0916303F09164030F
:1011D0001082E0916503F091660380E180831092B4
:1011E0006F03E0916B03F0916C0386E08083E091E4
:1011F0006903F0916A03808180618083E0916903D3
:10120000F0916A03808188608083E0916903F091A6
:101210006A03808180688083E0916903F0916A03AA
:1012200080818F7D80830E9490014B015C01BAEF29
:10123000CB2ED12CE12CF12C0E9490016819790958
:101240008A099B09683E734081059105A8F301E076
:10125000C01AD108E108F10818EE810E13E0911EC2
:10126000A11CB11CC114D104E104F10429F70FB68B
:10127000F894A89580916000886180936000109236
:1012800060000FBEA89588E19CE00FB6F894A89581
:10129000809360000FBE90936000A8952FB7F894DC
:1012A00080914F0390915003A0915103B09152034C
:1012B0002FBF80931A0390931B03A0931C03B0933A
:1012C0001D0340911E0350911F03609120037091F4
:1012D0002103841B950BA60BB70B0297A105B10543
:1012E00010F40C9474128EE00E947E01909311030E
:1012F000809310038FE00E947E01909313038093EC
:10130000120385E10E947E0190930D0380930C03EC
:1013100084E10E947E0190930F0380930E03E8ED19
:10132000F0E08491E4ECF0E0E490E982E0EBF0E0BE
:10133000F490FD82FF2089F081110E9499000D81B7
:10134000E02FF0E0EE0FFF1FE859FF4FA591B49199
:10135000EC9119811E2381E009F480E0809314034D
:10136000A0911203B091130328E833E10E946613A1
:101370002FEF33E040E050E00E940B133093400326
:1013800020933F0379ECE72E74E0F72EE21AF30A7C
:10139000F0923B03E0923A03A0911003B091110345
:1013A00024EB3FE50E9466132FEF33E040E050E06E
:1013B0000E940B132E0D3F1D30933D0320933C03E1
:1013C000245039422536394108F443C080913E0308
:1013D0008F5F833020F580933E0380911703825006
:1013E000823018F580911A0390911B03A0911C0381
:1013F000B0911D034091360350913703609138033B
:1014000070913903841B950BA60BB70B8838934159
:10141000A105B10550F081E08093170306C08091CB
:10142000170310923E038130B9F4E0911703E150A5
:10143000E93008F07BC3F0E0E05EF54F0C946013F8
:10144000300A360B630B2A0C7D0CFA0C960DB20D8C
:10145000741110923E03C1CF81E080931703BDCF7A
:1014600081E08093170384E690E090934D0380938E
:101470004C038EE997E0909307038093060389E776
:10148000809305031092040310920B03109219032A
:1014900010921803109248031092470310924A03C7
:1014A0001092490310924403109243031092450393
:1014B0001092460310924B0380913C0390913D03A0
:1014C000895F9A428B37954150F4809103038F5F77
:1014D000809303038A3028F082E0809317031092F0
:1014E000030380911A0390911B03A0911C03B091F8
:1014F0001D038093360390933703A0933803B09372
:1015000039036091040370E086E00E94210160913C
:10151000050370E083E00E94210160910A0387E0E7
:101520000E94C20060910B0385E00E94C200E0901F
:101530000603F090070381E08093EF0280E680933A
:10154000EE021092ED021092EC0260E484EF93E060
:101550000E949C03B70184E0769567958A95E1F730
:1015600084EF93E00E949C03B70194E0660F771F1D
:101570009A95E1F784EF93E00E949C03F090EC02CF
:10158000F9820F2D013208F021C70E9490016B01F2
:101590007C018091C6028111F4C682E08093C6026C
:1015A00081E08093C5028FEF8093C4021092C30242
:1015B00019811093C202ACECB2E0E2EAF2E080E002
:1015C000E980E812A1C71092A1028091A102806C6B
:1015D0008093A1028091A002813009F099C71092F6
:1015E000A0020E9490016B017C018091A102809376
:1015F000BB008091C8029091C902A091CA02B0912B
:10160000CB02892B8A2B8B2BA1F00E949001009199
:10161000C8021091C9022091CA023091CB026C1904
:101620007D098E099F09061717072807390708F44F
:10163000C9C68091BC0083FDD8CF85EC8093BC00E7
:101640000E9490016B017C018091C602823009F4F6
:1016500061C78091C4028F3F09F4B8C68091C4026B
:10166000803209F4B3C68091C402B0C682E0809390
:10167000170380E098E70E94CE0390934403809381
:10168000430398728F3F9842D9F4809102038F5F91
:10169000809302038A3008F434CF83E080931703E9
:1016A00080911A0390911B03A0911C03B0911D031C
:1016B0008093360390933703A0933803B093390394
:1016C000109202031ECF83E080931703809145039D
:1016D0008130C9F08DE996E50E94CE0381E08093C8
:1016E00045031092010380911A0390911B03A0916E
:1016F0001C03B0911D038093260390932703A093AE
:101700002803B093290380911A0390911B03A091A1
:101710001C03B0911D034091260350912703609153
:10172000280370912903841B950BA60BB70B8639F0
:101730009105A105B10508F4E4CE20910C03309188
:101740000D03C90187599109893F910548F56091B9
:101750000E0370910F03CB018759910985399105CB
:10176000F8F4809101034091470350914803420FE0
:10177000531F5093480340934703209149033091EE
:101780004A03260F371F30934A0320934903909151
:101790000A0321E0922790930A038F5F809301034D
:1017A000809101038A3008F444C0809147039091EE
:1017B00048032AE030E0B9010E944C1370934803BB
:1017C000609347038091490390914A03B9010E94B5
:1017D0004C1370934A036093490381E080930A039A
:1017E00084E08093170381E292E00E94E9038091F4
:1017F0004703909148030E943A0485E292E00E94D8
:10180000E9038091490390914A030E943A04809130
:101810001A0390911B03A0911C03B0911D038093A8
:10182000360390933703A0933803B0933903109293
:10183000010380911A0390911B03A0911C03B091A6
:101840001D038093260390932703A0932803B0934E
:10185000290357CE84E0809317038091450382309B
:10186000B9F088E896E50E94CE0382E080934503B4
:1018700080911A0390911B03A0911C03B0911D034A
:101880008093FD029093FE02A093FF02B0930003A9
:1018900040911A0350911B0360911C0370911D032A
:1018A0008091FD029091FE02A091FF02B091000391
:1018B0007A018B01E81AF90A0A0B1B0BD801C70140
:1018C0008A3F9105A105B10570F080910B0391E06D
:1018D000892780930B034093FD025093FE0260938F
:1018E000FF02709300038091140381110ACE85E0FA
:1018F0008093170310920B0304CE85E080931703A7
:10190000C0901A03D0901B03E0901C03F0901D03BD
:1019100090914B03953091F080934B03C092F90264
:10192000D092FA02E092FB02F092FC02C0922203F3
:10193000D0922303E0922403F092250320913C03EC
:1019400030913D03032E000C440B550B64E276ED01
:1019500085E090E00E940B13233208F047C02093EB
:1019600004038091220390912303A0912403B0915A
:10197000250397018601081B190B2A0B3B0BD90184
:10198000C80180379741A105B10558F086E08093E2
:101990001703C0923603D0923703E0923803F092D7
:1019A00039038091F9029091FA02A091FB02B09163
:1019B000FC02A7019601281B390B4A0B5B0BDA01CD
:1019C000C90184369105A105B10508F49ACD80912D
:1019D0000B0391E0892780930B03C092F902D09208
:1019E000FA02E092FB02F092FC028BCD82E280933D
:1019F0000403B7CF86E080931703C0901A03D090FA
:101A00001B03E0901C03F0901D0390914B03963054
:101A1000D1F180934B03C0922203D0922303E09232
:101A20002403F0922503C0922A03D0922B03E09264
:101A30002C03F0922D0300913C0310913D031A8377
:101A400009834801110FAA08BB0860EC70E28FE11E
:101A500090E0A50194010E940B13122F60E77EE82D
:101A600081E090E0A50194010E940B132093F802FD
:101A700029813A81283C32430CF05CC08FEF80937F
:101A8000F702109304038091220390912303A09105
:101A90002403B091250397018601081B190B2A0B1B
:101AA0003B0BD901C801883E9340A105B10550F117
:101AB00080910B0391E0892780930B03209104030D
:101AC0008091F702281758F460910E0370910F036C
:101AD0004091490350914A0346175707B4F188E0F3
:101AE00080931703C0923603D0923703E0923803F5
:101AF000F0923903C0922203D0922303E092240390
:101B0000F092250380912A0390912B03A0912C033E
:101B1000B0912D03C81AD90AEA0AFB0A28E9C216AD
:101B20002AE3D206E104F10408F4EBCC81E08093CF
:101B30001703E7CC68E375E982E390E0A50194011F
:101B40000E940B132093F7029CCF9091F802290F6B
:101B50003327331F90E02817390708F4C901809311
:101B60000403C8CF88E08093170380914B0387302C
:101B700019F087E080934B0380914503823039F060
:101B800088E896E50E94CE0382E080934503809129
:101B90001A0390911B03A0911C03B0911D03898728
:101BA0009A87AB87BC878091220390912303A091F1
:101BB0002403B0912503E984FA840B851C85E81A77
:101BC000F90A0A0B1B0BD801C7010A97A105B10539
:101BD00008F499C180914B03873009F066C22090C8
:101BE0000E0330900F032101032C000C66087708C8
:101BF0008091490390914A03092E000CAA0BBB0B5C
:101C0000481A590A6A0A7B0A20910004309101049B
:101C100040910204509103042115310541055105FD
:101C200009F407C2C301B2010E943C1369837A839D
:101C30008B839C8300910404109105042091060479
:101C400030910704011511052105310509F425C25C
:101C500058016901E12CF12C00E010E09201A30190
:101C6000D301C201BB0F880B982FDC018D839E83AB
:101C7000AF83B8876D81762F862F962F0E946D13C4
:101C8000A0902104B0902204C0902304D09024049A
:101C9000E0902504F0902604009127041091280478
:101CA0000E94E21379018A012F3FEFEF3E074E07B2
:101CB000EFE75E07610571058105910509F00CF4F8
:101CC000BDC18FEF8093210480932204809323046D
:101CD0008FE780932404109225041092260410921A
:101CE000270410922804E0902104F090220400912F
:101CF00023041091240460910804709109048091D8
:101D00000A0490910B04611571058105910509F490
:101D1000C8C18090290490902A04A0902B04B09010
:101D20002C04A3019201281939094A095B094901C8
:101D30005A0140911D0450911E04D101A41BB50B02
:101D40009D01BB0F440B550B30921E0420921D04C5
:101D50004092290450922A0460922B0470922C0421
:101D6000821A930AA40AB50A8114B0E89B06BFEF51
:101D7000AB06BB0634F4812CF0E89F2EAA24AA946B
:101D8000BA2CA50194012115E0E83E074105510553
:101D900024F02FEF3FE740E050E00E943C132B017E
:101DA0003C0189809A80AB80BC80BB0C8808982C51
:101DB0005401A8019701550F220B322FA9012D8341
:101DC0003E834F83588729813A814B815C81682DFE
:101DD000782D882D982D57016801ED80FE2C0E2D51
:101DE0001E2D0E94E21383017201110FEE08FE2CDA
:101DF0008701E982FA820B831C8352016301E98027
:101E0000FE2C0E2D1E2D0E94E21319012A013B010A
:101E100089839D83E0910C0480900D0490900E04C2
:101E2000A0910F04AF87B0911004BD87B091110449
:101E3000A0911204F0911304AE2EB82CC92CDF84AB
:101E4000ED84FB2E0A2F1F2F0E94EB1309F054F58F
:101E5000E09114048090150490901604F0911704FA
:101E6000FF87A0911804AD87B0911904A0911A04BE
:101E7000F0911B042E2F382D492D5F856D857B2F0A
:101E80008A2F9F2F51016201730109811D810E94D8
:101E9000EB1344F4E22D832C942C5F866D86B72DD2
:101EA000A02FF12F2E2F382D492D5F856D857B2F8B
:101EB0008A2F9F2F08E00E94C51329833A832E2F73
:101EC000207830E040E050E060E070E080E090E0BA
:101ED000A0E00E94F41329F0E981FA813196FA8397
:101EE000E983F981F093040381E080930B03E98493
:101EF000FA840B851C85E0922203F0922303009361
:101F00002403109325038091260390912703A09129
:101F10002803B091290309851A852B853C85081B68
:101F2000190B2A0B3B0BD901C8010897A105B10574
:101F300008F4E7CA80E098E70E94CE03909342033A
:101F40008093410398728F3F984209F4B3C0809107
:101F500046038F5F80934603833058F084E090E01F
:101F6000909344038093430389E080931703109276
:101F7000460380911703893009F44BC060910C032C
:101F800070910D03E0904703F0904803FA82E982D4
:101F90006E157F0509F095C084E690E090934D039F
:101FA00080934C03A4E6B0E0A938B10514F0A8E88A
:101FB000B0E02AEF36E10E94661324E630E040E00C
:101FC00050E00E940B1369017A01AFEFB0E00E946C
:101FD000001364557E498D40910928E833E140E0C3
:101FE00050E00E940B1320930503AFEFBFE0A70161
:101FF00096010E9400136455724B8A4D910928E89E
:1020000033E140E050E00E940B133093070320932C
:10201000060390911403913009F063C18091F60298
:102020008F5F8093F602833008F403CC90931703FC
:1020300000CC19821A821B821C82FCCD211531052D
:102040004105E0E85E07EFEF6E077E078E079E070B
:102050008CF020932104F0922204409323041093E7
:10206000240460932504709326048093270490939E
:10207000280439CE109221041092220410922304D5
:1020800080E8809324048FEF8093250480932604B6
:10209000809327048093280426CEE12CF12C87011D
:1020A0002ACE412C512C32017CCE10920403109286
:1020B0000B031DCF82E090E0909344038093430391
:1020C00056CF072E000C880B990B0E9430152AE082
:1020D00038E240EA5BE30E94E5156B017C0109816F
:1020E0001A81B801110F880B990B0E9430152AE054
:1020F00038E240EA5BE30E94E5159B01AC01C701B1
:10210000B6010E94141420914503C12CD12C48E83B
:10211000E42E41E4F42E223029F4C12CD12CE12C00
:1021200031E4F32E20E030E04AE754E40E94E51564
:102130004B015C012AE939E947E752E4C701B601DE
:102140000E94E5159B01AC01C501B4010E948614F3
:1021500020E030E04AE754E40E94E5150E94F814BC
:102160008B017093F1026093F002613328EF7207E4
:102170000CF40DC26A3C38E073070CF0FFC120E09C
:10218000222E21E0322E40E351E05A874987CB01CD
:10219000770FAA0BBB0B8D839E83AF83B887A9856E
:1021A000BA85ED90FD90BA87A987FA82E9820E156B
:1021B0001F0571F5D1016D917C91072E000C880BE4
:1021C000990B0E9430156B017C01F2E02F0E311C3F
:1021D0002EE531E049855A852417350749F020E07E
:1021E00030E0A901C701B6010E9481148823B9F229
:1021F000C701B6010E94F814DB0170934D03609390
:102200004C03643471050CF0CFCEA4E4B0E0D1CE21
:10221000E980FA800E151F050CF45FC0A985BA8508
:102220006D917C91601771070CF457C0072E000C5C
:10223000880B990B0E9430154B015C01F101628102
:102240007381072E000C880B990B0E9430152B010F
:102250003C01D1016D917C91072E000C880B990BEC
:102260000E9430159B01AC01C301B2010E941414FD
:102270006B017C01E981FA81BF01FF0F880B990B8B
:102280000E9430159B01AC01C501B4010E941414D9
:102290009B01AC01C701B6010E9486146B017C0151
:1022A0006D817E818F8198850E943015A7019601EE
:1022B0000E94E515A30192010E9415142B013C0117
:1022C000A7019601C501B4010E94E5159B01AC016F
:1022D000C301B2010E94141476CFC12CD12C760117
:1022E00074CF1092F602A5CA84E690E090934D0355
:1022F00080934C038EE997E0909307038093060345
:1023000089E7809305031092040340911A035091CA
:102310001B0360911C0370911D0380913203909107
:102320003303A0913403B09135037A018B01E81A8D
:10233000F90A0A0B1B0BD801C701843F9140A10584
:10234000B105C8F08091430390914403049759F478
:1023500090910A0321E0922790930A0380910B0346
:10236000822780930B03409332035093330360938F
:1023700034037093350380911403813009F0C1C890
:10238000D5CB8091C8029091C902A091CA02B091A8
:10239000CB02892B8A2B8B2B09F4FBC80E9490015E
:1023A0000091C8021091C9022091CA023091CB025B
:1023B0006C197D098E099F09061717072807390729
:1023C00008F0E7C88091C7020E9424031092ED0232
:1023D0001092EC021092EF0280911A0390911B036D
:1023E000A0911C03B0911D0340912E0350912F0327
:1023F0006091300370913103841B950BA60BB70BD2
:1024000086399105A105B10508F45EC090911703C6
:10241000913029F480910A03892780930A0386E882
:1024200090E00E94A402809117030FE0809FC001FA
:102430001124805A9E4F0E94E9038AE192E00E9493
:10244000E9038EE790E00E94A40260913C03709142
:102450003D03072E000C880B990B0E9430152FE6C8
:1024600032E143E85AE30E94E5150E946C04809132
:10247000430390914403049709F46EC086E790E00B
:102480000E94A40260914C0370914D03072E000C32
:10249000880B990B0E9430152AE037ED43E25CE38C
:1024A0000E94E5150E946C0480911A0390911B0311
:1024B000A0911C03B0911D0380932E0390932F03D2
:1024C000A0933003B093310380911A0390911B03C2
:1024D000A0911C03B0911D0380931E0390931F03D2
:1024E000A0932003B093210380E090E0892B11F4A6
:1024F0000C944D090E942102882311F40C944D097B
:102500000E9400000C944D099D9191938F5F58C8D3
:1025100085EE94C88091C8029091C902A091CA0228
:10252000B091CB02892B8A2B8B2B09F48DC80E948A
:1025300090010091C8021091C9022091CA02309105
:10254000CB026C197D098E099F090617170728070A
:10255000390708F079C836CF82E790E00E94A402DC
:10256000609141037091420390E080E040E10E945D
:10257000F6038AE192E00E94E90396CF83EF93E0AD
:1025800090934D0380934C03A3EFB3E00DCD81E412
:1025900090E090934D0380934C0337CEDC01CB0148
:1025A000FC01F999FECF06C0F2BDE1BDF89A319663
:1025B00000B40D9241505040B8F70895DC01A40FCB
:1025C000B51F4150504048F0CB01840F951F2E910C
:1025D0000E94EF1241505040D0F70895262FF999EC
:1025E000FECF92BD81BDF89A019700B4021639F072
:1025F0001FBA20BD0FB6F894FA9AF99A0FBE089543
:102600000E942D13A59F900DB49F900DA49F800D47
:10261000911D11240895A1E21A2EAA1BBB1BFD01D6
:102620000DC0AA1FBB1FEE1FFF1FA217B307E407B1
:10263000F50720F0A21BB30BE40BF50B661F771F09
:10264000881F991F1A9469F76095709580959095E9
:102650009B01AC01BD01CF010895A29FB001B39FC2
:10266000C001A39F700D811D1124911DB29F700D9B
:10267000811D1124911D0895DB018F939F930E946A
:102680000013BF91AF91A29F800D911DA39F900D4C
:10269000B29F900D1124089597FB072E16F4009415
:1026A00007D077FD09D00E94001407FC05D03EF446
:1026B000909581959F4F0895709561957F4F0895EE
:1026C000EE0FFF1F0590F491E02D09940E942D1349
:1026D000B7FF0895821B930B0895DF93CF931F9349
:1026E0000F939A9DF02D219FF00D8B9DF00D8A9DEB
:1026F000E02DF10D039FF00D029FE00DF11D4E9DA9
:10270000E00DF11D5E9DF00D4F9DF00D7F936F93D9
:10271000BF92AF925F934F93D5010E942D138B010F
:10272000AC01D7010E942D13EB01E80FF91FD60170
:102730000E94BC132F913F91D6010E942D13C60F0A
:10274000D71FE81FF91FAF91BF910E94BC132F91B3
:102750003F910E942D13C60FD71FE81FF91FD60106
:102760000E942D13E60FF71F9801BE01CF010F91B4
:102770001F91CF91DF9108950E942D13460F571F8F
:10278000C81FD91F08F43196089597FD1094002EA4
:10279000083098F00850232F342F452F562F672FDD
:1027A000782F892F912DF4CF15949795879577954C
:1027B000679557954795379527950A95AAF7112458
:1027C000002D08952A0D3B1D4C1D5D1D6E1D7F1DA6
:1027D000801F911F08952A153B054C055D056E0568
:1027E0007F058007910708950024A7FD00942A170C
:1027F0003005400550056005700580059005089579
:10280000AA1BBB1B51E107C0AA1FBB1FA617B70716
:1028100010F0A61BB70B881F991F5A95A9F7809532
:102820009095BC01CD0108955058BB27AA270E945E
:102830002C140C94A6150E94981538F00E949F1530
:1028400020F039F49F3F19F426F40C9495150EF4FA
:10285000E095E7FB0C948F15E92F0E94B71558F30C
:10286000BA17620773078407950720F079F4A6F575
:102870000C94D9150EF4E0950B2EBA2FA02D0B0158
:10288000B90190010C01CA01A0011124FF27591BB5
:1028900099F0593F50F4503E68F11A16F040A22FBB
:1028A000232F342F4427585FF3CF4695379527952C
:1028B000A795F0405395C9F77EF41F16BA0B620B2B
:1028C000730B840BBAF09150A1F0FF0FBB1F661F72
:1028D000771F881FC2F70EC0BA0F621F731F841FB5
:1028E00048F4879577956795B795F7959E3F08F0DB
:1028F000B0CF9395880F08F09927EE0F979587959D
:1029000008950E946B1508F481E008950E949A14BE
:102910000C94A6150E949F1558F00E94981540F03F
:1029200029F45F3F29F00C948F1551110C94DA159E
:102930000C9495150E94B71568F39923B1F35523AC
:1029400091F3951B550BBB27AA27621773078407C2
:1029500038F09F5F5F4F220F331F441FAA1FA9F358
:1029600035D00E2E3AF0E0E832D091505040E69546
:10297000001CCAF72BD0FE2F29D0660F771F881FA7
:10298000BB1F261737074807AB07B0E809F0BB0B9A
:10299000802DBF01FF2793585F4F3AF09E3F5105AE
:1029A00078F00C948F150C94DA155F3FE4F3983EA1
:1029B000D4F3869577956795B795F7959F5FC9F797
:1029C000880F911D9695879597F90895E1E0660F18
:1029D000771F881FBB1F621773078407BA0720F091
:1029E000621B730B840BBA0BEE1F88F7E0950895FA
:1029F0000E94FF146894B1110C94DA1508950E9496
:102A0000BF1588F09F5798F0B92F9927B751B0F0AC
:102A1000E1F0660F771F881F991F1AF0BA95C9F762
:102A200014C0B13091F00E94D915B1E008950C9412
:102A3000D915672F782F8827B85F39F0B93FCCF3C5
:102A4000869577956795B395D9F73EF490958095DF
:102A5000709561957F4F8F4F9F4F0895E89409C0FF
:102A600097FB3EF490958095709561957F4F8F4FC1
:102A70009F4F9923A9F0F92F96E9BB279395F695D7
:102A8000879577956795B795F111F8CFFAF4BB0F55
:102A900011F460FF1BC06F5F7F4F8F4F9F4F16C0B9
:102AA000882311F096E911C0772321F09EE8872F43
:102AB000762F05C0662371F096E8862F70E060E0FF
:102AC0002AF09A95660F771F881FDAF7880F969578
:102AD000879597F90895990F0008550FAA0BE0E81C
:102AE000FEEF16161706E807F907C0F012161306D0
:102AF000E407F50798F0621B730B840B950B39F410
:102B00000A2661F0232B242B252B21F408950A2675
:102B100009F4A140A6958FEF811D811D089597F9B5
:102B20009F6780E870E060E008959FEF80EC089573
:102B300000240A941616170618060906089500249C
:102B40000A9412161306140605060895092E039416
:102B5000000C11F4882352F0BB0F40F4BF2B11F48A
:102B600060FF04C06F5F7F4F8F4F9F4F089557FDE9
:102B70009058440F551F59F05F3F71F04795880FEB
:102B800097FB991F61F09F3F79F087950895121682
:102B900013061406551FF2CF4695F1DF08C016162E
:102BA00017061806991FF1CF8695710561050894DF
:102BB0000895E894BB2766277727CB0197F90895F6
:102BC0000E946B1508F48FEF08950E94F8150C947D
:102BD000A6150E94981538F00E949F1520F09523A5
:102BE00011F00C948F150C94951511240C94DA1592
:102BF0000E94B71570F3959FC1F3950F50E0551FD4
:102C0000629FF001729FBB27F00DB11D639FAA2741
:102C1000F00DB11DAA1F649F6627B00DA11D661F90
:102C2000829F2227B00DA11D621F739FB00DA11DB1
:102C3000621F839FA00D611D221F749F3327A00D6B
:102C4000611D231F849F600D211D822F762F6A2F07
:102C500011249F5750409AF0F1F088234AF0EE0F6C
:102C6000FF1FBB1F661F771F881F91505040A9F799
:102C70009E3F510580F00C948F150C94DA155F3F40
:102C8000E4F3983ED4F3869577956795B795F795D5
:102C9000E7959F5FC1F7FE2B880F911D969587954D
:082CA00097F90895F894FFCFA5
:102CA800410046004B005000520055005A005F009A
:102CB800610063006400650069006E0071007500C2
:102CC8008E00AA00C700F30055011B02EE02F303B1
:102CD80030F8BEF925FB61FCE0FC74FD6BFE49FF92
:102CE80096FFD8FF00000F006100C100FA004901FB
:102CF8009F02AA037E046905A406D0076608CA08CD
:102D0800494E56414C494400000000000000005064
:102D18005245534554000000000000000000535481
:102D28004152540000000000000000000043414CE4
:102D38004942524154494F4E0000000049444C4515
:102D48000000000000000000000000434F4E444512
:102D58004E534154494F4E0000005052454845419A
:102D6800540000000000000000504944000000002A
:102D7800000000000000000052554E4E494E47002A
:102D8800000000000000004552524F5200000000B1
:102D9800000000000000000000005702B701E40135
:102DA800BF021502F3010702000000009C036F0335
:102DB800CB0345036803550346030D0A006F766687
:0A2DC8000055413A0055523A000050
:00000001FF
