:020000040000FA
:100000000C9462000C948A000C948A000C948A0070
:100010000C948A000C948A000C948A000C948A0038
:100020000C948A000C948A000C948A000C948A0028
:100030000C948A000C948A000C948A000C948A0018
:100040000C94B0050C948A000C947E050C94580511
:100050000C948A000C948A000C948A000C948A00F8
:100060000C94FA050C948A0000000000250028007A
:100070002B0000000000240027002A0000000000E0
:1000800023002600290004040404040404040202DA
:100090000202020203030303030301020408102007
:1000A0004080010204081020010204081020000012
:1000B0000008000201000003040700000000000027
:1000C0000000190711241FBECFEFD8E0DEBFCDBF5F
:1000D00012E0A0E0B1E0E2E5FBE202C005900D9283
:1000E000A035B107D9F724E0A0E5B2E001C01D9228
:1000F000A934B207E1F710E0C2E6D0E004C02197CE
:10010000FE010E940715C136D107C9F70E94650795
:100110000C94A7150C94000008950895AF92BF9217
:10012000CF92DF92EF92FF920F931F93CF93DF93C3
:100130006C017B018B01040F151FEB015E01AE18F2
:10014000BF08C017D10759F06991D601ED91FC9114
:100150000190F081E02DC6010995892B79F7C50141
:10016000DF91CF911F910F91FF90EF90DF90CF9093
:10017000BF90AF900895FC01538D448D252F30E042
:10018000842F90E0821B930B541710F0CF960895A4
:1001900001970895FC01918D828D981761F0A28DD1
:1001A000AE0FBF2FB11D5D968C91928D9F5F9F7397
:1001B000928F90E008958FEF9FEF0895FC01918D4D
:1001C000828D981731F0828DE80FF11D858D90E0BA
:1001D00008958FEF9FEF0895FC01918D228D892F57
:1001E00090E0805C9F4F821B91098F73992708953F
:1001F00083E793E00E94EC0021E0892B09F420E0E2
:10020000822F089580E090E0892B29F00E94F80069
:1002100081110C9400000895FC01A48DA80FB92F42
:10022000B11DA35ABF4F2C91848D90E001968F731E
:100230009927848FA689B7892C93A089B1898C913D
:10024000837080648C93938D848D981306C002888C
:10025000F389E02D80818F7D80830895EF92FF9256
:100260000F931F93CF93DF93EC0181E0888F9B8DD9
:100270008C8D98131AC0E889F989808185FF15C093
:100280009FB7F894EE89FF896083E889F9898081B6
:100290008370806480839FBF81E090E0DF91CF9185
:1002A0001F910F91FF90EF900895F62E0B8D10E0A7
:1002B0000F5F1F4F0F731127E02E8C8D8E110CC016
:1002C0000FB607FCFACFE889F989808185FFF5CF61
:1002D000CE010E940C01F1CFEB8DEC0FFD2FF11D33
:1002E000E35AFF4FF0829FB7F8940B8FEA89FB899E
:1002F00080818062CFCFCF93DF93EC01888D8823FC
:10030000B9F0AA89BB89E889F9898C9185FD03C078
:10031000808186FD0DC00FB607FCF7CF8C9185FF5D
:10032000F2CF808185FFEDCFCE010E940C01E9CF95
:10033000DF91CF910895833081F028F4813099F0D6
:100340008230A9F008958730A9F08830C9F0843050
:10035000B1F4809180008F7D03C0809180008F7701
:1003600080938000089584B58F7784BD089584B507
:100370008F7DFBCF8091B0008F778093B000089580
:100380008091B0008F7DF9CF1F93CF93DF93282FFB
:1003900030E0F901E255FF4F8491F901E656FF4F35
:1003A000D491F901EA57FF4FC491CC23A9F0162F3D
:1003B00081110E949B01EC2FF0E0EE0FFF1FE85926
:1003C000FF4FA591B4918FB7F894EC91111108C02B
:1003D000D095DE23DC938FBFDF91CF911F910895DD
:1003E000DE2BF8CFCF93DF9390E0FC01E656FF4F72
:1003F00024918A579F4FFC0184918823D1F090E08B
:10040000880F991FFC01EE58FF4FA591B491FC0194
:10041000E859FF4FC591D491623071F49FB7F894B9
:100420003C91822F809583238C93E8812E2B288307
:100430009FBFDF91CF9108958FB7F894EC912E2B49
:100440002C938FBFF6CF1F93CF93DF93182FEB0121
:1004500061E00E94F201209739F460E0812FDF9182
:10046000CF911F910C94C401CF3FD10511F461E0ED
:10047000F5CFE12FF0E0E255FF4FE491E33031F1A9
:1004800040F4E130B1F0E230E1F0C038D1057CF762
:10049000E4CFE73029F1E83059F1E430B1F7809149
:1004A0008000806280938000D0938B00C0938A008C
:1004B00004C084B5806884BDC7BDDF91CF911F9112
:1004C000089584B5806284BDC8BDF7CF8091800057
:1004D000806880938000D0938900C0938800EDCF1E
:1004E0008091B00080688093B000C093B300E5CFE6
:1004F0008091B00080628093B000C093B400DDCFE3
:100500008E50806480937C0080917A008064809318
:100510007A0080917A0086FDFCCF809178009091DE
:10052000790008953FB7F8948091B5029091B60292
:10053000A091B702B091B80226B5A89B05C02F3F85
:1005400019F00196A11DB11D3FBFBA2FA92F982FF9
:100550008827BC01CD01620F711D811D911D42E0F4
:10056000660F771F881F991F4A95D1F7089520912C
:100570009102260F3327331F21323105ECF42091ED
:100580000303FC0190E080E0243069F082E00895EC
:10059000A09191022191AC014F585D4FA40FB52F4E
:1005A000B11D2C930196861798F380919102680FE4
:1005B0006093910280E0089581E008951092030312
:1005C00081E0809302031092DD0261E082E10E94EB
:1005D000C40161E083E10E94C401E9EBF0E08081A5
:1005E0008E7F808380818D7F808388E48093B800B4
:1005F00085E48093BC000895CF93DF9391E09093BE
:1006000070028823B9F0C091B800D091BA008091EF
:10061000BC008A7B8093BC0060E082E10E94C40140
:1006200060E083E10E94C4010E94DE02D093BA0020
:10063000C093B800DF91CF9108950895E091BF0273
:100640008091BE02E81730F4F0E0E05BFD4F80815E
:1006500090E008958FEF9FEF08959091BF028091F1
:10066000BE022FEF3FEF981748F4E92FF0E0E05B70
:10067000FD4F208130E09F5F9093BF02C901089534
:100680008091BE029091BF02891B990B0895CF9271
:10069000DF92EF92FF920F931F93CF93DF937C0132
:1006A000CB018A0120912C03222389F0EB016B01FD
:1006B000C40ED51ECC15DD0569F06991D701ED9109
:1006C000FC910190F081E02DC7010995F3CF642FD3
:1006D0000E94B702C801DF91CF911F910F91FF9047
:1006E000EF90DF90CF900895CF93DF931F92CDB717
:1006F000DEB7698320912C032223F9F0209129038E
:10070000203258F021E030E0FC013383228390E076
:1007100080E00F90DF91CF91089580912A03E82F18
:10072000F0E0E75FFC4F998190838F5F80932A030D
:100730008093290381E090E0ECCF61E0CE01019647
:100740000E94B702F7CF90E080E00895CF93DF9347
:10075000EC0160E08AE00E94C401DEBD00000DB43F
:1007600007FEFDCFDEB5CEBD00000DB407FEFDCF08
:10077000CEB561E08AE00E94C401CE01DF91CF9145
:100780000895FC0101900020E9F73197AF01481B63
:10079000590BBC0183E793E00C948E008F929F92DB
:1007A000AF92BF920F931F93CF93DF93CDB7DEB776
:1007B000A1970FB6F894DEBF0FBECDBF19A242308D
:1007C00008F44AE08E010F5D1F4F842E912CB12C4E
:1007D000A12CA50194010E946F12E62FB901CA0154
:1007E000EA30F4F4E05DD801EE938D01232B242B45
:1007F000252B79F790E080E0109719F0CD010E9449
:10080000C103A1960FB6F894DEBF0FBECDBFDF9136
:10081000CF911F910F91BF90AF909F908F900895AF
:10082000E95CE1CF4F925F926F927F928F929F929D
:10083000AF92BF92CF92DF92EF92FF920F931F93EE
:10084000CF936B017C01742EAC019B010E94DE14DE
:10085000882399F08AE192E0CF911F910F91FF9048
:10086000EF90DF90CF90BF90AF909F908F907F9050
:100870006F905F904F900C94C10346015701E8942C
:10088000B7F82FEF3FEF4FE75FE7C501B4010E94D4
:10089000DE1481110DC02FEF3FEF4FE75FE7C50179
:1008A000B4010E940D1318161CF48EE192E0D4CF0F
:1008B0002FEF3FEF4FE75FE4C701B6010E946C14D2
:1008C00018161CF482E292E0C7CF2FEF3FEF4FE7FC
:1008D0005FECC701B6010E940D1387FDF3CF20E046
:1008E00030E0A901C701B6010E940D1310E000E03D
:1008F00087FF0AC06DE283E793E00E942E018C011E
:10090000F7FAF094F7F8F094C0E060E070E080E06F
:100910009FE37C1641F020E030E040E251E40E9489
:100920001213CF5FF6CFA70196010E94A1122B01EF
:100930003C010E948B134B015C014AE00E94CE03F4
:100940007C01E00EF11ECC23C1F1C501B4010E946F
:10095000BA139B01AC01C301B2010E94A0124B016A
:100960005C016EE283E793E00E942E01E80EF91E1F
:10097000C15018F120E030E040E251E4C501B4017B
:100980000E9471142B013C010E948B134B01B12C6E
:10099000A12C4AE0C501B4010E94CE03E80EF91E65
:1009A000C501B4010E94BA139B01AC01C301B2019D
:1009B0000E94A0124B015C01DBCFC701CF911F91B8
:1009C0000F91FF90EF90DF90CF90BF90AF909F90EE
:1009D0008F907F906F905F904F900895CF92DF92AD
:1009E000EF92FF92CF93DF936C01990FEE08FF080F
:1009F000F7FE1FC06DE283E793E00E942E01EC0139
:100A000066277727CB016C197D098E099F094AE07B
:100A10000E94CE03C80FD91F86E292E00E94C10354
:100A20008C0F9D1FDF91CF91FF90EF90DF90CF90C3
:100A300008954AE0C701B6010E94CE03EC01ECCF55
:100A400085ED8093BC008091050390910603A091F1
:100A50000703B09108030796A11DB11D23E0B695C9
:100A6000A795979587952A95D1F72091BC0024FDED
:100A700003C01092030308954091050350910603AB
:100A80006091070370910803452B462B472B69F3B0
:100A90000097A105B10541F025E32A95F1F7000083
:100AA0000197A109B109E1CF809104030C94FC02E4
:100AB0001F920F920FB60F9211242F933F934F93D3
:100AC0005F936F937F938F939F93AF93BF93EF93B6
:100AD000FF9383E793E00E940C01FF91EF91BF9198
:100AE000AF919F918F917F916F915F914F913F91C6
:100AF0002F910F900FBE0F901F9018951F920F927D
:100B00000FB60F9211242F938F939F93EF93FF9320
:100B1000E0918303F09184038081E0918903F09157
:100B20008A0382FD1BC0908180918C038F5F8F733D
:100B300020918D03821741F0E0918C03F0E0ED5895
:100B4000FC4F958F80938C03FF91EF919F918F9134
:100B50002F910F900FBE0F901F9018958081F4CFAA
:100B60001F920F920FB60F9211242F933F938F93E2
:100B70009F93AF93BF938091CB029091CC02A091B1
:100B8000CD02B091CE023091B40223E0230F2D3775
:100B900058F50196A11DB11D2093B4028093CB029C
:100BA0009093CC02A093CD02B093CE028091B50277
:100BB0009091B602A091B702B091B8020196A11D22
:100BC000B11D8093B5029093B602A093B702B09383
:100BD000B802BF91AF919F918F913F912F910F904C
:100BE0000FBE0F901F90189526E8230F0296A11DA7
:100BF000B11DD2CF1F920F920FB60F9211242F93D7
:100C00003F934F935F936F937F938F939F93AF9394
:100C1000BF93EF93FF938091B900887F803609F4EA
:100C20004AC0F0F5883209F4A7C018F5803109F4FC
:100C30009BC0B8F4882309F4F9C0883009F494C043
:100C4000FF91EF91BF91AF919F918F917F916F91A4
:100C50005F914F913F912F910F900FBE0F901F907A
:100C60001895883109F488C0803251F780930103C8
:100C700014C0803409F49DC040F48033B9F3883344
:100C8000F9F68093010385ECB0C0803509F485C086
:100C9000883509F496C0883499F60E942005D0CF93
:100CA000883909F48CC038F5883729F050F4883633
:100CB00011F0803729F683E0809303031092B3028A
:100CC00057C0883809F47BC0803919F0803809F0A2
:100CD000B7CF8091B302803208F071C0E091B302C7
:100CE00081E08E0F8093B3028091BB00F0E0ED565F
:100CF000FD4F80833DC0803B39F0E0F4803A09F439
:100D000079C0883A09F09CCF84E080930303109265
:100D1000920210929102E091BC02F091BD020995FD
:100D20008091910281110FC081E080939102109215
:100D3000710209C0803C09F4A6CF883C09F4A3CF16
:100D4000883B09F07DCFE091920281E08E0F809385
:100D50009202F0E0EF58FD4F80818093BB009091AC
:100D600092028091910229C08091DE028093BB00A3
:100D700085EC8093BC0064CF909100038091FF02CA
:100D8000981758F5E091000381E08E0F80930003DF
:100D9000F0E0E152FD4F8081E9CFE091000381E076
:100DA0008E0F809300038091BB00F0E0E152FD4F75
:100DB0008083909100038091FF029817C8F285E824
:100DC000D8CFE091000381E08E0F809300038091E3
:100DD000BB00F0E0E152FD4F80838091020381115E
:100DE0005CCF81E08093DD0284EA8093BC001092A6
:100DF000030326CF85EC8093BC00109203038091FF
:100E0000B302803230F4E091B302F0E0ED56FD4FD2
:100E100010826091B30270E0E091BA02F091BB02DF
:100E200083E992E009951092B3020ACF1092010370
:100E300034CFE3E7F3E01382128288EE93E0A0E080
:100E4000B0E084839583A683B7832AEF31E03183B2
:100E5000208325EC30E03587248724EC30E0378789
:100E6000268720EC30E0318B208B21EC30E0338B77
:100E7000228B22EC30E0358B248B26EC30E0378B54
:100E8000268B118E128E138E148EE0E1F4E0138205
:100E9000128284839583A683B7838CE092E091834A
:100EA0008083ECE1F4E0168E158E10A2178E11A24D
:100EB00012A213A214A215A216A217A210A611A67E
:100EC00012A613A614A6148E0895CF93DF93CDB760
:100ED000DEB72F970FB6F894DEBF0FBECDBF789464
:100EE00084B5826084BD84B5816084BD85B582602F
:100EF00085BD85B5816085BD80916E0081608093E0
:100F00006E00109281008091810082608093810048
:100F10008091810081608093810080918000816058
:100F2000809380008091B10084608093B1008091B3
:100F3000B00081608093B00080917A0084608093DB
:100F40007A0080917A00826080937A0080917A00A2
:100F5000816080937A0080917A00806880937A0023
:100F60001092C100EBE3F3E08DE2DF011D928A9560
:100F7000E9F7E8E6F3E08BE0DF011D928A95E9F7F7
:100F8000E3E3F3E088E0DF011D928A95E9F7EDE203
:100F9000F3E086E0DF011D928A95E9F74BE050E02F
:100FA00070E060E080EC92E00E94541261E08AE020
:100FB0000E94F20161E087E00E94F20161E085E0B9
:100FC0000E94F20161E086E00E94F20161E083E0AC
:100FD0000E94F20162E080E10E94F20184E08093CD
:100FE00081008CE08093B80061E08AE00E94C40137
:100FF00060E087E00E94C40160E085E00E94C401D7
:1010000060E086E00E94C40160E083E00E94C401C9
:1010100010923A041092390410923C0410923B044E
:1010200010923D0410923E0410923F04109240042E
:10103000109241041092420410924304109244040E
:1010400010924504109246041092470410924804EE
:101050001092380480E091E1A0E0B0E080931C049D
:1010600090931D04A0931E04B0931F0487E090E0AA
:10107000A0E0B0E08093200490932104A093220488
:10108000B093230480E096E4A0E0B0E080932404D1
:1010900090932504A0932604B0932704109228046B
:1010A0008FEF8093290410922A0410922B0410923F
:1010B0002C0410922D0410922E0410922F041092E2
:1010C00030041092310410923204109233041092C2
:1010D0003404109235041092360410923704EFB69F
:1010E000E982F8948091B902811127C0E0E9F0E02B
:1010F0008491E4EAF0E09491E82FF0E0EE0FFF1F16
:10110000EE58FF4FA591B491EC91E92321F461E0F1
:101110008AE00E94C40161E08AE00E94F2018CB57D
:1011200080618CBD8CB580648CBD61E08DE00E94D7
:10113000F20161E08BE00E94F2018091B9028F5FC1
:101140008093B902F980FFBE8CB58C7F81608CBD25
:101150008DB581608DBD8CB58F7D8CBD8CB5837F49
:1011600084608CBD1092BF021092BE0210922A03BE
:10117000109229030E94DE028CE890E09093BD0259
:101180008093BC028DE890E09093BB028093BA02FA
:10119000E0918303F091840382E08083E0917F03F8
:1011A000F09180031082E0918103F091820380E14D
:1011B000808310928B03E0918703F091880386E08F
:1011C0008083E0918503F091860380818061808334
:1011D000E0918503F0918603808188608083E091AF
:1011E0008503F0918603808180688083E091850388
:1011F000F091860380818F7D80830E9492024B0153
:101200005C01BAEFCB2ED12CE12CF12C0E94920282
:10121000681979098A099B09683E7340810591051F
:10122000A8F301E0C01AD108E108F10818EE810E18
:1012300013E0911EA11CB11CC114D104E104F104FE
:1012400029F78EE00E94800290936D0380936C03D7
:101250008FE00E94800290936F0380936E0385E17C
:101260000E948002909369038093680384E10E9446
:10127000800290936B0380936A03EEEBF0E084911D
:10128000EAEAF0E0E490E982E6E9F0E0F490FD8239
:10129000FF2089F081110E949B010D81E02FF0E079
:1012A000EE0FFF1FE458FF4FA591B491EC91198107
:1012B0001E2381E009F480E0809370032FB7F89437
:1012C0008091CB029091CC02A091CD02B091CE0240
:1012D0002FBF80933E0390933F03A0934003B093AE
:1012E0004103A0916E03B0916F0328E833E10E949F
:1012F0000D152FEF33E040E050E00E946F12309365
:101300005C0320935B0379ECE72E74E0F72EE21A7E
:10131000F30AF0925703E0925603A0916C03B09148
:101320006D032EE832E60E940D152FEF33E040E00A
:1013300050E00E946F122E0D3F1D309359032093F1
:101340005803245039422536394108F405C18091AB
:101350005A038F5F80935A0390913B03843008F4C3
:10136000FDC010925A03913009F00CC181E08093C6
:101370003B0384E690E090936703809366038EE9D5
:1013800097E0909336038093350389E78093340385
:101390001092330310923A0310923D0310923C03D3
:1013A000109262031092610310926403109263031F
:1013B00010925E0310925D0310925F03109260031F
:1013C000109265038091580390915903895F9A4266
:1013D0008B37954150F48091CF028F5F8093CF027D
:1013E0008A3028F082E080933B031092CF02609114
:1013F000330370E086E00E9423026091340370E0C2
:1014000083E00E9423026091390387E00E94C401B7
:1014100060913A0385E00E94C401E0903503F090AA
:10142000360381E080932C0380E680932B03109297
:101430002A031092290360E480E194E00E9474037F
:10144000B70184E0769567958A95E1F780E194E0AD
:101450000E947403B70194E0660F771F9A95E1F735
:1014600080E194E00E947403F0902903F9820F2D2B
:10147000013208F021C70E9492026B017C01809129
:1014800003038111F4C682E08093030381E080931B
:1014900002038FEF809301031092000319811093D0
:1014A000FF02A9E0B3E0EFEDF2E080E0E980E812AE
:1014B000C3C71092DE028091DE02806C8093DE0250
:1014C0008091DD02813009F0BBC71092DD020E94DD
:1014D00092026B017C018091DE028093BB008091BF
:1014E000050390910603A0910703B0910803892B8F
:1014F0008A2B8B2BA1F00E94920200910503109180
:10150000060320910703309108036C197D098E09A9
:101510009F09061717072807390708F4C9C68091DD
:10152000BC0083FDD8CF85EC8093BC000E94920262
:101530006B017C0180910303823009F483C78091A1
:1015400001038F3F09F4B8C680910103803209F48A
:10155000B3C680910103B0C610925A03E0913B03D9
:10156000E150E93008F050C2F0E0E754F54F0C9438
:101570000715B609C60AE30AA80BFB0B700C040D8D
:101580001E0DEA1081E080933B03E8CF82E0809358
:101590003B0380E098E70E94A60390935E0380934C
:1015A0005D0398728F3F984259F48091D0028F5F0B
:1015B0008093D0028A3008F41ACF83E080933B03F3
:1015C0001092D00214CF83E080933B0380915F039D
:1015D0008130C9F08DE996E50E94A60381E08093F1
:1015E0005F031092D10280913E0390913F03A0913E
:1015F0004003B09141038093460390934703A09327
:101600004803B093490380913E0390913F03A0911A
:101610004003B091410340914603509147036091CC
:10162000480370914903841B950BA60BB70B8639B1
:101630009105A105B10508F4DACE20916803309137
:101640006903C90187599109893F910548F560915E
:101650006A0370916B03CB01875991098539910514
:10166000F8F48091D1024091610350916203420FDE
:10167000531F5093620340936103209163033091A1
:101680006403260F371F3093640320936303909104
:10169000390321E09227909339038F5F8093D10221
:1016A0008091D1028A3008F442C080916103909108
:1016B00062032AE030E0B9010E94F31470936203E0
:1016C000609361038091630390916403B9010E9468
:1016D000F314709364036093630381E08093390390
:1016E00084E080933B0389E292E00E94C103609111
:1016F00061037091620390E080E04AE00E94CE03B3
:1017000086E292E00E94C1038DE292E00E94C10352
:10171000609163037091640390E080E04AE00E946E
:10172000CE0386E292E00E94C1031092D102809122
:101730003E0390913F03A0914003B09141038093F9
:10174000460390934703A0934803B09349034FCEB9
:1017500084E080933B0380915F038230B9F088E896
:1017600096E50E94A60382E080935F0380913E038A
:1017700090913F03A0914003B09141038093D20226
:101780009093D302A093D402B093D50240913E032C
:1017900050913F0360914003709141038091D202C8
:1017A0009091D302A091D402B091D5027A018B011D
:1017B000E81AF90A0A0B1B0BD801C7018A3F9105E9
:1017C000A105B10570F080913A0391E089278093DB
:1017D0003A034093D2025093D3026093D4027093A1
:1017E000D50280917003811102CE85E080933B0386
:1017F00010923A03FCCD85E080933B03C0903E03FA
:10180000D0903F03E0904003F09041039091650336
:10181000953091F080936503C092D602D092D702A2
:10182000E092D802F092D902C0924203D0924303D0
:10183000E0924403F09245032091580330915903FC
:10184000032E000C440B550B64E276ED85E090E02E
:101850000E946F12233208F03FC02093330380911F
:10186000420390914303A0914403B0914503970133
:101870008601081B190B2A0B3B0BD901C8018037C5
:101880009741A105B10518F086E080933B03809154
:10189000D6029091D702A091D802B091D902A701A7
:1018A0009601281B390B4A0B5B0BDA01C901843600
:1018B0009105A105B10508F49ACD80913A0391E014
:1018C000892780933A03C092D602D092D702E09241
:1018D000D802F092D9028BCD82E280933303BFCF3E
:1018E00086E080933B03C0903E03D0903F03E0909E
:1018F0004003F0904103909165039630D1F18093BD
:101900006503C0924203D0924303E0924403F092F5
:101910004503C0924A03D0924B03E0924C03F092ED
:101920004D0300915803109159031A83098348010C
:10193000110FAA08BB0860EC70E28FE190E0A501EE
:1019400094010E946F12122F60E77EE881E090E020
:10195000A50194010E946F122093DB0229813A8134
:10196000283C32430CF054C08FEF8093DA0210937E
:1019700033038091420390914303A0914403B091BB
:10198000450397018601081B190B2A0B3B0BD90154
:10199000C801883E9340A105B10510F180913A033A
:1019A00091E0892780933A03809133039091DA0282
:1019B000891758F440916A0350916B032091630397
:1019C000309164034217530770F588E080933B031E
:1019D000C0924203D0924303E0924403F092450345
:1019E0008091420390914303A0914403B091450339
:1019F000C81AD90AEA0AFB0A28E9C2162AE3D2065B
:101A0000E104F10408F4F3CC81E080933B03EFCCD4
:101A100068E375E982E390E0A50194010E946F12EA
:101A20002093DA02A4CF2091DB02820F981718F0DE
:101A300080933303CDCF90933303CACF88E0809354
:101A40003B0380916503873019F087E0809365033D
:101A500080915F03823039F088E896E50E94A60302
:101A600082E080935F0380913E0390913F03A091B9
:101A70004003B091410389879A87AB87BC878091E7
:101A8000420390914303A0914403B0914503E9843C
:101A9000FA840B851C85E81AF90A0A0B1B0BD8017E
:101AA000C7010A97A105B10508F499C180916503A2
:101AB000873009F066C220906A0330906B032101E1
:101AC000032C000C660877088091630390916403EF
:101AD000092E000CAA0BBB0B481A590A6A0A7B0A8A
:101AE00020911C0430911D0440911E0450911F044C
:101AF000211531054105510509F407C2C301B201A1
:101B00000E94E31469837A838B839C830091200471
:101B10001091210420912204309123040115110514
:101B20002105310509F425C258016901E12CF12C88
:101B300000E010E09201A301D301C201BB0F880BAA
:101B4000982FDC018D839E83AF83B8876D81762FBC
:101B5000862F962F0E941415A0903D04B0903E044D
:101B6000C0903F04D0904004E0904104F0904204C3
:101B700000914304109144040E94891579018A015F
:101B80002F3FEFEF3E074E07EFE75E076105710558
:101B90008105910509F00CF4BDC18FEF80933D04E0
:101BA00080933E0480933F048FE78093400410921B
:101BB0004104109242041092430410924404E090B5
:101BC0003D04F0903E0400913F0410914004609168
:101BD00024047091250480912604909127046115B6
:101BE00071058105910509F4C8C180904504909064
:101BF0004604A0904704B0904804A301920128191C
:101C000039094A095B0949015A0140913904509147
:101C10003A04D101A41BB50B9D01BB0F440B550B1E
:101C200030923A042092390440924504509246047E
:101C30006092470470924804821A930AA40AB50A73
:101C40008114B0E89B06BFEFAB06BB0634F4812CD1
:101C5000F0E89F2EAA24AA94BA2CA501940121157C
:101C6000E0E83E074105510524F02FEF3FE740E053
:101C700050E00E94E3142B013C0189809A80AB80E4
:101C8000BC80BB0C8808982C5401A8019701550F03
:101C9000220B322FA9012D833E834F835887298140
:101CA0003A814B815C81682D782D882D982D5701C4
:101CB0006801ED80FE2C0E2D1E2D0E9489158301DA
:101CC0007201110FEE08FE2C8701E982FA820B8364
:101CD0001C8352016301E980FE2C0E2D1E2D0E94F3
:101CE000891519012A013B0189839D83E09128040C
:101CF0008090290490902A04A0912B04AF87B09182
:101D00002C04BD87B0912D04A0912E04F0912F04D6
:101D1000AE2EB82CC92CDF84ED84FB2E0A2F1F2F8A
:101D20000E94921509F054F5E0913004809031043E
:101D300090903204F0913304FF87A0913404AD8772
:101D4000B0913504A0913604F09137042E2F382D30
:101D5000492D5F856D857B2F8A2F9F2F5101620151
:101D6000730109811D810E94921544F4E22D832C98
:101D7000942C5F866D86B72DA02FF12F2E2F382D36
:101D8000492D5F856D857B2F8A2F9F2F08E00E944C
:101D90006C1529833A832E2F207830E040E050E004
:101DA00060E070E080E090E0A0E00E949B1529F0E8
:101DB000E981FA813196FA83E983F981F09333035B
:101DC00081E080933A03E984FA840B851C85E092D4
:101DD0004203F09243030093440310934503809120
:101DE000460390914703A0914803B09149030985A8
:101DF0001A852B853C85081B190B2A0B3B0BD90137
:101E0000C8014197A105B10508F4F1CA80E098E73F
:101E10000E94A60390935E0380935D0398728F3FA8
:101E2000984209F4B3C0809160038F5F8093600390
:101E3000833058F084E090E090935E0380935D03DC
:101E400089E080933B031092600380913B038930CB
:101E500009F44BC06091680370916903E0906103DD
:101E6000F0906203FA82E9826E157F0509F095C051
:101E700084E690E09093670380936603A4E6B0E065
:101E8000A938B10514F0A8E8B0E02AEF36E10E94C5
:101E90000D1524E630E040E050E00E946F12690129
:101EA0007A01AFEFB0E00E94641264557E498D4024
:101EB000910928E833E140E050E00E946F1220933E
:101EC0003403AFEFBFE0A70196010E94641264558E
:101ED000724B8A4D910928E833E140E050E00E94BE
:101EE0006F12309336032093350390917003913035
:101EF00009F06DC18091DC028F5F8093DC0283303A
:101F000008F415CC90933B0312CC19821A821B82E1
:101F10001C82FCCD211531054105E0E85E07EFEF9D
:101F20006E077E078E079E078CF020933D04F0928B
:101F30003E0440933F041093400460934104709327
:101F40004204809343049093440439CE10923D049C
:101F500010923E0410923F0480E8809340048FEF7B
:101F6000809341048093420480934304809344040B
:101F700026CEE12CF12C87012ACE412C512C3201A6
:101F80007CCE1092330310923A031DCF82E090E092
:101F900090935E0380935D0356CF072E000C880B51
:101FA000990B0E94BC1320E030E040EA50E40E940C
:101FB000711420E030EC4FE754E40E9412136B01DF
:101FC0007C0109811A81B80190E080E00E94BA1377
:101FD00020E030E040EA50E40E94711420E030EC50
:101FE0004FE754E40E9412139B01AC01C701B601F4
:101FF0000E94A01220915F03C12CD12C48E8E42E4E
:1020000041E4F42E223029F4C12CD12CE12C31E40E
:10201000F32E20E030E04AE754E40E9471144B01B3
:102020005C012AE939E947E752E4C701B6010E9499
:1020300071149B01AC01C501B4010E94121320E090
:1020400030E04AE754E40E9471140E9484138B012B
:1020500070932E0360932D03613328EF72070CF405
:102060001CC26A3C38E073070CF00EC220E0222E3E
:1020700021E0322E40E351E05A874987C12CD12C10
:102080007601CB01770FAA0BBB0B8D839E83AF83A9
:10209000B887A985BA85ED91FD91BA87A987FA839A
:1020A000E9830E171F0771F5D1016D917C91072E01
:1020B000000C880B990B0E94BC136B017C01F2E0B1
:1020C0002F0E311C2EE531E049855A85241735073E
:1020D00049F020E030E0A901C701B6010E940D13CC
:1020E0008823B9F2C701B6010E948413DB01709303
:1020F000670360936603643471050CF0C1CEA4E4F9
:10210000B0E0C3CEE981FA810E171F07C4F2A9859A
:10211000BA856D917C91601771078CF2072E000CC7
:10212000880B990B0E94BC132B013C01F1016281C9
:102130007381072E000C880B990B0E94BC134B0176
:102140005C01D1016D917C91072E000C880B990BDD
:102150000E94BC139B01AC01C501B4010E94A012F6
:102160006B017C01E981FA81BF01FF0F880B990B9C
:102170000E94BC139B01AC01C301B2010E94A012DA
:102180009B01AC01C701B6010E9412136B017C01D7
:10219000AC019B01C301B2010E9471149B01AC010F
:1021A000C501B4010E94A0124B015C016D817E81CA
:1021B0008F8198850E94BC13A70196010E9471141B
:1021C0009B01AC01C501B4010E94A11276CF10920F
:1021D000DC02ADCA84E690E09093670380936603C7
:1021E0008EE997E0909336038093350389E78093D7
:1021F00034031092330340913E0350913F036091AA
:102200004003709141038091520390915303A09138
:102210005403B09155037A018B01E81AF90A0A0BAD
:102220001B0BD801C701843F9140A105B105C8F03F
:1022300080915D0390915E03049759F49091390366
:1022400021E092279093390380913A03822780936B
:102250003A03409352035093530360935403709393
:10226000550380917003813009F0C1C8CDCB8091B6
:10227000050390910603A0910703B0910803892BF1
:102280008A2B8B2B09F4FBC80E9492020091050354
:102290001091060320910703309108036C197D0902
:1022A0008E099F09061717072807390708F0E7C89E
:1022B000809104030E94FC0210922A0310922903C9
:1022C00010922C0380913E0390913F03A091400314
:1022D000B091410340914E0350914F0360915003E0
:1022E00070915103841B950BA60BB70B8639910592
:1022F000A105B10508F490C090913B03913029F4F9
:10230000809139038927809339038DE292E00E94FE
:10231000C10380916A0390916B030E94EE0489E2ED
:1023200092E00E94C10380916803909169030E942A
:10233000EE0481E392E00E94C10380912D0390910D
:102340002E030E94EE0485E392E00E94C103809177
:102350003B030FE0809FC0011124805A9E4F0E94D2
:10236000C10386E292E00E94C1038BE392E00E94E7
:10237000C1036091580370915903072E000C880B1C
:10238000990B0E94BC1320E030E04AE754E40E941D
:10239000121342E00E94120486E292E00E94C103FE
:1023A00083E492E00E94C103609166037091670329
:1023B000072E000C880B990B0E94BC1320E030E024
:1023C00048EC52E40E94121342E00E94120486E29A
:1023D00092E00E94C1038BE492E00E94C1036091ED
:1023E0005D0370915E0390E080E040E10E94CE03C7
:1023F00086E292E00E94C10380913E0390913F03E8
:10240000A0914003B091410380934E0390934F03FA
:10241000A0935003B093510380E090E0892B11F416
:102420000C9421090E94F800882311F40C942109CE
:102430000E9400000C9421099D9191938F5F36C8F2
:1024400085EE72C88091050390910603A091070361
:10245000B0910803892B8A2B8B2B09F46BC80E943F
:102460009202009105031091060320910703309119
:1024700008036C197D098E099F090617170728079D
:10248000390708F057C814CF83EF93E090936703A0
:1024900080936603A3EFB3E0F3CC81E490E09093E4
:1024A0006703809366032BCEDC01CB01FC01F99915
:1024B000FECF06C0F2BDE1BDF89A319600B40D9290
:1024C00041505040B8F708950E949112A59F900D79
:1024D000B49F900DA49F800D911D11240895A1E239
:1024E0001A2EAA1BBB1BFD010DC0AA1FBB1FEE1F8E
:1024F000FF1FA217B307E407F50720F0A21BB30BD9
:10250000E40BF50B661F771F881F991F1A9469F754
:1025100060957095809590959B01AC01BD01CF01B0
:102520000895A29FB001B39FC001A39F700D811DAC
:102530001124911DB29F700D811D1124911D0895CC
:102540005058BB27AA270E94B8120C9432140E943C
:10255000241438F00E942B1420F039F49F3F19F412
:1025600026F40C9421140EF4E095E7FB0C941B1454
:10257000E92F0E94431458F3BA17620773078407C0
:10258000950720F079F4A6F50C9465140EF4E09507
:102590000B2EBA2FA02D0B01B90190010C01CA011D
:1025A000A0011124FF27591B99F0593F50F4503EC8
:1025B00068F11A16F040A22F232F342F4427585FBA
:1025C000F3CF469537952795A795F0405395C9F7D2
:1025D0007EF41F16BA0B620B730B840BBAF091508A
:1025E000A1F0FF0FBB1F661F771F881FC2F70EC029
:1025F000BA0F621F731F841F48F4879577956795FC
:10260000B795F7959E3F08F0B0CF9395880F08F0E7
:102610009927EE0F9795879508950E94F71308F470
:1026200081E008950E9426130C9432140E942B140A
:1026300058F00E94241440F029F45F3F29F00C94D4
:102640001B1451110C9466140C9421140E94431411
:1026500068F39923B1F3552391F3951B550BBB27D1
:10266000AA2762177307840738F09F5F5F4F220F16
:10267000331F441FAA1FA9F335D00E2E3AF0E0E80D
:1026800032D091505040E695001CCAF72BD0FE2F57
:1026900029D0660F771F881FBB1F261737074807EB
:1026A000AB07B0E809F0BB0B802DBF01FF279358A3
:1026B0005F4F3AF09E3F510578F00C941B140C9438
:1026C00066145F3FE4F3983ED4F38695779567955B
:1026D000B795F7959F5FC9F7880F911D96958795D8
:1026E00097F90895E1E0660F771F881FBB1F6217F7
:1026F00073078407BA0720F0621B730B840BBA0BB5
:10270000EE1F88F7E09508950E948B136894B1112D
:102710000C94661408950E944B1488F09F5798F00B
:10272000B92F9927B751B0F0E1F0660F771F881FD6
:10273000991F1AF0BA95C9F714C0B13091F00E94F0
:102740006514B1E008950C946514672F782F8827DD
:10275000B85F39F0B93FCCF3869577956795B39517
:10276000D9F73EF490958095709561957F4F8F4F86
:102770009F4F0895E89409C097FB3EF4909580958B
:10278000709561957F4F8F4F9F4F9923A9F0F92F37
:1027900096E9BB279395F695879577956795B795B5
:1027A000F111F8CFFAF4BB0F11F460FF1BC06F5F9B
:1027B0007F4F8F4F9F4F16C0882311F096E911C0AD
:1027C000772321F09EE8872F762F05C0662371F0CE
:1027D00096E8862F70E060E02AF09A95660F771FE2
:1027E000881FDAF7880F9695879597F90895990FBE
:1027F0000008550FAA0BE0E8FEEF16161706E807CB
:10280000F907C0F012161306E407F50798F0621BEB
:10281000730B840B950B39F40A2661F0232B242BC0
:10282000252B21F408950A2609F4A140A6958FEFDF
:10283000811D811D089597F99F6780E870E060E031
:1028400008959FEF80EC089500240A941616170649
:1028500018060906089500240A9412161306140691
:1028600005060895092E0394000C11F4882352F0F4
:10287000BB0F40F4BF2B11F460FF04C06F5F7F4FAC
:102880008F4F9F4F089557FD9058440F551F59F093
:102890005F3F71F04795880F97FB991F61F09F3F4D
:1028A00079F087950895121613061406551FF2CF76
:1028B0004695F1DF08C0161617061806991FF1CFC6
:1028C00086957105610508940895E894BB276627ED
:1028D0007727CB0197F908950E94F71308F48FEF3B
:1028E00008950E9484140C9432140E94241438F029
:1028F0000E942B1420F0952311F00C941B140C94BF
:10290000211411240C9466140E94431470F3959FB3
:10291000C1F3950F50E0551F629FF001729FBB27D6
:10292000F00DB11D639FAA27F00DB11DAA1F649F72
:102930006627B00DA11D661F829F2227B00DA11D25
:10294000621F739FB00DA11D621F839FA00D611DAB
:10295000221F749F3327A00D611D231F849F600DCC
:10296000211D822F762F6A2F11249F5750409AF0F5
:10297000F1F088234AF0EE0FFF1FBB1F661F771F81
:10298000881F91505040A9F79E3F510580F00C944C
:102990001B140C9466145F3FE4F3983ED4F38695C1
:1029A00077956795B795F795E7959F5FC1F7FE2BEC
:1029B000880F911D9695879597F908950E94F713B2
:1029C000880B990B0895DB018F939F930E946412EB
:1029D000BF91AF91A29F800D911DA39F900DB29FBB
:1029E000900D11240895AA1BBB1B51E107C0AA1F1B
:1029F000BB1FA617B70710F0A61BB70B881F991FA0
:102A00005A95A9F780959095BC01CD010895EE0FD8
:102A1000FF1F0590F491E02D09940E949112B7FFD9
:102A20000895821B930B0895DF93CF931F930F9309
:102A30009A9DF02D219FF00D8B9DF00D8A9DE02D2C
:102A4000F10D039FF00D029FE00DF11D4E9DE00D75
:102A5000F11D5E9DF00D4F9DF00D7F936F93BF9222
:102A6000AF925F934F93D5010E9491128B01AC01FD
:102A7000D7010E949112EB01E80FF91FD6010E94C5
:102A800063152F913F91D6010E949112C60FD71F57
:102A9000E81FF91FAF91BF910E9463152F913F91DD
:102AA0000E949112C60FD71FE81FF91FD6010E947E
:102AB0009112E60FF71F9801BE01CF010F911F91F0
:102AC000CF91DF9108950E949112460F571FC81FA2
:102AD000D91F08F43196089597FD1094002E083000
:102AE00098F00850232F342F452F562F672F782F1B
:102AF000892F912DF4CF15949795879577956795A4
:102B000057954795379527950A95AAF71124002DD3
:102B100008952A0D3B1D4C1D5D1D6E1D7F1D801FE0
:102B2000911F08952A153B054C055D056E057F052F
:102B30008007910708950024A7FD00942A17300507
:102B40004005500560057005800590050895F894CE
:102B5000FFCF410046004B005000520055005A0084
:102B60005F00610063006400650069006E00710031
:102B700075008E00AA00C700F30055011B02EE028B
:102B8000F30330F8BEF925FB61FCE0FC74FD6BFE3D
:102B900049FF96FFD8FF00000F006100C100FA0056
:102BA00049019F02AA037E046905A406D0076608AE
:102BB000CA08494E56414C4944000000000000003C
:102BC0000050524553455400000000000000000032
:102BD0005354415254000000000000000000004324
:102BE000414C4942524154494F4E00000000494473
:102BF0004C450000000000000000000000434F4E64
:102C000044454E534154494F4E00000050524548F0
:102C100045415400000000000000005049440000FD
:102C20000000000000000000000052554E4E494ECA
:102C30004700000000000000004552524F520000C3
:102C40000000000000000000000000002E018E00C7
:102C5000BB007B01EC00CA00DE0000000000740332
:102C60004703A3031D0340032D031E036E616E0083
:102C7000696E66006F7666000D0A0055413A005590
:102C8000523A0049503A004D6F64653A00537570EE
:102C9000706C793A004C616D6264613A00436A3A43
:022CA000000032
:107800000C94343C0C94513C0C94513C0C94513CE1
:107810000C94513C0C94513C0C94513C0C94513CB4
:107820000C94513C0C94513C0C94513C0C94513CA4
:107830000C94513C0C94513C0C94513C0C94513C94
:107840000C94513C0C94513C0C94513C0C94513C84
:107850000C94513C0C94513C0C94513C0C94513C74
:107860000C94513C0C94513C11241FBECFEFD8E036
:10787000DEBFCDBF11E0A0E0B1E0ECE9FFE702C060
:1078800005900D92A230B107D9F712E0A2E0B1E065
:1078900001C01D92AD30B107E1F70E942D3D0C945F
:1078A000CC3F0C94003C982F959595959595959582
:1078B000905D8F708A307CF0282F295A8091C0000B
:1078C00085FFFCCF9093C6008091C00085FFFCCF60
:1078D0002093C6000895282F205DF0CF982F809127
:1078E000C00085FFFCCF9093C6000895EF92FF92F1
:1078F0000F931F93EE24FF2487018091C00087FD22
:1079000017C00894E11CF11C011D111D81E4E8164B
:1079100082E4F8068FE0080780E0180770F3E09132
:107920000401F091050109958091C00087FFE9CF1E
:107930008091C6001F910F91FF90EF9008950E94D3
:10794000763C982F8091C00085FFFCCF9093C600B5
:1079500091362CF490330CF09053892F089597555D
:10796000892F08951F930E949F3C182F0E949F3CCF
:107970001295107F810F1F9108951F93182F882350
:1079800021F00E94763C1150E1F71F9108951F935A
:10799000182F0E94763C803249F0809103018F5F5E
:1079A000809303018530C1F01F9108958091C0003C
:1079B00085FFFCCF84E18093C6008091C00085FFE5
:1079C000FCCF1093C6008091C00085FFFCCF80E102
:1079D0008093C6001F910895E0910401F091050184
:1079E00009951F9108950E94763C803241F0809164
:1079F00003018F5F80930301853081F008958091AA
:107A0000C00085FFFCCF84E18093C6008091C00058
:107A100085FFFCCF80E18093C6000895E0910401CA
:107A2000F09105010995089540E951E08823A1F0FE
:107A30002D9A28EE33E0FA013197F1F721503040CA
:107A4000D1F72D9828EE33E0FA013197F1F7215064
:107A50003040D1F7815061F708953F924F925F9285
:107A60006F927F928F929F92AF92BF92CF92DF924E
:107A7000EF92FF920F931F93CF93DF93000080E16B
:107A80008093C4001092C50088E18093C10086E015
:107A90008093C2005098589A259A81E00E94143D24
:107AA00024E1F22E9EE1E92E85E9D82E0FE0C02ECA
:107AB00010E1B12EAA24A394B1E49B2EA6E58A2E50
:107AC000F2E57F2EE0E26E2E79E4572E63E5462E36
:107AD00050E5352E0E94763C8033B1F18133B9F107
:107AE000803409F46FC0813409F476C0823409F41B
:107AF00085C0853409F488C0803531F1823521F1A3
:107B0000813511F1853509F485C0863509F48DC0BC
:107B1000843609F496C0843709F403C1853709F423
:107B200072C1863709F466C0809103018F5F80932C
:107B30000301853079F6E0910401F0910501099582
:107B40000E94763C803351F60E94F33CC3CF0E94E2
:107B5000763C803249F78091C00085FFFCCFF092DF
:107B6000C6008091C00085FFFCCF9092C600809136
:107B7000C00085FFFCCF8092C6008091C00085FFC9
:107B8000FCCF7092C6008091C00085FFFCCF609250
:107B9000C6008091C00085FFFCCF5092C600809146
:107BA000C00085FFFCCF4092C6008091C00085FFD9
:107BB000FCCF3092C6008091C00085FFFCCFB09210
:107BC000C60088CF0E94763C863808F4BDCF0E945C
:107BD000763C0E94F33C7ECF0E94763C803809F4CC
:107BE0009CC0813809F40BC1823809F43CC1883942
:107BF00009F48FC080E00E94C73C6CCF84E10E94F2
:107C0000BD3C0E94F33C66CF85E00E94BD3C0E94D3
:107C1000F33C60CF0E94763C809306010E94763C44
:107C2000809307010E94F33C55CF0E94763C80333D
:107C300009F41DC183E00E94BD3C80E00E94C73C66
:107C400049CF0E94763C809309020E94763C809343
:107C5000080280910C028E7F80930C020E94763C79
:107C6000853409F415C18091080290910902892B8D
:107C700089F000E010E00E94763CF801E85FFE4FDA
:107C800080830F5F1F4F80910802909109020817AF
:107C9000190788F30E94763C803209F045CF809125
:107CA0000C0280FF01C16091060170910701660F0F
:107CB000771F7093070160930601A0910802B091AD
:107CC00009021097C9F0E8E0F1E09B01AD014E0F09
:107CD0005F1FF999FECF32BD21BD819180BDFA9A17
:107CE000F99A2F5F3F4FE417F50799F76A0F7B1F4B
:107CF00070930701609306018091C00085FFFCCF5F
:107D0000F092C6008091C00085FFFCCFB092C60003
:107D1000E1CE83E00E94C73CDDCE82E00E94C73CFA
:107D2000D9CE0E94763C809309020E94763C8093D3
:107D300008028091060190910701880F991F909386
:107D40000701809306010E94763C853409F4A6C0A1
:107D500080910C028E7F80930C020E94763C8032D0
:107D600009F0B8CE8091C00085FFFCCFF092C6002C
:107D7000609108027091090261157105B9F140E046
:107D800050E080910C02A82FA170B82FB27011C0E2
:107D9000BB2309F45CC0E0910601F0910701319624
:107DA000F0930701E09306014F5F5F4F46175707B7
:107DB000E8F4AA2369F3F999FECF209106013091E6
:107DC000070132BD21BDF89A90B58091C00085FFB2
:107DD000FCCF9093C6002F5F3F4F30930701209355
:107DE00006014F5F5F4F4617570718F38091C00099
:107DF00085FDE5CE8091C00085FFF8CFE0CE81E023
:107E00000E94C73C67CE0E94763C803209F08CCE3F
:107E10008091C00085FFFCCFF092C6008091C00029
:107E200085FFFCCFE092C6008091C00085FFFCCFAB
:107E3000D092C6008091C00085FFFCCFC092C600E2
:107E40008091C00085FFFCCFB092C60043CEE09188
:107E50000601F091070194918091C00085FFFCCF4D
:107E60009093C6009CCF80E10E94C73C33CE0E9415
:107E7000763C0E94763C182F0E94763C112309F430
:107E800083C0113009F484C08FE00E94C73C22CE29
:107E900080910C02816080930C02E5CE80910C02EF
:107EA000816080930C0259CF809107018823880F4D
:107EB000880B8A2180930B02809106019091070123
:107EC000880F991F90930701809306018091080203
:107ED00080FF09C080910802909109020196909359
:107EE000090280930802F894F999FECF1127E091D6
:107EF0000601F0910701C8E0D1E08091080290915D
:107F00000902103091F40091570001700130D9F34B
:107F100003E000935700E89500915700017001308D
:107F2000D9F301E100935700E89509901990009169
:107F3000570001700130D9F301E000935700E89534
:107F40001395103498F011270091570001700130FB
:107F5000D9F305E000935700E895009157000170B0
:107F60000130D9F301E100935700E895329602976A
:107F700009F0C7CF103011F00296E5CF112480919F
:107F8000C00085FFB9CEBCCE8EE10E94C73CA2CD19
:0E7F900085E90E94C73C9ECDF894FFCF80008B
:00000001FF
