:100000000C946C000C9494000C9494000C94940048
:100010000C9494000C9494000C9494000C94940010
:100020000C9494000C9494000C9494000C94940000
:100030000C9494000C9494000C9494000C949400F0
:100040000C94DF030C9494000C9480020C945A02DC
:100050000C9494000C9494000C9494000C949400D0
:100060000C94A0040C94940029107409B709D409C5
:10007000890ADC0A4E0B2910FB0BDE0F0000000082
:10008000240027002A000000000023002600290089
:10009000040404040404040402020202020203032E
:1000A0000303030301020408102040800102040836
:1000B00010200102040810200000000800020100C6
:1000C0000003040700000000000000000000000022
:1000D000250028002B00CC1111241FBECFEFD8E043
:1000E000DEBFCDBF12E0A0E0B1E0E8EEFAE202C070
:1000F00005900D92AC34B107D9F724E0ACE4B2E03E
:1001000001C01D92A534B207E1F710E0CCE6D0E0C3
:1001100004C02197FE010E94CB14CB36D107C9F74A
:100120000E9410070C9472150C940000CF92DF927D
:10013000EF92FF920F931F93CF93DF936C017A019D
:100140008B01C0E0D0E0CE15DF0581F0D8016D91C4
:100150008D01D601ED91FC910190F081E02DC60159
:100160000995892B11F02196EECF7E01C701DF9111
:10017000CF911F910F91FF90EF90DF90CF90089556
:10018000FC01538D448D252F30E0842F90E0821B9D
:10019000930B541710F0CF96089501970895FC0122
:1001A000918D828D981761F0828DDF01A80FB11DAE
:1001B0005D968C91928D9F5F9F73928F90E00895D2
:1001C0008FEF9FEF0895FC01918D828D981731F08C
:1001D000828DE80FF11D858D90E008958FEF9FEFE0
:1001E0000895FC01918D228D892F90E0805C9F4FB6
:1001F000821B91098F73992708958FE693E00E94DF
:10020000F10021E0892B09F420E0822F0895FC0100
:10021000848DDF01A80FB11DA35ABF4F2C91848D8F
:1002200090E001968F739927848FA689B7892C93C4
:10023000A089B1898C91837080648C93938D848D17
:10024000981306C00288F389E02D80818F7D80831A
:100250000895EF92FF920F931F93CF93DF93EC01DA
:1002600081E0888F9B8D8C8D981305C0E889F98972
:10027000808185FD26C0F62E0B8D10E00F5F1F4F8D
:100280000F731127E02E8C8DE8120CC00FB607FCFF
:10029000FACFE889F989808185FFF5CFCE010E94E8
:1002A0000701F1CF8B8DFE01E80FF11DE35AFF4FDF
:1002B000F0829FB7F8940B8FEA89FB898081806276
:1002C0000AC09FB7F894EE89FF896083E889F989AD
:1002D00080818370806480839FBF81E090E0DF91A4
:1002E000CF911F910F91FF90EF900895CF93DF93DF
:1002F000EC01888D8823C9F0EA89FB89808185FD1E
:1003000005C0A889B9898C9186FD0FC00FB607FC7E
:10031000F5CF808185FFF2CFA889B9898C9185FFBF
:10032000EDCFCE010E940701E7CFDF91CF91089575
:1003300080E090E0892B29F00E94FD0081110C944F
:100340000000089540914703262F30E0240F311D0F
:1003500021323105DCF420917C022430C9F4FC0107
:1003600080E090E0861758F4309147032191DC013A
:10037000A95DBC4FA30FB11D2C930196F3CF8091C3
:100380004703680F6093470380E0089581E0089574
:1003900082E00895089508950895E09151028091B2
:1003A0005002E81730F4F0E0EA5FFC4F808190E003
:1003B00008958FEF9FEF0895909151028091500220
:1003C000981750F4E92FF0E0EA5FFC4F208130E00D
:1003D0009F5F9093510202C02FEF3FEFC901089534
:1003E0008091500290E020915102821B9109089562
:1003F000CF92DF92EF92FF920F931F93CF93DF93F1
:100400007C01CB018A012091A402222389F0EB0117
:100410006B01C40ED51ECC15DD0569F06991D701BD
:10042000ED91FC910190F081E02DC7010995F3CF8A
:10043000642F0E94A201C801DF91CF911F910F91FB
:10044000FF90EF90DF90CF900895CF93DF931F92AE
:10045000CDB7DEB769832091A4022223D1F0209189
:10046000A202203240F021E030E0FC0133832283FD
:1004700080E090E015C08091A302E82FF0E0EE57F5
:10048000FD4F998190838F5F8093A3028093A20296
:1004900005C061E0CE0101960E94A20181E090E0DA
:1004A0000F90DF91CF910895089580E090E0089536
:1004B0000E946D151F920F920FB60F9211242F9369
:1004C0003F934F935F936F937F938F939F93AF93DC
:1004D000BF93EF93FF938FE693E00E940701FF9194
:1004E000EF91BF91AF919F918F917F916F915F91AC
:1004F0004F913F912F910F900FBE0F901F90189525
:100500001F920F920FB60F9211242F938F939F93E8
:10051000EF93FF93E0917F03F09180038081E0915E
:100520008503F091860382FD12C09081809188033B
:100530008F5F8F7320918903821751F0E0918803B8
:10054000F0E0E159FC4F958F8093880301C08081D2
:10055000FF91EF919F918F912F910F900FBE0F9070
:100560001F901895833081F028F4813099F0823003
:10057000A1F008958730A9F08830B9F08430D1F423
:10058000809180008F7D03C0809180008F77809361
:100590008000089584B58F7702C084B58F7D84BDB7
:1005A00008958091B0008F7703C08091B0008F7D57
:1005B0008093B00008951F93CF93DF93282F30E0EE
:1005C000F901E854FF4F8491F901EC55FF4FD491A4
:1005D000F901E057FF4FC491CC23C1F0162F8111D0
:1005E0000E94B202EC2FF0E0EE0FFF1FE453FF4F2A
:1005F000A591B4919FB7F894111104C08C91D09536
:10060000D82302C0EC91DE2BDC939FBFDF91CF910A
:100610001F910895CF93DF9390E0FC01EC55FF4FBD
:100620002491FC01E057FF4F8491882361F190E011
:10063000880F991FFC01E458FF4FC591D491FC012C
:10064000E453FF4FA591B491611109C09FB7F8948D
:100650008881209582238883EC912E230BC0623001
:1006600061F49FB7F8948881322F30958323888373
:10067000EC912E2B2C939FBF06C08FB7F894E88186
:100680002E2B28838FBFDF91CF9108951F93CF9397
:10069000DF93182FEB0161E00E940A03209711F409
:1006A00060E004C0CF3FD10539F461E0812FDF91D4
:1006B000CF911F910C94DB02E12FF0E0E854FF4F43
:1006C000E491E330F9F048F4E130B9F0E230A1F51B
:1006D00084B5806284BDC8BD34C0E730E9F0E8303D
:1006E00019F1E43049F580918000806280938000A8
:1006F000D0938B00C0938A0024C084B5806884BDE9
:10070000C7BD1FC080918000806880938000D09317
:100710008900C093880015C08091B00080688093E4
:10072000B000C093B3000DC08091B0008062809390
:10073000B000C093B40005C0C038D1050CF0B5CFEF
:10074000AFCFDF91CF911F9108958E3008F08E507A
:100750008770806480937C0080917A0080648093AD
:100760007A0080917A0086FDFCCF8091780090918C
:10077000790008953FB7F89480916B0390916C03D2
:10078000A0916D03B0916E0326B5A89B05C02F3FC5
:1007900019F00196A11DB11D3FBFBA2FA92F982FA7
:1007A0008827820F911DA11DB11DBC01CD0142E022
:1007B000660F771F881F991F4A95D1F708951F92DA
:1007C0000F920FB60F9211242F933F938F939F9305
:1007D000AF93BF938091520290915302A091540223
:1007E000B091550230916A0323E0230F2D3720F496
:1007F0000196A11DB11D05C026E8230F0296A11D7B
:10080000B11D20936A038093520290935302A093E8
:100810005402B093550280916B0390916C03A091A8
:100820006D03B0916E030196A11DB11D80936B0302
:1008300090936C03A0936D03B0936E03BF91AF913F
:100840009F918F913F912F910F900FBE0F901F900E
:10085000189510927C0281E080937B0210925602E0
:1008600061E082E10E94DB0261E083E10E94DB0241
:10087000E9EBF0E080818E7F808380818D7F8083B3
:1008800088E48093B80085E48093BC000895CF93FA
:10089000DF9391E0909326038823B9F0C091B800CC
:1008A000D091BA008091BC008A7B8093BC0060E04C
:1008B00082E10E94DB0260E083E10E94DB020E9491
:1008C0002904D093BA00C093B800DF91CF91089566
:1008D00085ED8093BC0080917E0290917F02A09173
:1008E0008002B09181020796A11DB11D23E0B6954B
:1008F000A795979587952A95D1F72091BC0024FF5D
:100900001CC040917E0250917F02609180027091E4
:100910008102452B462B472B81F30097A105B1059A
:1009200041F02AE22A95F1F700C00197A109B10927
:10093000E4CF80917D020C94470410927C020895CC
:100940001F920F920FB60F9211242F933F934F9344
:100950005F936F937F938F939F93AF93BF93EF9327
:10096000FF938091B900887F803609F49CC068F5B8
:10097000883209F45BC090F4803109F454C038F433
:10098000882309F4F6C0883009F44DC0F6C08831D8
:1009900009F44CC0803209F45DC0EFC0803409F422
:1009A00068C048F4803309F455C0883309F0E5C0C5
:1009B00080937A02D8C0803509F44FC0883509F495
:1009C0005DC0883409F0D9C0D6C0883909F4C7C0E1
:1009D000A8F4883709F467C038F4883609F463C08E
:1009E000803709F460C0C9C0883809F4B8C08039BC
:1009F00009F45FC0803809F0C0C05BC0803B09F4D7
:100A000086C038F4803A09F466C0883A09F47FC099
:100A1000B4C0803C09F4A7C0883C09F4A4C0883B5A
:100A200009F48AC0AAC08091570210C0909179023F
:100A300080917802981770F5E091790281E08E0F2D
:100A400080937902F0E0E85AFD4F80818093BB00EB
:100A500085EC86C080937A028EC0E091790281E0B5
:100A60008E0F809379028091BB00F0E0E85AFD4F31
:100A7000808390917902809178026EC0E091790232
:100A800081E08E0F809379028091BB00F0E0E85AFC
:100A9000FD4F808380917B0281116DC081E0809346
:100AA000560284EA61C083E080937C02109269035D
:100AB000CFCF80916903803208F051C0E091690383
:100AC00081E08E0F809369038091BB00F0E0E75BCB
:100AD000FC4F8083BDCF85EC8093BC0010927C02DC
:100AE00080916903803230F4E0916903F0E0E75BC4
:100AF000FC4F10826091690370E0E0914C02F0912C
:100B00004D0289E493E009951092690336C084E0B0
:100B100080937C021092480310924703E0914E02AA
:100B2000F0914F02099580914703811105C081E042
:100B30008093470310922703E091480381E08E0FD2
:100B400080934803F0E0E95DFC4F80818093BB0017
:100B50009091480380914703981708F479CF85E86E
:100B60008093BC000AC085EC8093BC0010927C028C
:100B700004C010927A020E946804FF91EF91BF9125
:100B8000AF919F918F917F916F915F914F913F9125
:100B90002F910F900FBE0F901F901895CF93DF935A
:100BA000EC0160E08AE00E94DB02DEBD00000DB4D3
:100BB00007FEFDCFDEB5CEBD00000DB407FEFDCFB4
:100BC000CEB561E08AE00E94DB028C2F90E09D2B85
:100BD000DF91CF910895009769F0FC01019000200A
:100BE000E9F73197AF01481B590BBC018FE693E041
:100BF0000C94960080E090E008958F929F92AF92BF
:100C0000BF920F931F93CF93DF93CDB7DEB7A1971A
:100C10000FB6F894DEBF0FBECDBF19A2423008F464
:100C20004AE08E010F5D1F4F842E912CA12CB12C18
:100C3000A50194010E943312E62FB901CA010150A7
:100C40001109EA3014F4E05D01C0E95CD801EC93CD
:100C5000232B242B252B61F7C8010E94EB05A196BD
:100C60000FB6F894DEBF0FBECDBFDF91CF911F91BD
:100C70000F91BF90AF909F908F9008958F929F9209
:100C8000AF92BF92CF92DF92EF92FF920F931F939A
:100C9000CF93DF936B017C01142F9B01AC010E9469
:100CA000A214882319F08FE392E027C04601570170
:100CB000E894B7F82FEF3FEF4FE75FE7C501B401C6
:100CC0000E94A21481110DC02FEF3FEF4FE75FE7A5
:100CD000C501B4010E94D11218161CF483E492E0FD
:100CE0000CC02FEF3FEF4FE75FE4C701B6010E9452
:100CF0003014181684F487E492E0DF91CF911F91AD
:100D00000F91FF90EF90DF90CF90BF90AF909F90AA
:100D10008F900C94EB052FEF3FEF4FE75FECC7018F
:100D2000B6010E94D11287FDE6CF20E030E0A90194
:100D3000C701B6010E94D11287FF0BC06DE28FE69A
:100D400093E00E942901EC01F7FAF094F7F8F0948F
:100D500002C0C0E0D0E000E060E070E080E09FE32F
:100D6000101741F020E030E040E251E40E94D6123A
:100D70000F5FF6CFA70196010E9465126B017C01FF
:100D80000E944F134B015C014AE00E94FD05C80F11
:100D9000D91F1123B9F1C501B4010E947E139B0133
:100DA000AC01C701B6010E9464126B017C016EE2C6
:100DB0008FE693E00E942901C80FD91F20E030E0A0
:100DC00040E251E4C701B6010E9435144B015C01B9
:100DD0000E944F136B01E12CF12C4AE0C701B601D0
:100DE0000E94FD05C80FD91FC701B6010E947E13DE
:100DF0009B01AC01C501B4010E9464126B017C012E
:100E00001150E1F6CE01DF91CF911F910F91FF902C
:100E1000EF90DF90CF90BF90AF909F908F9008950C
:100E2000CF93DF93CDB7DEB767970FB6F894DEBFE9
:100E30000FBECDBF789484B5826084BD84B58160D7
:100E400084BD85B5826085BD85B5816085BD809195
:100E50006E00816080936E0010928100809181000D
:100E60008260809381008091810081608093810005
:100E7000809180008160809380008091B1008460C7
:100E80008093B1008091B00081608093B000809128
:100E90007A00846080937A0080917A0082608093E7
:100EA0007A0080917A00816080937A0080917A0044
:100EB000806880937A001092C1008DE2EEECF2E03F
:100EC000DF011D928A95E9F78BE0EBEFF2E0DF019D
:100ED0001D928A95E9F788E0E6ECF2E0DF011D92C9
:100EE0008A95E9F786E0EEEBF2E0DF011D928A9544
:100EF000E9F74BE050E060E070E086EA92E00E94A3
:100F0000181261E08AE00E940A0361E087E00E9413
:100F10000A0361E085E00E940A0361E086E00E9426
:100F20000A0361E083E00E940A0362E080E10E941C
:100F30000A0384E0809381008CE08093B80061E034
:100F40008AE00E94DB0260E087E00E94DB0260E052
:100F500085E00E94DB0260E086E00E94DB0260E048
:100F600083E00E94DB021092360410923504109246
:100F70003804109237041092390410923A041092F7
:100F80003B0410923C0410923D0410923E041092D7
:100F90003F041092400410924104109242041092B7
:100FA0004304109244041092340480E091E1A0E0E4
:100FB000B0E08093180490931904A0931A04B0939E
:100FC0001B0487E090E0A0E0B0E080931C049093C5
:100FD0001D04A0931E04B0931F0480E096E4A0E0DB
:100FE000B0E08093200490932104A0932204B09356
:100FF0002304109224048FEF80932504109226047A
:1010000010922704109228041092290410922A04A6
:1010100010922B0410922C0410922D0410922E0486
:1010200010922F0410923004109231041092320466
:1010300010923304EFB6E982F8948091A5028111F1
:1010400027C0EAE9F0E08491EEEAF0E09491E82F1D
:10105000F0E0EE0FFF1FE458FF4FA591B491EC9123
:10106000E92321F461E08AE00E94DB0261E08AE08A
:101070000E940A038CB580618CBD8CB580648CBDE8
:1010800061E08DE00E940A0361E08BE00E940A03A8
:101090008091A5028F5F8093A502F980FFBE8CB579
:1010A0008C7F81608CBD8DB581608DBD8CB58F7D51
:1010B0008CBD8CB5837F84608CBD109251021092E0
:1010C00050021092A3021092A2020E9429048AECFC
:1010D00091E090934F0280934E028BEC91E09093BD
:1010E0004D0280934C02E0917F03F091800382E0F7
:1010F0008083E0917B03F0917C031082E0917D037B
:10110000F0917E0380E1808310928703E091830356
:10111000F091840386E08083E0918103F091820363
:10112000808180618083E0918103F09182038081DE
:1011300088608083E0918103F091820380818068E0
:101140008083E0918103F091820380818F7D808391
:101150000E94BA034B015C01BAEFCB2ED12CE12CDB
:10116000F12C0E94BA03DC01CB0188199909AA0964
:10117000BB09883E9340A105B10598F301E0C01A70
:10118000D108E108F10818EE810E13E0911EA11CB0
:10119000B11CC114D104E104F10419F78EE00E94DE
:1011A000A503909300038093FF028FE00E94A503A4
:1011B000909302038093010385E10E94A50390931D
:1011C000FC028093FB0284E10E94A5039093FE023F
:1011D0008093FD02E8ECF0E08491E4EBF0E0E49031
:1011E000E982E0EAF0E0F490FD82FF2089F08111CD
:1011F0000E94B2020D81E02FF0E0EE0FFF1FEA57D0
:10120000FF4FA591B491EC9119811E2381E009F45F
:1012100080E0809303032FB7F8948091520290915D
:101220005302A0915402B09155022FBF8093D10276
:101230009093D202A093D302B093D402A091010361
:10124000B091020328E833E10E94D1142FEF33E07C
:1012500040E050E00E9433123093EF022093EE0200
:1012600079ECE72E74E0F72EE21AF30AF092EA0224
:10127000E092E902A091FF02B09100032EE832E66D
:101280000E94D1142FEF33E040E050E00E9433126F
:101290002E0D3F1D3093EC022093EB022450394277
:1012A0002536394178F08091ED028F5F843068F007
:1012B0001092ED028091CE028130B1F081E08093F6
:1012C000CE0205C01092ED0202C08093ED02E091C3
:1012D000CE028E2F90E08A30910508F0BAC6FC014C
:1012E000EC5CFF4F0C94CB1481E08093CE0284E63B
:1012F00090E09093FA028093F9028EE997E0909340
:10130000C9028093C80289E78093C7021092C6027F
:101310001092CD021092D0021092CF021092F502DC
:101320001092F4021092F7021092F6021092F1025B
:101330001092F0021092F2021092F3021092F80250
:101340008091EB029091EC02895F9A428B37954134
:1013500058F48091B1028F5F8093B1028A3008F413
:101360007BC682E08093CE021092B10275C682E005
:101370008093CE0280E098E70E94CE059093F10220
:101380008093F00298728F3F984259F48091B20294
:101390008F5F8093B2028A3008F45EC683E0809348
:1013A000CE021092B20258C683E08093CE028091A2
:1013B000F2028130C9F08DE996E50E94CE0581E008
:1013C0008093F2021092B3028091D1029091D202E6
:1013D000A091D302B091D4028093D9029093DA0203
:1013E000A093DB02B093DC028091D1029091D202F3
:1013F000A091D302B091D4024091D9025091DA0267
:101400006091DB027091DC02841B950BA60BB70B7D
:1014100086399105A105B10508F41EC62091FB028D
:101420003091FC02C90187599109893F910548F51E
:101430008091FD029091FE02AC0147595109453956
:101440005105F8F44091F4025091F502240F351F34
:101450003093F5022093F4022091F6023091F702C6
:10146000820F931F9093F7028093F6029091CC0223
:1014700081E089278093CC028091B3028F5F8093B3
:10148000B3028091B3028A3008F487C58091F402D8
:101490009091F5022AE030E0B9010E94B7147093F0
:1014A000F5026093F4028091F6029091F702B9017F
:1014B0000E94B7147093F7026093F60281E0809364
:1014C000CC0284E08093CE028AE192E00E94EB0598
:1014D0006091F4027091F50280E090E04AE00E9491
:1014E000FD058EE192E00E94EB0581E292E00E9410
:1014F000EB056091F6027091F70280E090E04AE01F
:101500000E94FD058EE192E00E94EB051092B3026D
:1015100044C584E08093CE028091F2028230B9F01B
:1015200088E896E50E94CE0582E08093F2028091E1
:10153000D1029091D202A091D302B091D4028093B3
:10154000B4029093B502A093B602B093B702409153
:10155000D1025091D2026091D3027091D402809155
:10156000B4029091B502A091B602B091B7027A018F
:101570008B01E81AF90A0A0B1B0BD801C7018A3F35
:101580009105A105B10570F09091CD0281E0892708
:101590008093CD024093B4025093B5026093B6029B
:1015A0007093B70280910303811156C585E0809343
:1015B000CE021092CD0250C585E08093CE0290916C
:1015C000F802C090D102D090D202E090D302F09005
:1015D000D402953091F08093F802C092B802D09274
:1015E000B902E092BA02F092BB02C092D502D09248
:1015F000D602E092D702F092D8022091EB0230910D
:10160000EC02032E000C440B550B64E276ED85E0F2
:1016100090E00E943312233218F42093C60203C0D4
:1016200082E28093C6028091D5029091D602A09169
:10163000D702B091D80297018601081B190B2A0B1B
:101640003B0BD901C80180379741A105B10518F0BE
:1016500086E08093CE028091B8029091B902A09169
:10166000BA02B091BB02A7019601281B390B4A0BA5
:101670005B0B243631054105510508F4EDC490910A
:10168000CD0281E089278093CD02C092B802D0922A
:10169000B902E092BA02F092BB02DEC486E0809307
:1016A000CE029091F802C090D102D090D202E09088
:1016B000D302F090D402963009F444C08093F8022B
:1016C000C092D502D092D602E092D702F092D80210
:1016D000C092DD02D092DE02E092DF02F092E002E0
:1016E0000091EB021091EC021A8309834801110F5B
:1016F000AA08BB0860EC70E28FE190E0A5019401BC
:101700000E943312122F60E77EE881E090E0A5018D
:1017100094010E9433122093BD0229813A81283C12
:10172000324324F48FEF8093BC020AC068E375E96A
:1017300082E390E0A50194010E9433122093BC0241
:101740001093C6028091D5029091D602A091D70243
:10175000B091D80297018601081B190B2A0B3B0B8D
:10176000D901C801883E9340A105B10578F1909157
:10177000CD0281E089278093CD024091C60220915D
:10178000BC02421758F46091FD027091FE028091F4
:10179000F6029091F7026817790720F488E08093A9
:1017A000CE020CC08091BD0290E030E0840F911D0C
:1017B0002817390708F4C9018093C602C092D502E0
:1017C000D092D602E092D702F092D8028091D50250
:1017D0009091D602A091D702B091D802C81AD90A26
:1017E000EA0AFB0A28E9C2162AE3D206E104F10458
:1017F00008F02FC431C488E08093CE028091F802B3
:10180000873019F087E08093F8028091F2028230ED
:1018100039F088E896E50E94CE0582E08093F202D6
:101820008091D1029091D202A091D302B091D402C2
:1018300089879A87AB87BC878091D5029091D60221
:10184000A091D702B091D802E984FA840B851C8557
:10185000E81AF90A0A0B1B0BD801C7010A97A10560
:10186000B10508F4E2C18091F802873009F0CDC1DA
:101870002090FD023090FE02A101032C000C660BAB
:10188000770B8091F6029091F702092E000CAA0BBB
:10189000BB0B2A013B01481A590A6A0A7B0A2091AC
:1018A00018043091190440911A0450911B04211519
:1018B00031054105510549F0C301B2010E94A71449
:1018C00069837A838B839C8304C019821A821B826A
:1018D0001C8200911C0410911D0420911E04309163
:1018E0001F04011511052105310509F482C05801B5
:1018F0006901E12CF12C00E010E09201A301D30179
:10190000C201BB0F880B982FDC018D839E83AF83B0
:10191000B8876D81762F862F962F0E94D814A090BD
:101920003904B0903A04C0903B04D0903C04E0905D
:101930003D04F0903E0400913F04109140040E9449
:101940004F1579018A012F3FEFEF3E074E07EFE772
:101950005E076105710581059105A1F09CF08FEF8F
:101960008093390480933A0480933B048FE78093FB
:101970003C0410923D0410923E0410923F041092D9
:1019800040042EC0211531054105E0E85E07EFEF68
:101990006E077E078E079E078CF020933904F09225
:1019A0003A0440933B0410933C0460933D047093CD
:1019B0003E0480933F049093400412C01092390477
:1019C00010923A0410923B0480E880933C048FEF1D
:1019D00080933D0480933E0480933F0480934004B1
:1019E000E0903904F0903A0400913B0410913C04DB
:1019F00003C0E12CF12C8701609120047091210437
:101A0000809122049091230461157105810591054F
:101A100009F449C08090410490904204A09043048E
:101A2000B0904404A3019201281939094A095B09BD
:101A300049015A014091350450913604D101A41B4B
:101A4000B50B9D01BB0F440B550B30923604209211
:101A500035044092410450924204609243047092D3
:101A60004404821A930AA40AB50A8114B0E89B06BA
:101A7000BFEFAB06BB0634F4812C20E8922EAA24DB
:101A8000AA94BA2CA50194018114E0E89E06A10451
:101A9000B10424F02FEF3FE740E050E00E94A7148C
:101AA0002B013C0103C0412C512C320189809A80CA
:101AB000AB80BC80BB0C8808982C5401A80197010E
:101AC000550F220B322FA9012D833E834F83588758
:101AD00029813A814B815C81682D782D882D982D44
:101AE00057016801ED80FE2C0E2D1E2D0E944F1512
:101AF00083017201110FEE08FE2C8701E982FA8240
:101B00000B831C8352016301E980FE2C0E2D1E2DD8
:101B10000E944F1519012A013B019D83E091240485
:101B20008090250490902604A0912704AF8BB0915B
:101B30002804BD8BB0912904A0912A04F0912B04B4
:101B4000AE2EB82CC92CDF88ED88FB2E0A2F1F2F54
:101B50000E94581509F09CF5E0912C04ED87F09156
:101B60002D04FE87A0912E04AF87B0912F04B88B6F
:101B7000E0913004E98BF0913104FA8BA0913204AA
:101B8000AB8BB0913304BC8BE22F832C942E5F8AF5
:101B90006D8BB72DA82FF92FAD84BE84CF84D88844
:101BA000E988FA880B891C890E94581544F4EA2DAB
:101BB0008B2C9C2CDF8AED8ABF2DA02FF12F2E2F8E
:101BC000382D492D5F896D897B2F8A2F9F2F08E043
:101BD0000E94311529833A832E2F207830E040E08F
:101BE00050E060E070E080E090E0A0E00E946115CD
:101BF00029F0E981FA813196FA83E983F981F0933A
:101C0000C60281E08093CD0204C01092C6021092F9
:101C1000CD02E984FA840B851C85E092D502F0920E
:101C2000D6020093D7021093D8028091D9029091E6
:101C3000DA02A091DB02B091DC0209851A852B85BE
:101C40003C85081B190B2A0B3B0B013111052105A3
:101C5000310508F401C280E098E70E94CE05909318
:101C6000F1028093F00298728F3F984289F0809140
:101C7000F3028F5F8093F302833090F084E090E072
:101C80009093F1028093F00289E08093CE0206C027
:101C900082E090E09093F1028093F0021092F302C0
:101CA0008091CE02893009F468C16091FB02709185
:101CB000FC02E090F402F090F502FA82E9826E15DF
:101CC0007F0509F419C1072E000C880B990B0E949F
:101CD000801320E030E040EA50E40E94351420E018
:101CE00030EC4FE754E40E94D6126B017C0109816D
:101CF0001A81B80180E090E00E947E1320E030E07D
:101D000040EA50E40E94351420E030EC4FE754E400
:101D10000E94D6129B01AC01C701B6010E94641259
:101D20002091F202223039F0C12CD12CE8E8EE2EBD
:101D3000E1E4FE2E05C0C12CD12CE12C51E4F52E9E
:101D400020E030E04AE754E40E9435144B015C0186
:101D50002AE939E947E752E4C701B6010E94351480
:101D60009B01AC01C501B4010E94D61220E030E015
:101D70004AE754E40E9435140E9448138B01709383
:101D8000BF026093BE02613328EF72070CF4A8C053
:101D90006A3C38E073070CF0F7C240E0242E41E0C3
:101DA000342E40E351E05A834983C12CD12C760173
:101DB000CB01770FAA0BBB0B8D839E83AF83B887B4
:101DC000A981BA81ED91FD91BA83A983FA87E98748
:101DD0000E171F0751F4D1016D917C91072E000C55
:101DE000880B990B0E94801366C0E985FA850E174F
:101DF0001F070CF462C0A981BA816D917C916017B4
:101E000071070CF45AC0072E000C880B990B0E9426
:101E100080132B013C01F10162817381072E000CBC
:101E2000880B990B0E9480134B015C01D1016D91CD
:101E30007C91072E000C880B990B0E9480139B014C
:101E4000AC01C501B4010E9464126B017C01E985FB
:101E5000FA85BF01FF0F880B990B0E9480139B012D
:101E6000AC01C301B2010E9464129B01AC01C70125
:101E7000B6010E94D6126B017C019B01AC01C3012B
:101E8000B2010E9435149B01AC01C501B4010E944E
:101E900064124B015C016D817E818F8198850E9467
:101EA0008013A70196010E9435149B01AC01C50166
:101EB000B4010E9465126B017C01F2E02F0E311C0F
:101EC0002EE2221621E0320689F020E030E0A9015E
:101ED000C701B6010E94D112882309F471CF06C050
:101EE000C12CD12C92E8E92E92E4F92EC701B6015B
:101EF0000E944813DB0102C0A4E6B0E0B093FA02EE
:101F0000A093F902A434B10534F0A938B1052CF03E
:101F1000A8E8B0E002C0A4E4B0E02AEF36E10E94F5
:101F2000D11424E630E040E050E00E943312690111
:101F30007A01AFEFB0E00E94281264557E498D40CF
:101F4000910928E833E140E050E00E9433122093E9
:101F5000C702AFEFBFE0A70196010E9428126455A7
:101F6000724B8A4D910928E833E140E050E00E942D
:101F700033123093C9022093C80290910303913029
:101F800051F48091C4028F5F8093C402833028F0A3
:101F90009093CE0202C01092C4028091D10290911F
:101FA000D202A091D302B091D4028093D90290932F
:101FB000DA02A093DB02B093DC024EC084E690E02C
:101FC0009093FA028093F9028EE997E09093C90208
:101FD0008093C80289E78093C7021092C60240919D
:101FE000D1025091D2026091D3027091D4028091BB
:101FF000E5029091E602A091E702B091E8027A0131
:102000008B01E81AF90A0A0B1B0BD801C701843FA0
:102010009140A105B105C8F08091F0029091F102C4
:10202000049759F49091CC0281E098279093CC02C8
:102030009091CD0289278093CD024093E502509381
:10204000E6026093E7027093E80280910303813017
:1020500019F481E08093CE026091C60270E086E0C0
:102060000E9446036091C70270E083E00E9446032D
:102070006091CC0287E00E94DB026091CD0285E096
:102080000E94DB02E090C802F090C90281E08093D8
:10209000A40280E68093C5021092A3021092A202CD
:1020A00060E48CE094E00E942502B70124E076957C
:1020B00067952A95E1F78CE094E00E942502B7012C
:1020C00034E0660F771F3A95E1F78CE094E00E94C8
:1020D0002502F090A202F9820F2D013208F0BBC058
:1020E0000E94BA036B017C0180917C02882311F16C
:1020F00080917E0290917F02A0918002B091810236
:10210000892B8A2B8B2B81F30E94BA0300917E02CC
:1021100010917F022091800230918102DC01CB017D
:102120008C199D09AE09BF09081719072A073B0733
:10213000D8F682C082E080937C0281E080937B02AB
:102140008FEF80937A0210927902198110937802AE
:10215000A2E8B2E0E8E5F2E080E0E980E81621F0EC
:102160009D9191938F5FF9CF109257028091570202
:10217000806C8093570280915602813089F51092CD
:1021800056020E94BA036B017C0180915702809332
:10219000BB0080917E0290917F02A0918002B0915D
:1021A0008102892B8A2B8B2BA9F00E94BA03009104
:1021B0007E0210917F022091800230918102DC0129
:1021C000CB018C199D09AE09BF09081719072A0709
:1021D0003B0790F18091BC0083FDD7CF85EC01C017
:1021E00085EE8093BC000E94BA036B017C01809154
:1021F0007C02823031F580917E0290917F02A09125
:102200008002B0918102892B8A2B8B2B81F30E9453
:10221000BA0300917E0210917F02209180023091DA
:102220008102DC01CB018C199D09AE09BF09081799
:1022300019072A073B07D8F680917D020E944704C0
:102240000AC080917A028F3F31F080917A02803209
:1022500011F080917A021092A3021092A2021092C1
:10226000A4028091D1029091D202A091D302B091A8
:10227000D4024091E1025091E2026091E302709138
:10228000E402841B950BA60BB70B86399105A105BB
:10229000B10508F475C08091CE02813029F4909187
:1022A000CC0289278093CC0285E292E00E94EB0564
:1022B0008091CE020FE0809FC0011124805A9E4F72
:1022C0000E94EB058EE192E00E94EB058BE292E02A
:1022D0000E94EB056091EB027091EC02072E000C5E
:1022E000880B990B0E94801320E030E04AE754E409
:1022F0000E94D61242E00E943E068EE192E00E94C9
:10230000EB058091F0029091F1020497C1F083E314
:1023100092E00E94EB056091F9027091FA02072E9B
:10232000000C880B990B0E94801320E030E048ECF1
:1023300052E40E94D61242E00E943E060DC08BE39A
:1023400092E00E94EB056091F0027091F10280E052
:1023500090E040E10E94FD058EE192E00E94EB05D5
:102360008091D1029091D202A091D302B091D40277
:102370008093E1029093E202A093E302B093E4021F
:102380000E9498010C94CE08C12C80ECD82E8CE7CA
:10239000E82E84E4F82EAACDEFE6F3E01382128251
:1023A00088EE93E0A0E0B0E084839583A683B783B2
:1023B0002AEF31E03183208325EC30E03587248714
:1023C00024EC30E03787268720EC30E0318B208BFF
:1023D00021EC30E0338B228B22EC30E0358B248BE8
:1023E00026EC30E0378B268B118E128E138E148ED6
:1023F000ECE0F4E01382128284839583A683B78392
:102400008CE092E091838083E8E1F4E0168E158EF3
:1024100010A2178E11A212A213A214A215A216A224
:1024200017A210A611A612A613A614A6148E08951C
:10243000DC01CB01FC01F999FECF06C0F2BDE1BD84
:10244000F89A319600B40D9241505040B8F7089573
:102450000E945512A59F900DB49F900DA49F800DD2
:10246000911D11240895A1E21A2EAA1BBB1BFD0188
:102470000DC0AA1FBB1FEE1FFF1FA217B307E40763
:10248000F50720F0A21BB30BE40BF50B661F771FBB
:10249000881F991F1A9469F760957095809590959B
:1024A0009B01AC01BD01CF010895A29FB001B39F74
:1024B000C001A39F700D811D1124911DB29F700D4D
:1024C000811D1124911D08955058BB27AA270E94F1
:1024D0007C120C94F6130E94E81338F00E94EF135C
:1024E00020F039F49F3F19F426F40C94E5130EF410
:1024F000E095E7FB0C94DF13E92F0E94071458F3D3
:10250000BA17620773078407950720F079F4A6F5D8
:102510000C9429140EF4E0950B2EBA2FA02D0B016C
:10252000B90190010C01CA01A0011124FF27591B18
:1025300099F0593F50F4503E68F11A16F040A22F1E
:10254000232F342F4427585FF3CF4695379527958F
:10255000A795F0405395C9F77EF41F16BA0B620B8E
:10256000730B840BBAF09150A1F0FF0FBB1F661FD5
:10257000771F881FC2F70EC0BA0F621F731F841F18
:1025800048F4879577956795B795F7959E3F08F03E
:10259000B0CF9395880F08F09927EE0F9795879500
:1025A00008950E94BB1308F481E008950E94EA1286
:1025B0000C94F6130E94EF1358F00E94E81340F0B9
:1025C00029F45F3F29F00C94DF1351110C942A1465
:1025D0000C94E5130E94071468F39923B1F3552373
:1025E00091F3951B550BBB27AA2762177307840726
:1025F00038F09F5F5F4F220F331F441FAA1FA9F3BC
:1026000035D00E2E3AF0E0E832D091505040E695A9
:10261000001CCAF72BD0FE2F29D0660F771F881F0A
:10262000BB1F261737074807AB07B0E809F0BB0BFD
:10263000802DBF01FF2793585F4F3AF09E3F510511
:1026400078F00C94DF130C942A145F3FE4F3983E67
:10265000D4F3869577956795B795F7959F5FC9F7FA
:10266000880F911D9695879597F90895E1E0660F7B
:10267000771F881FBB1F621773078407BA0720F0F4
:10268000621B730B840BBA0BEE1F88F7E09508955D
:102690000E944F136894B1110C942A1408950E945B
:1026A0000F1488F09F5798F0B92F9927B751B0F0C1
:1026B000E1F0660F771F881F991F1AF0BA95C9F7C6
:1026C00014C0B13091F00E942914B1E008950C9427
:1026D0002914672F782F8827B85F39F0B93FCCF3DA
:1026E000869577956795B395D9F73EF49095809543
:1026F000709561957F4F8F4F9F4F0895E89409C063
:1027000097FB3EF490958095709561957F4F8F4F24
:102710009F4F9923A9F0F92F96E9BB279395F6953A
:10272000879577956795B795F111F8CFFAF4BB0FB8
:1027300011F460FF1BC06F5F7F4F8F4F9F4F16C01C
:10274000882311F096E911C0772321F09EE8872FA6
:10275000762F05C0662371F096E8862F70E060E062
:102760002AF09A95660F771F881FDAF7880F9695DB
:10277000879597F90895990F0008550FAA0BE0E87F
:10278000FEEF16161706E807F907C0F01216130633
:10279000E407F50798F0621B730B840B950B39F473
:1027A0000A2661F0232B242B252B21F408950A26D9
:1027B00009F4A140A6958FEF811D811D089597F919
:1027C0009F6780E870E060E008959FEF80EC0895D7
:1027D00000240A9416161706180609060895002400
:1027E0000A9412161306140605060895092E03947A
:1027F000000C11F4882352F0BB0F40F4BF2B11F4EE
:1028000060FF04C06F5F7F4F8F4F9F4F089557FD4C
:102810009058440F551F59F05F3F71F04795880F4E
:1028200097FB991F61F09F3F79F0879508951216E5
:1028300013061406551FF2CF4695F1DF08C0161691
:1028400017061806991FF1CF869571056105089442
:102850000895E894BB2766277727CB0197F9089559
:102860000E94BB1308F48FEF08950E9448140C9443
:10287000F6130E94E81338F00E94EF1320F095231E
:1028800011F00C94DF130C94E51311240C942A140A
:102890000E94071470F3959FC1F3950F50E0551FE8
:1028A000629FF001729FBB27F00DB11D639FAA27A5
:1028B000F00DB11DAA1F649F6627B00DA11D661FF4
:1028C000829F2227B00DA11D621F739FB00DA11D15
:1028D000621F839FA00D611D221F749F3327A00DCF
:1028E000611D231F849F600D211D822F762F6A2F6B
:1028F00011249F5750409AF0F1F088234AF0EE0FD0
:10290000FF1FBB1F661F771F881F91505040A9F7FC
:102910009E3F510580F00C94DF130C942A145F3F06
:10292000E4F3983ED4F3869577956795B795F79538
:10293000E7959F5FC1F7FE2B880F911D96958795B0
:1029400097F908950E94BB13880B990B0895DB013A
:102950008F939F930E942812BF91AF91A29F800DE9
:10296000911DA39F900DB29F900D11240895AA1B55
:10297000BB1B51E107C0AA1FBB1FA617B70710F06A
:10298000A61BB70B881F991F5A95A9F7809590959C
:10299000BC01CD010895EE0FFF1F0590F491E02DCD
:1029A00009940E945512B7FF0895821B930B089556
:1029B000DF93CF931F930F939A9DF02D219FF00DDE
:1029C0008B9DF00D8A9DE02DF10D039FF00D029F70
:1029D000E00DF11D4E9DE00DF11D5E9DF00D4F9D32
:1029E000F00D7F936F93BF92AF925F934F93D5019A
:1029F0000E9455128B01AC01D7010E945512EB01C8
:102A0000E80FF91FD6010E9428152F913F91D6019A
:102A10000E945512C60FD71FE81FF91FAF91BF9133
:102A20000E9428152F913F910E945512C60FD71F63
:102A3000E81FF91FD6010E945512E60FF71F9801F3
:102A4000BE01CF0111240F911F91CF91DF91089505
:102A50000E945512460F571FC81FD91F08F4319600
:102A6000089597FB10F8169400080F93083098F01B
:102A70000850232F342F452F562F672F782F892F5B
:102A8000902DF4CF059497958795779567955795F1
:102A90004795379527950A95AAF70F9108952A0D1E
:102AA0003B1D4C1D5D1D6E1D7F1D801F911F0895D8
:102AB0002A153B054C055D056E057F0580079107CE
:102AC00008950024A7FD00942A17300540055005FD
:102AD0006005700580059005089581E090E0F89408
:082AE0000C947215F894FFCF6D
:102AE800410046004B005000520055005A005F005C
:102AF800610063006400650069006E007100750084
:102B08008E00AA00C700F30055011B02EE02F30372
:102B180030F8BEF925FB61FCE0FC74FD6BFE49FF53
:102B280096FFD8FF00000F006100C100FA004901BC
:102B38009F02AA037E046905A406D0076608CA088E
:102B4800494E56414C494400000000000000005026
:102B58005245534554000000000000000000535443
:102B68004152540000000000000000000043414CA6
:102B78004942524154494F4E0000000049444C45D7
:102B88000000000000000000000000434F4E4445D4
:102B98004E534154494F4E0000005052454845415C
:102BA80054000000000000000050494400000000EC
:102BB800000000000000000052554E4E494E4700EC
:102BC800000000000000004552524F520000000073
:102BD8000000000000000000000029019600C0006D
:102BE8007601F100CF00E300000000002502F801A3
:102BF8005502CC01F001DC01CD0155413A000D0A26
:102C08000055523A004D6F64653A00537570706C08
:102C1800793A004C616D6264613A00436A3A006E29
:0C2C2800616E00696E66006F7666000049
:107E0000112484B714BE81FFF0D085E080938100F7
:107E100082E08093C00088E18093C10086E0809377
:107E2000C20080E18093C4008EE0C9D0259A86E02C
:107E300020E33CEF91E0309385002093840096BBD3
:107E4000B09BFECF1D9AA8958150A9F7CC24DD24C4
:107E500088248394B5E0AB2EA1E19A2EF3E0BF2EE7
:107E6000A2D0813461F49FD0082FAFD0023811F036
:107E7000013811F484E001C083E08DD089C08234E0
:107E800011F484E103C0853419F485E0A6D080C0E4
:107E9000853579F488D0E82EFF2485D0082F10E0AE
:107EA000102F00270E291F29000F111F8ED06801E7
:107EB0006FC0863521F484E090D080E0DECF843638
:107EC00009F040C070D06FD0082F6DD080E0C81688
:107ED00080E7D80618F4F601B7BEE895C0E0D1E017
:107EE00062D089930C17E1F7F0E0CF16F0E7DF06D8
:107EF00018F0F601B7BEE89568D007B600FCFDCFD4
:107F0000A601A0E0B1E02C9130E011968C91119780
:107F100090E0982F8827822B932B1296FA010C0160
:107F200087BEE89511244E5F5F4FF1E0A038BF0790
:107F300051F7F601A7BEE89507B600FCFDCF97BE46
:107F4000E89526C08437B1F42ED02DD0F82E2BD052
:107F50003CD0F601EF2C8F010F5F1F4F84911BD097
:107F6000EA94F801C1F70894C11CD11CFA94CF0C13
:107F7000D11C0EC0853739F428D08EE10CD085E9AC
:107F80000AD08FE07ACF813511F488E018D01DD067
:107F900080E101D065CF982F8091C00085FFFCCF94
:107FA0009093C60008958091C00087FFFCCF809118
:107FB000C00084FD01C0A8958091C6000895E0E648
:107FC000F0E098E1908380830895EDDF803219F02E
:107FD00088E0F5DFFFCF84E1DECF1F93182FE3DFCA
:107FE0001150E9F7F2DF1F91089580E0E8DFEE27F6
:047FF000FF270994CA
:027FFE00040479
:0400000300007E007B
:00000001FF
