:100000000C9462000C948A000C948A000C948A0070
:100010000C948A000C948A000C948A000C948A0038
:100020000C948A000C948A000C948A000C948A0028
:100030000C948A000C948A000C948A000C948A0018
:100040000C9411050C948A000C94DF040C94B904F0
:100050000C948A000C948A000C948A000C948A00F8
:100060000C945B050C948A00000000002500280019
:100070002B0000000000240027002A0000000000E0
:1000800023002600290004040404040404040202DA
:100090000202020203030303030301020408102007
:1000A0004080010204081020010204081020000012
:1000B0000008000201000003040700000000000027
:1000C00000007A0611241FBECFEFD8E0DEBFCDBFFF
:1000D00012E0A0E0B1E0E2E2F9E202C005900D9288
:1000E000AC34B107D9F724E0ACE4B2E001C01D9212
:1000F000AF33B207E1F710E0C2E6D0E004C02197C9
:10010000FE010E94EF13C136D107C9F70E94C6064F
:100110000C948F140C94000008950895AF92BF9230
:10012000CF92DF92EF92FF920F931F93CF93DF93C3
:100130006C017B018B01040F151FEB015E01AE18F2
:10014000BF08C017D10759F06991D601ED91FC9114
:100150000190F081E02DC6010995892B79F7C50141
:10016000DF91CF911F910F91FF90EF90DF90CF9093
:10017000BF90AF900895FC01538D448D252F30E042
:10018000842F90E0821B930B541710F0CF960895A4
:1001900001970895FC01918D828D981761F0A28DD1
:1001A000AE0FBF2FB11D5D968C91928D9F5F9F7397
:1001B000928F90E008958FEF9FEF0895FC01918D4D
:1001C000828D981731F0828DE80FF11D858D90E0BA
:1001D00008958FEF9FEF0895FC01918D228D892F57
:1001E00090E0805C9F4F821B91098F73992708953F
:1001F00089E693E00E94EC0021E0892B09F420E0DD
:10020000822F089580E090E0892B29F00E94F80069
:1002100081110C9400000895FC01A48DA80FB92F42
:10022000B11DA35ABF4F2C91848D90E001968F731E
:100230009927848FA689B7892C93A089B1898C913D
:10024000837080648C93938D848D981306C002888C
:10025000F389E02D80818F7D80830895EF92FF9256
:100260000F931F93CF93DF93EC0181E0888F9B8DD9
:100270008C8D98131AC0E889F989808185FF15C093
:100280009FB7F894EE89FF896083E889F9898081B6
:100290008370806480839FBF81E090E0DF91CF9185
:1002A0001F910F91FF90EF900895F62E0B8D10E0A7
:1002B0000F5F1F4F0F731127E02E8C8D8E110CC016
:1002C0000FB607FCFACFE889F989808185FFF5CF61
:1002D000CE010E940C01F1CFEB8DEC0FFD2FF11D33
:1002E000E35AFF4FF0829FB7F8940B8FEA89FB899E
:1002F00080818062CFCFCF93DF93EC01888D8823FC
:10030000B9F0AA89BB89E889F9898C9185FD03C078
:10031000808186FD0DC00FB607FCF7CF8C9185FF5D
:10032000F2CF808185FFEDCFCE010E940C01E9CF95
:10033000DF91CF910895833081F028F4813099F0D6
:100340008230A9F008958730A9F08830C9F0843050
:10035000B1F4809180008F7D03C0809180008F7701
:1003600080938000089584B58F7784BD089584B507
:100370008F7DFBCF8091B0008F778093B000089580
:100380008091B0008F7DF9CF1F93CF93DF93282FFB
:1003900030E0F901E255FF4F8491F901E656FF4F35
:1003A000D491F901EA57FF4FC491CC23A9F0162F3D
:1003B00081110E949B01EC2FF0E0EE0FFF1FE85926
:1003C000FF4FA591B4918FB7F894EC91111108C02B
:1003D000D095DE23DC938FBFDF91CF911F910895DD
:1003E000DE2BF8CFCF93DF9390E0FC01E656FF4F72
:1003F00024918A579F4FFC0184918823D1F090E08B
:10040000880F991FFC01EE58FF4FA591B491FC0194
:10041000E859FF4FC591D49161110EC09FB7F89470
:100420008C91E22FE0958E238C932881E223E88340
:100430009FBFDF91CF9108958FB7F894EC91E22B95
:10044000EC938FBFF6CF1F93CF93DF93182FEB0161
:1004500061E00E94F201209739F460E0812FDF9182
:10046000CF911F910C94C401CF3FD10511F461E0ED
:10047000F5CFE12FF0E0E255FF4FE491E33031F1A9
:1004800040F4E130B1F0E230E1F0C038D1057CF762
:10049000E4CFE73029F1E83059F1E430B1F7809149
:1004A0008000806280938000D0938B00C0938A008C
:1004B00004C084B5806884BDC7BDDF91CF911F9112
:1004C000089584B5806284BDC8BDF7CF8091800057
:1004D000806880938000D0938900C0938800EDCF1E
:1004E0008091B00080688093B000C093B300E5CFE6
:1004F0008091B00080628093B000C093B400DDCFE3
:100500008E50806480937C0080917A008064809318
:100510007A0080917A0086FDFCCF809178009091DE
:10052000790008953FB7F8948091B0029091B1029C
:10053000A091B202B091B30226B5A89B05C02F3F8F
:1005400019F00196A11DB11D3FBFBA2FA92F982FF9
:100550008827BC01CD01620F711D811D911D42E0F4
:10056000660F771F881F991F4A95D1F7089585ED6B
:100570008093BC008091BC0084FDFCCF10920403EA
:10058000089520918C02260F3327331F2132310525
:10059000ECF420910403FC0190E080E0243069F049
:1005A00082E00895A0918C022191AC0144595D4FE5
:1005B000A40FB52FB11D2C930196861798F3809147
:1005C0008C02680F60938C0280E0089581E00895AA
:1005D0000895E091BA028091B902E81730F4F0E092
:1005E000E45BFD4F808190E008958FEF9FEF0895C9
:1005F0009091BA028091B9022FEF3FEF981748F41B
:10060000E92FF0E0E45BFD4F208130E09F5F9093A5
:10061000BA02C90108958091B9029091BA02891B6A
:10062000990B0895CF92DF92EF92FF920F931F9351
:10063000CF93DF937C01CB018A01209128032223F1
:1006400089F0EB016B01C40ED51ECC15DD0569F0F8
:100650006991D701ED91FC910190F081E02DC701E6
:100660000995F3CF642F0E94C102C801DF91CF9199
:100670001F910F91FF90EF90DF90CF900895CF934F
:10068000DF931F92CDB7DEB7698320912803222321
:10069000F9F020912503203258F021E030E0FC01F0
:1006A0003383228390E080E00F90DF91CF91089513
:1006B00080912603E82FF0E0EB5FFC4F9981908357
:1006C0008F5F809326038093250381E090E0ECCF39
:1006D00061E0CE0101960E94C102F7CF90E080E078
:1006E0000895CF93DF93EC0160E08AE00E94C4019B
:1006F000DEBD00000DB407FEFDCFDEB5CEBD0000AF
:100700000DB407FEFDCFCEB561E08AE00E94C401C2
:10071000CE01DF91CF910895FC0101900020E9F70F
:100720003197AF01481B590BBC0189E693E00C944B
:100730008E008F929F92AF92BF920F931F93CF9391
:10074000DF93CDB7DEB7A1970FB6F894DEBF0FBE2B
:10075000CDBF19A2423008F44AE08E010F5D1F4F51
:10076000842E912CB12CA12CA50194010E9457112B
:10077000E62FB901CA01EA30F4F4E05DD801EE9346
:100780008D01232B242B252B79F790E080E0109707
:1007900019F0CD010E948C03A1960FB6F894DEBF2C
:1007A0000FBECDBFDF91CF911F910F91BF90AF9042
:1007B0009F908F900895E95CE1CF4F925F926F9286
:1007C0007F928F929F92AF92BF92CF92DF92EF92E1
:1007D000FF920F931F93CF936B017C01742EAC019A
:1007E0009B010E94C613882399F08AE192E0CF9181
:1007F0001F910F91FF90EF90DF90CF90BF90AF903F
:100800009F908F907F906F905F904F900C948C038F
:1008100046015701E894B7F82FEF3FEF4FE75FE746
:10082000C501B4010E94C61381110DC02FEF3FEF27
:100830004FE75FE7C501B4010E94F51118161CF4DB
:100840008EE192E0D4CF2FEF3FEF4FE75FE4C70197
:10085000B6010E94541318161CF482E292E0C7CF2E
:100860002FEF3FEF4FE75FECC701B6010E94F51194
:1008700087FDF3CF20E030E0A901C701B6010E9457
:10088000F51110E000E087FF0AC06DE289E693E011
:100890000E942E018C01F7FAF094F7F8F094C0E072
:1008A00060E070E080E09FE37C1641F020E030E003
:1008B00040E251E40E94FA11CF5FF6CFA701960102
:1008C0000E9489112B013C010E9473124B015C01B3
:1008D0004AE00E9499037C01E00EF11ECC23C1F195
:1008E000C501B4010E94A2129B01AC01C301B20177
:1008F0000E9488114B015C016EE289E693E00E9440
:100900002E01E80EF91EC15018F120E030E040E25F
:1009100051E4C501B4010E9459132B013C010E940E
:1009200073124B01B12CA12C4AE0C501B4010E9405
:100930009903E80EF91EC501B4010E94A2129B01A1
:10094000AC01C301B2010E9488114B015C01DBCFF5
:10095000C701CF911F910F91FF90EF90DF90CF9043
:10096000BF90AF909F908F907F906F905F904F90CF
:1009700008951F920F920FB60F9211242F933F9359
:100980004F935F936F937F938F939F93AF93BF9397
:10099000EF93FF9389E693E00E940C01FF91EF91A2
:1009A000BF91AF919F918F917F916F915F914F9187
:1009B0003F912F910F900FBE0F901F9018951F928F
:1009C0000F920FB60F9211242F938F939F93EF9353
:1009D000FF93E0917903F0917A038081E0917F03A6
:1009E000F091800382FD1BC09081809182038F5F14
:1009F0008F7320918303821741F0E0918203F0E02E
:100A0000E759FC4F958F80938203FF91EF919F915F
:100A10008F912F910F900FBE0F901F90189580818E
:100A2000F4CF1F920F920FB60F9211242F933F9382
:100A30008F939F93AF93BF938091C6029091C7020B
:100A4000A091C802B091C9023091AF0223E0230FF8
:100A50002D3758F50196A11DB11D2093AF0280934B
:100A6000C6029093C702A093C802B093C9028091B6
:100A7000B0029091B102A091B202B091B30201967E
:100A8000A11DB11D8093B0029093B102A093B20258
:100A9000B093B302BF91AF919F918F913F912F91EE
:100AA0000F900FBE0F901F90189526E8230F029607
:100AB000A11DB11DD2CF1F920F920FB60F9211241C
:100AC0002F933F934F935F936F937F938F939F9356
:100AD000AF93BF93EF93FF938091B900887F8036E7
:100AE00009F44AC0F0F5883209F4A7C018F580313E
:100AF00009F49BC0B8F4882309F4F9C0883009F4DC
:100B000094C0FF91EF91BF91AF919F918F917F9191
:100B10006F915F914F913F912F910F900FBE0F906A
:100B20001F901895883109F488C0803251F780935E
:100B3000020314C0803409F49DC040F48033B9F33B
:100B40008833F9F68093020385ECB0C0803509F450
:100B500085C0883509F496C0883499F60E94B7029A
:100B6000D0CF883909F48CC038F5883729F050F493
:100B7000883611F0803729F683E0809304031092C1
:100B8000AE0257C0883809F47BC0803919F080382C
:100B900009F0B7CF8091AE02803208F071C0E091C9
:100BA000AE0281E08E0F8093AE028091BB00F0E038
:100BB000E257FD4F80833DC0803B39F0E0F4803A3E
:100BC00009F479C0883A09F09CCF84E0809304034B
:100BD00010928D0210928C02E091B702F091B8024F
:100BE000099580918C0281110FC081E080938C0265
:100BF00010926C0209C0803C09F4A6CF883C09F42D
:100C0000A3CF883B09F07DCFE0918D0281E08E0F6C
:100C100080938D02F0E0E459FD4F80818093BB000A
:100C200090918D0280918C0229C08091DF02809387
:100C3000BB0085EC8093BC0064CF90910103809150
:100C40000003981758F5E091010381E08E0F80931F
:100C50000103F0E0E052FD4F8081E9CFE091010314
:100C600081E08E0F809301038091BB00F0E0E052A1
:100C7000FD4F808390910103809100039817C8F283
:100C800085E8D8CFE091010381E08E0F80930103C6
:100C90008091BB00F0E0E052FD4F80838091030320
:100CA00081115CCF81E08093DE0284EA8093BC00F6
:100CB0001092040326CF85EC8093BC0010920403AD
:100CC0008091AE02803230F4E091AE02F0E0E25763
:100CD000FD4F10826091AE0270E0E091B502F0919C
:100CE000B6028EE892E009951092AE020ACF1092F9
:100CF000020334CFE9E6F3E01382128288EE93E038
:100D0000A0E0B0E084839583A683B7832AEF31E027
:100D10003183208325EC30E03587248724EC30E0D4
:100D20003787268720EC30E0318B208B21EC30E0B8
:100D3000338B228B22EC30E0358B248B26EC30E099
:100D4000378B268B118E128E138E148EE6E0F4E014
:100D50001382128284839583A683B7838CE092E00A
:100D600091838083E2E1F4E0168E158E10A2178E37
:100D700011A212A213A214A215A216A217A210A6C3
:100D800011A612A613A614A6148E0895CF93DF936E
:100D9000CDB7DEB72F970FB6F894DEBF0FBECDBF2D
:100DA000789484B5826084BD84B5816084BD85B546
:100DB000826085BD85B5816085BD80916E00816052
:100DC00080936E00109281008091810082608093F8
:100DD00081008091810081608093810080918000FA
:100DE0008160809380008091B10084608093B10025
:100DF0008091B00081608093B00080917A0084601F
:100E000080937A0080917A00826080937A0080914A
:100E10007A00816080937A0080917A008068809364
:100E20007A001092C100E1E3F3E08DE2DF011D9250
:100E30008A95E9F7EEE5F3E08BE0DF011D928A95F4
:100E4000E9F7E9E2F3E088E0DF011D928A95E9F72E
:100E5000E7EDF2E086E0DF011D928A95E9F74BE0CD
:100E600050E070E060E08BEB92E00E943C1161E0AA
:100E70008AE00E94F20161E087E00E94F20161E0F5
:100E800085E00E94F20161E086E00E94F20161E0EB
:100E900083E00E94F20160E080E10E94F20184E0C0
:100EA000809381008CE08093B80061E08AE00E942A
:100EB000C40160E087E00E94C40160E085E00E9418
:100EC000C40160E086E00E94C40160E083E00E940B
:100ED000C4011092300410922F0410923204109228
:100EE000310410923304109234041092350410929D
:100EF000360410923704109238041092390410927C
:100F00003A0410923B0410923C0410923D0410925B
:100F10003E0410922E0480E091E1A0E0B0E08093C6
:100F2000120490931304A0931404B093150487E063
:100F300090E0A0E0B0E08093160490931704A09393
:100F40001804B093190480E096E4A0E0B0E0809328
:100F50001A0490931B04A0931C04B0931D041092D8
:100F60001E048FEF80931F0410922004109221041E
:100F7000109222041092230410922404109225044B
:100F8000109226041092270410922804109229042B
:100F900010922A0410922B0410922C0410922D040B
:100FA000EFB6E982F8948091B402811127C0E0E99C
:100FB000F0E08491E4EAF0E09491E82FF0E0EE0FA5
:100FC000FF1FEE58FF4FA591B491EC91E92321F456
:100FD00061E08AE00E94C40161E08AE00E94F201BF
:100FE0008CB580618CBD8CB580648CBD61E08DE07A
:100FF0000E94F20161E08BE00E94F2018091B40254
:101000008F5F8093B402F980FFBE8CB58C7F8160C6
:101010008CBD8DB581608DBD8CB58F7D8CBD8CB543
:10102000837F84608CBD1092BA021092B902109234
:101030002603109225031092040381E0809303039A
:101040001092DE0261E082E10E94C40161E083E16E
:101050000E94C4018091B9008E7F8093B900809175
:10106000B9008D7F8093B90088E48093B80085E44F
:101070008093BC008CE890E09093B8028093B70214
:101080008DE890E09093B6028093B502E0917903E9
:10109000F0917A0382E08083E0917503F09176030A
:1010A0001082E0917703F091780380E180831092C1
:1010B0008103E0917D03F0917E0386E08083E091DF
:1010C0007B03F0917C03808180618083E0917B03CE
:1010D000F0917C03808188608083E0917B03F091B4
:1010E0007C03808180688083E0917B03F0917C03A6
:1010F00080818F7D80830E9492024B015C01BAEF58
:10110000CB2ED12CE12CF12C0E9492026819790986
:101110008A099B09683E734081059105A8F301E0A7
:10112000C01AD108E108F10818EE810E13E0911EF3
:10113000A11CB11CC114D104E104F10429F78EE013
:101140000E94800290936303809362038FE00E9469
:101150008002909365038093640385E10E9480027E
:1011600090935F0380935E0384E10E9480029093DA
:10117000610380936003EEEBF0E08491EAEAF0E033
:10118000E490E982E6E9F0E0F490FD82FF2089F046
:1011900081110E949B010D81E02FF0E0EE0FFF1FF7
:1011A000E458FF4FA591B491EC9119811E2381E081
:1011B00009F480E0809366032FB7F8948091C6020B
:1011C0009091C702A091C802B091C9022FBF80932D
:1011D000340390933503A0933603B0933703A09163
:1011E0006403B091650328E833E10E94F5132FEF03
:1011F00033E040E050E00E945711309352032093B7
:10120000510379ECE72E74E0F72EE21AF30AF0921C
:101210004D03E0924C03A0916203B09163032EE86A
:1012200032E60E94F5132FEF33E040E050E00E94D9
:1012300057112E0D3F1D30934F0320934E03245022
:1012400039422536394108F468C1809150038F5FD7
:101250008093500390913103833008F460C1109261
:101260005003913009F06FC181E08093310384E62F
:1012700090E090935D0380935C038EE997E09093F8
:101280002C0380932B0389E780932A031092290370
:1012900010923003109233031092320310925803CD
:1012A0001092570310925A0310925903109254034C
:1012B00010925303109255031092560310925B0341
:1012C00080914E0390914F03895F9A428B379541ED
:1012D00050F48091CA028F5F8093CA028A3028F04E
:1012E00082E0809331031092CA026091290370E07A
:1012F00086E00E94230260912A0370E083E00E944E
:10130000230260912F0387E00E94C40160913003A3
:1013100085E00E94C401E0902B03F0902C0381E053
:101320008093280380E6809327031092260310926F
:10133000250360E486E094E00E943F03B70184E067
:10134000769567958A95E1F786E094E00E943F03E1
:10135000B70194E0660F771F9A95E1F786E094E075
:101360000E943F0390912503913208F03FC0809185
:1013700004038111FCCF82E08093040381E0809319
:1013800003038FEF809302031092010390930003F5
:10139000A5E0B3E0E0EEF2E080E0981349C71092D8
:1013A000DF028091DF02806C8093DF028091DE0299
:1013B000813009F041C71092DE028091DF028093F4
:1013C000BB008091BC0083FDF8CF85EC8093BC000E
:1013D000809104038230E1F3809102038F3F31F06A
:1013E00080910203803211F0809102031092260353
:1013F00010922503109228038091340390913503B5
:10140000A0913603B09137034091440350914503B6
:101410006091460370914703841B950BA60BB70B95
:1014200086399105A105B10508F46AC09091310390
:10143000913029F480912F03892780932F0381E332
:1014400092E00E948C03809131030FE0809FC001E5
:101450001124805A9E4F0E948C038AE292E00E94DF
:101460008C0387E392E00E948C0360914E0370919D
:101470004F03072E000C880B990B0E94A41220E04A
:1014800030E04AE754E40E94FA1142E00E94DD0392
:101490008AE292E00E948C0380915303909154035E
:1014A00098728F3F984209F0C9C68FE392E00E947C
:1014B0008C0360915C0370915D03072E000C880B18
:1014C000990B0E94A41220E030E048EC52E40E9404
:1014D000FA1142E00E94DD038AE292E00E948C034E
:1014E0008091340390913503A0913603B091370376
:1014F0008093440390934503A0934603B09347031E
:1015000080E090E0892B09F41ACE0E94F80088232D
:1015100009F415CE0E94000012CE10925003E09103
:101520003103E150E93008F050C2F0E0E656F54FE3
:101530000C94EF133409A70AC40A890BDC0B510C75
:10154000E50CFF0CCB1081E080933103E8CF82E003
:101550008093310380E098E70E94710390935403D5
:101560008093530398728F3F984259F48091CB0235
:101570008F5F8093CB028A3008F4B7CE83E08093EC
:1015800031031092CB02B1CE83E08093310380917E
:1015900055038130C9F08DE996E50E94710381E021
:1015A000809355031092CC028091340390913503BF
:1015B000A0913603B091370380933C0390933D0391
:1015C000A0933E03B0933F03809134039091350381
:1015D000A0913603B091370340913C0350913D03F5
:1015E00060913E0370913F03841B950BA60BB70BD4
:1015F00086399105A105B10508F477CE20915E03E7
:1016000030915F03C90187599109893F910548F5D8
:101610006091600370916103CB018759910985390D
:101620009105F8F48091CC024091570350915803F2
:10163000420F531F5093580340935703209159036F
:1016400030915A03260F371F30935A0320935903C2
:1016500090912F0321E0922790932F038F5F809327
:10166000CC028091CC028A3008F442C080915703AA
:10167000909158032AE030E0B9010E94DB13709387
:101680005803609357038091590390915A03B9010D
:101690000E94DB1370935A036093590381E0809397
:1016A0002F0384E08093310386E292E00E948C0352
:1016B000609157037091580390E080E04AE00E94E7
:1016C00099038AE292E00E948C038DE292E00E94EC
:1016D0008C036091590370915A0390E080E04AE0D6
:1016E0000E9499038AE292E00E948C031092CC023D
:1016F0008091340390913503A0913603B091370364
:1017000080933C0390933D03A0933E03B0933F032B
:10171000ECCD84E080933103809155038230B9F0A1
:1017200088E896E50E94710382E0809355038091DA
:10173000340390913503A0913603B0913703809321
:10174000CD029093CE02A093CF02B093D0024091ED
:1017500034035091350360913603709137038091C3
:10176000CD029091CE02A091CF02B091D0027A0129
:101770008B01E81AF90A0A0B1B0BD801C7018A3F33
:101780009105A105B10570F08091300391E08927A2
:10179000809330034093CD025093CE026093CF02EA
:1017A0007093D0028091660381119FCD85E0809374
:1017B00031031092300399CD85E080933103C090BE
:1017C0003403D0903503E0903603F09037039091C6
:1017D0005B03953091F080935B03C092D102D0926D
:1017E000D202E092D302F092D402C0923803D09297
:1017F0003903E0923A03F0923B0320914E0330917B
:101800004F03032E000C440B550B64E276ED85E08C
:1018100090E00E945711233208F03FC02093290323
:101820008091380390913903A0913A03B0913B0322
:1018300097018601081B190B2A0B3B0BD901C80124
:1018400080379741A105B10518F086E080933103F8
:101850008091D1029091D202A091D302B091D40292
:10186000A7019601281B390B4A0B5B0BDA01C90152
:1018700084369105A105B10508F437CD8091300378
:1018800091E0892780933003C092D102D092D20296
:10189000E092D302F092D40228CD82E28093290311
:1018A000BFCF86E080933103C0903403D0903503DE
:1018B000E0903603F090370390915B039630D1F1BE
:1018C00080935B03C0923803D0923903E0923A03CD
:1018D000F0923B03C0924003D0924103E092420356
:1018E000F092430300914E0310914F031A83098332
:1018F0004801110FAA08BB0860EC70E28FE190E08C
:10190000A50194010E945711122F60E77EE881E043
:1019100090E0A50194010E9457112093D6022981DD
:101920003A81283C32430CF054C08FEF8093D502AB
:10193000109329038091380390913903A0913A03C1
:10194000B0913B0397018601081B190B2A0B3B0B37
:10195000D901C801883E9340A105B10510F18091DD
:10196000300391E08927809330038091290390917F
:10197000D502891758F4409160035091610320917A
:10198000590330915A034217530770F588E080934A
:101990003103C0923803D0923903E0923A03F092B7
:1019A0003B038091380390913903A0913A03B091A1
:1019B0003B03C81AD90AEA0AFB0A28E9C2162AE335
:1019C000D206E104F10408F490CC81E08093310365
:1019D0008CCC68E375E982E390E0A50194010E9454
:1019E00057112093D502A4CF2091D602820F9817C9
:1019F00018F080932903CDCF90932903CACF88E0B4
:101A00008093310380915B03873019F087E08093E6
:101A10005B0380915503823039F088E896E50E9497
:101A2000710382E0809355038091340390913503D4
:101A3000A0913603B091370389879A87AB87BC871B
:101A40008091380390913903A0913A03B0913B0300
:101A5000E984FA840B851C85E81AF90A0A0B1B0B2A
:101A6000D801C7010A97A105B10508F499C1809171
:101A70005B03873009F066C22090600330906103F9
:101A80002101032C000C660877088091590390917E
:101A90005A03092E000CAA0BBB0B481A590A6A0AF2
:101AA0007B0A209112043091130440911404509148
:101AB0001504211531054105510509F407C2C3017B
:101AC000B2010E94CB1369837A838B839C8300913C
:101AD000160410911704209118043091190401156F
:101AE00011052105310509F425C258016901E12CD0
:101AF000F12C00E010E09201A301D301C201BB0F61
:101B0000880B982FDC018D839E83AF83B8876D810E
:101B1000762F862F962F0E94FC13A0903304B0904E
:101B20003404C0903504D0903604E0903704F0902F
:101B300038040091390410913A040E94711479011B
:101B40008A012F3FEFEF3E074E07EFE75E07610583
:101B500071058105910509F00CF4BDC18FEF8093EB
:101B6000330480933404809335048FE780933604E4
:101B700010923704109238041092390410923A04EB
:101B8000E0903304F0903404009135041091360451
:101B900060911A0470911B0480911C0490911D04A3
:101BA000611571058105910509F4C8C180903B0458
:101BB00090903C04A0903D04B0903E04A30192019B
:101BC000281939094A095B0949015A0140912F0432
:101BD00050913004D101A41BB50B9D01BB0F440BE8
:101BE000550B3092300420922F0440923B045092C7
:101BF0003C0460923D0470923E04821A930AA40A47
:101C0000B50A8114B0E89B06BFEFAB06BB0634F4FF
:101C1000812CF0E89F2EAA24AA94BA2CA501940145
:101C20002115E0E83E074105510524F02FEF3FE77D
:101C300040E050E00E94CB132B013C0189809A8048
:101C4000AB80BC80BB0C8808982C5401A80197017C
:101C5000550F220B322FA9012D833E834F835887C6
:101C600029813A814B815C81682D782D882D982DB2
:101C700057016801ED80FE2C0E2D1E2D0E9471145F
:101C800083017201110FEE08FE2C8701E982FA82AE
:101C90000B831C8352016301E980FE2C0E2D1E2D47
:101CA0000E94711419012A013B0189839D83E091EF
:101CB0001E0480901F0490902004A0912104AF87FF
:101CC000B0912204BD87B0912304A0912404F09127
:101CD0002504AE2EB82CC92CDF84ED84FB2E0A2FF0
:101CE0001F2F0E947A1409F054F5E0912604809089
:101CF000270490902804F0912904FF87A0912A04DA
:101D0000AD87B0912B04A0912C04F0912D042E2FBF
:101D1000382D492D5F856D857B2F8A2F9F2F51018F
:101D20006201730109811D810E947A1444F4E22D3D
:101D3000832C942C5F866D86B72DA02FF12F2E2F2C
:101D4000382D492D5F856D857B2F8A2F9F2F08E0C9
:101D50000E94541429833A832E2F207830E040E0EB
:101D600050E060E070E080E090E0A0E00E9483142A
:101D700029F0E981FA813196FA83E983F981F093B8
:101D8000290381E080933003E984FA840B851C8564
:101D9000E0923803F092390300933A0310933B0327
:101DA00080913C0390913D03A0913E03B0913F038D
:101DB00009851A852B853C85081B190B2A0B3B0BC3
:101DC000D901C8014197A105B10508F48ECA80E088
:101DD00098E70E9471039093540380935303987281
:101DE0008F3F984209F4B3C0809156038F5F809370
:101DF0005603833058F084E090E09093540380932E
:101E0000530389E08093310310925603809131038C
:101E1000893009F44BC060915E0370915F03E090DC
:101E20005703F0905803FA82E9826E157F0509F096
:101E300095C084E690E090935D0380935C03A4E6F4
:101E4000B0E0A938B10514F0A8E8B0E02AEF36E117
:101E50000E94F51324E630E040E050E00E94571164
:101E600069017A01AFEFB0E00E944C1164557E49E0
:101E70008D40910928E833E140E050E00E9457117D
:101E800020932A03AFEFBFE0A70196010E944C11F7
:101E90006455724B8A4D910928E833E140E050E0E7
:101EA0000E94571130932C0320932B0390916603CB
:101EB000913009F06DC18091DD028F5F8093DD026A
:101EC000833008F415CC9093310312CC19821A8216
:101ED0001B821C82FCCD211531054105E0E85E071F
:101EE000EFEF6E077E078E079E078CF0209333047A
:101EF000F092340440933504109336046093370411
:101F0000709338048093390490933A0439CE109238
:101F10003304109234041092350480E88093360420
:101F20008FEF809337048093380480933904809333
:101F30003A0426CEE12CF12C87012ACE412C512CDB
:101F400032017CCE10922903109230031DCF82E023
:101F500090E0909354038093530356CF072E000CC8
:101F6000880B990B0E94A41220E030E040EA50E474
:101F70000E94591320E030EC4FE754E40E94FA111C
:101F80006B017C0109811A81B80190E080E00E9418
:101F9000A21220E030E040EA50E40E94591320E011
:101FA00030EC4FE754E40E94FA119B01AC01C701E9
:101FB000B6010E94881120915503C12CD12C48E80C
:101FC000E42E41E4F42E223029F4C12CD12CE12C52
:101FD00031E4F32E20E030E04AE754E40E94591344
:101FE0004B015C012AE939E947E752E4C701B60130
:101FF0000E9459139B01AC01C501B4010E94FA1162
:1020000020E030E04AE754E40E9459130E946C1229
:102010008B017093D8026093D702613328EF720767
:102020000CF423C16A3C38E073070CF015C120E0C2
:10203000222E21E0322E40E351E05A874987C12CFD
:10204000D12C7601CB01770FAA0BBB0B8D839E831E
:10205000AF83B887A985BA85ED91FD91BA87A98725
:10206000FA83E9830E171F0771F5D1016D917C91F9
:10207000072E000C880B990B0E94A4126B017C01A7
:10208000F2E02F0E311C2EE531E049855A852417E8
:10209000350749F020E030E0A901C701B6010E94F0
:1020A000F5118823B9F2C701B6010E946C12DB0159
:1020B00070935D0360935C03643471050CF0C1CED2
:1020C000A4E4B0E0C3CEE981FA810E171F07C4F281
:1020D000A985BA856D917C91601771078CF2072EE6
:1020E000000C880B990B0E94A4122B013C01F101FA
:1020F00062817381072E000C880B990B0E94A41239
:102100004B015C01D1016D917C91072E000C880B75
:10211000990B0E94A4129B01AC01C501B4010E945D
:1021200088116B017C01E981FA81BF01FF0F880BE7
:10213000990B0E94A4129B01AC01C301B2010E9441
:1021400088119B01AC01C701B6010E94FA116B0115
:102150007C01AC019B01C301B2010E9459139B0198
:10216000AC01C501B4010E9488114B015C016D8175
:102170007E818F8198850E94A412A70196010E94FA
:1021800059139B01AC01C501B4010E94891176CF9E
:102190001092DD02ADCA84E690E090935D038093D7
:1021A0005C038EE997E090932C0380932B0389E7DF
:1021B00080932A03109229034091340350913503F0
:1021C00060913603709137038091480390914903E1
:1021D000A0914A03B0914B037A018B01E81AF90AE6
:1021E0000A0B1B0BD801C701843F9140A105B10523
:1021F000C8F08091530390915403049759F490913F
:102200002F0321E0922790932F03809130038227A0
:1022100080933003409348035093490360934A03EB
:1022200070934B0380916603813009F05EC8CDCB7B
:102230002D9121938F5FB1C885EEC8C887E492E0E5
:102240000E948C03609153037091540390E080E0EE
:1022500040E10E94990340C983EF93E090935D03AE
:1022600080935C03A3EFB3E0ECCD81E490E0909326
:102270005D0380935C0324CFDC01CB01FC01F99961
:10228000FECF06C0F2BDE1BDF89A319600B40D92C2
:1022900041505040B8F708950E947911A59F900DC4
:1022A000B49F900DA49F800D911D11240895A1E26B
:1022B0001A2EAA1BBB1BFD010DC0AA1FBB1FEE1FC0
:1022C000FF1FA217B307E407F50720F0A21BB30B0B
:1022D000E40BF50B661F771F881F991F1A9469F787
:1022E00060957095809590959B01AC01BD01CF01E3
:1022F0000895A29FB001B39FC001A39F700D811DDF
:102300001124911DB29F700D811D1124911D0895FE
:102310005058BB27AA270E94A0110C941A130E94A0
:102320000C1338F00E94131320F039F49F3F19F476
:1023300026F40C9409130EF4E095E7FB0C940313B8
:10234000E92F0E942B1358F3BA176207730784070B
:10235000950720F079F4A6F50C944D130EF4E09552
:102360000B2EBA2FA02D0B01B90190010C01CA014F
:10237000A0011124FF27591B99F0593F50F4503EFA
:1023800068F11A16F040A22F232F342F4427585FEC
:10239000F3CF469537952795A795F0405395C9F704
:1023A0007EF41F16BA0B620B730B840BBAF09150BC
:1023B000A1F0FF0FBB1F661F771F881FC2F70EC05B
:1023C000BA0F621F731F841F48F48795779567952E
:1023D000B795F7959E3F08F0B0CF9395880F08F01A
:1023E0009927EE0F9795879508950E94DF1208F4BC
:1023F00081E008950E940E120C941A130E94131388
:1024000058F00E940C1340F029F45F3F29F00C941F
:10241000031351110C944E130C9409130E942B13A7
:1024200068F39923B1F3552391F3951B550BBB2703
:10243000AA2762177307840738F09F5F5F4F220F48
:10244000331F441FAA1FA9F335D00E2E3AF0E0E83F
:1024500032D091505040E695001CCAF72BD0FE2F89
:1024600029D0660F771F881FBB1F2617370748071D
:10247000AB07B0E809F0BB0B802DBF01FF279358D5
:102480005F4F3AF09E3F510578F00C9403130C9483
:102490004E135F3FE4F3983ED4F3869577956795A6
:1024A000B795F7959F5FC9F7880F911D969587950A
:1024B00097F90895E1E0660F771F881FBB1F621729
:1024C00073078407BA0720F0621B730B840BBA0BE7
:1024D000EE1F88F7E09508950E9473126894B11179
:1024E0000C944E1308950E94331388F09F5798F070
:1024F000B92F9927B751B0F0E1F0660F771F881F09
:10250000991F1AF0BA95C9F714C0B13091F00E9422
:102510004D13B1E008950C944D13672F782F882741
:10252000B85F39F0B93FCCF3869577956795B39549
:10253000D9F73EF490958095709561957F4F8F4FB8
:102540009F4F0895E89409C097FB3EF490958095BD
:10255000709561957F4F8F4F9F4F9923A9F0F92F69
:1025600096E9BB279395F695879577956795B795E7
:10257000F111F8CFFAF4BB0F11F460FF1BC06F5FCD
:102580007F4F8F4F9F4F16C0882311F096E911C0DF
:10259000772321F09EE8872F762F05C0662371F000
:1025A00096E8862F70E060E02AF09A95660F771F14
:1025B000881FDAF7880F9695879597F90895990FF0
:1025C0000008550FAA0BE0E8FEEF16161706E807FD
:1025D000F907C0F012161306E407F50798F0621B1E
:1025E000730B840B950B39F40A2661F0232B242BF3
:1025F000252B21F408950A2609F4A140A6958FEF12
:10260000811D811D089597F99F6780E870E060E063
:1026100008959FEF80EC089500240A94161617067B
:1026200018060906089500240A94121613061406C3
:1026300005060895092E0394000C11F4882352F026
:10264000BB0F40F4BF2B11F460FF04C06F5F7F4FDE
:102650008F4F9F4F089557FD9058440F551F59F0C5
:102660005F3F71F04795880F97FB991F61F09F3F7F
:1026700079F087950895121613061406551FF2CFA8
:102680004695F1DF08C0161617061806991FF1CFF8
:1026900086957105610508940895E894BB2766271F
:1026A0007727CB0197F908950E94DF1208F48FEF86
:1026B00008950E946C130C941A130E940C1338F0A6
:1026C0000E94131320F0952311F00C9403130C9423
:1026D000091311240C944E130E942B1370F3959F31
:1026E000C1F3950F50E0551F629FF001729FBB2709
:1026F000F00DB11D639FAA27F00DB11DAA1F649FA5
:102700006627B00DA11D661F829F2227B00DA11D57
:10271000621F739FB00DA11D621F839FA00D611DDD
:10272000221F749F3327A00D611D231F849F600DFE
:10273000211D822F762F6A2F11249F5750409AF027
:10274000F1F088234AF0EE0FFF1FBB1F661F771FB3
:10275000881F91505040A9F79E3F510580F00C947E
:1027600003130C944E135F3FE4F3983ED4F3869525
:1027700077956795B795F795E7959F5FC1F7FE2B1E
:10278000880F911D9695879597F908950E94DF12FD
:10279000880B990B0895DB018F939F930E944C1136
:1027A000BF91AF91A29F800D911DA39F900DB29FED
:1027B000900D11240895AA1BBB1B51E107C0AA1F4D
:1027C000BB1FA617B70710F0A61BB70B881F991FD2
:1027D0005A95A9F780959095BC01CD010895EE0F0B
:1027E000FF1F0590F491E02D09940E947911B7FF25
:1027F0000895821B930B0895DF93CF931F930F933C
:102800009A9DF02D219FF00D8B9DF00D8A9DE02D5E
:10281000F10D039FF00D029FE00DF11D4E9DE00DA7
:10282000F11D5E9DF00D4F9DF00D7F936F93BF9254
:10283000AF925F934F93D5010E9479118B01AC0148
:10284000D7010E947911EB01E80FF91FD6010E9410
:102850004B142F913F91D6010E947911C60FD71FBB
:10286000E81FF91FAF91BF910E944B142F913F9128
:102870000E947911C60FD71FE81FF91FD6010E94C9
:102880007911E60FF71F9801BE01CF010F911F913B
:10289000CF91DF9108950E947911460F571FC81FED
:1028A000D91F08F43196089597FD1094002E083032
:1028B00098F00850232F342F452F562F672F782F4D
:1028C000892F912DF4CF15949795879577956795D6
:1028D00057954795379527950A95AAF71124002D06
:1028E00008952A0D3B1D4C1D5D1D6E1D7F1D801F13
:1028F000911F08952A153B054C055D056E057F0562
:102900008007910708950024A7FD00942A17300539
:102910004005500560057005800590050895F89400
:02292000FFCFE7
:10292200410046004B005000520055005A005F0023
:10293200610063006400650069006E00710075004B
:102942008E00AA00C700F30055011B02EE02F3033A
:1029520030F8BEF925FB61FCE0FC74FD6BFE49FF1B
:1029620096FFD8FF00000F006100C100FA00490184
:102972009F02AA037E046905A406D0076608CA0856
:10298200494E56414C4944000000000000000050EE
:10299200524553455400000000000000000053540B
:1029A2004152540000000000000000000043414C6E
:1029B2004942524154494F4E0000000049444C459F
:1029C2000000000000000000000000434F4E44459C
:1029D2004E534154494F4E00000050524548454124
:1029E20054000000000000000050494400000000B4
:1029F200000000000000000052554E4E494E4700B4
:102A0200000000000000004552524F52000000003A
:102A1200000000000000000000002E018E00BB003C
:102A22007B01EC00CA00DE00000000003F0312033D
:102A32006E03E8020B03F802E9026E616E00696E32
:102A420066006F76660055413A000D0A0055523A0B
:102A5200004D6F64653A00537570706C793A004CA2
:0C2A6200616D6264613A00436A3A000052
:00000001FF
