:100000000C946C000C9494000C9494000C94940048
:100010000C9494000C9494000C9494000C94940010
:100020000C9494000C9494000C9494000C94940000
:100030000C9494000C9494000C9494000C949400F0
:100040000C94FF060C9494000C948A020C946402A5
:100050000C9494000C9494000C9494000C949400D0
:100060000C94BC020C9494007210C009070A240A74
:10007000D90A2C0B9E0B7210490C231000000000B3
:10008000240027002A0000000000250028002B0083
:1000900000000000230026002900040404040404D6
:1000A0000404020202020202030303030303010227
:1000B00004081020408001020408102001020408F6
:1000C00010200000000800020100000304070000E7
:1000D000000000000000361111241FBECFEFD8E051
:1000E000DEBFCDBF12E0A0E0B1E0ECEBF9E202C070
:1000F00005900D92AC34B107D9F724E0ACE4B2E03E
:1001000001C01D92AF33B207E1F710E0CCE6D0E0BA
:1001100004C02197FE010E943514CB36D107C9F7E0
:100120000E9449070C94DC140C940000CF92DF92DB
:10013000EF92FF920F931F93CF93DF936C017A019D
:100140008B01C0E0D0E0CE15DF0581F0D8016D91C4
:100150008D01D601ED91FC910190F081E02DC60159
:100160000995892B11F02196EECF7E01C701DF9111
:10017000CF911F910F91FF90EF90DF90CF90089556
:10018000FC01538D448D252F30E0842F90E0821B9D
:10019000930B541710F0CF96089501970895FC0122
:1001A000918D828D981761F0828DDF01A80FB11DAE
:1001B0005D968C91928D9F5F9F73928F90E00895D2
:1001C0008FEF9FEF0895FC01918D828D981731F08C
:1001D000828DE80FF11D858D90E008958FEF9FEFE0
:1001E0000895FC01918D228D892F90E0805C9F4FB6
:1001F000821B91098F739927089584E693E00E94EA
:10020000F10021E0892B09F420E0822F0895FC0100
:10021000848DDF01A80FB11DA35ABF4F2C91848D8F
:1002200090E001968F739927848FA689B7892C93C4
:10023000A089B1898C91837080648C93938D848D17
:10024000981306C00288F389E02D80818F7D80831A
:100250000895EF92FF920F931F93CF93DF93EC01DA
:1002600081E0888F9B8D8C8D981305C0E889F98972
:10027000808185FD26C0F62E0B8D10E00F5F1F4F8D
:100280000F731127E02E8C8DE8120CC00FB607FCFF
:10029000FACFE889F989808185FFF5CFCE010E94E8
:1002A0000701F1CF8B8DFE01E80FF11DE35AFF4FDF
:1002B000F0829FB7F8940B8FEA89FB898081806276
:1002C0000AC09FB7F894EE89FF896083E889F989AD
:1002D00080818370806480839FBF81E090E0DF91A4
:1002E000CF911F910F91FF90EF900895CF93DF93DF
:1002F000EC01888D8823C9F0EA89FB89808185FD1E
:1003000005C0A889B9898C9186FD0FC00FB607FC7E
:10031000F5CF808185FFF2CFA889B9898C9185FFBF
:10032000EDCFCE010E940701E7CFDF91CF91089575
:1003300080E090E0892B29F00E94FD0081110C944F
:100340000000089585ED8093BC008091BC0084FD81
:10035000FCCF10925202089540911903262F30E0ED
:10036000240F311D21323105DCF42091520224305A
:10037000C9F4FC0180E090E0861758F4309119032D
:100380002191DC01A750BD4FA30FB11D2C93019605
:10039000F3CF80911903680F6093190380E00895EB
:1003A00081E0089582E00895089508950895E09108
:1003B000560280915502E81730F4F0E0E752FD4F05
:1003C000808190E008958FEF9FEF089590915602FD
:1003D00080915502981750F4E92FF0E0E752FD4F55
:1003E000208130E09F5F9093560202C02FEF3FEFD5
:1003F000C90108958091550290E020915602821B18
:1004000091090895CF92DF92EF92FF920F931F937D
:10041000CF93DF937C01CB018A012091D802222364
:1004200089F0EB016B01C40ED51ECC15DD0569F01A
:100430006991D701ED91FC910190F081E02DC70108
:100440000995F3CF642F0E94AC01C801DF91CF91D1
:100450001F910F91FF90EF90DF90CF900895CF9371
:10046000DF931F92CDB7DEB769832091D802222394
:10047000D1F020915302203240F021E030E0FC0125
:100480003383228380E090E015C080915402E82FEE
:10049000F0E0E854FD4F998190838F5F8093540280
:1004A0008093530205C061E0CE0101960E94AC0129
:1004B00081E090E00F90DF91CF910895089580E062
:1004C00090E008950E94D7141F920F920FB60F92DA
:1004D00011242F933F934F935F936F937F938F9349
:1004E0009F93AF93BF93EF93FF9384E693E00E94B3
:1004F0000701FF91EF91BF91AF919F918F917F91F4
:100500006F915F914F913F912F910F900FBE0F9080
:100510001F9018951F920F920FB60F9211242F93D0
:100520008F939F93EF93FF93E0917403F091750382
:100530008081E0917A03F0917B0382FD12C090816B
:1005400080917D038F5F8F7320917E03821751F01E
:10055000E0917D03F0E0EC59FC4F958F80937D0393
:1005600001C08081FF91EF919F918F912F910F900A
:100570000FBE0F901F9018951F920F920FB60F92FB
:1005800011242F933F934F935F936F937F938F9398
:100590009F93AF93BF93EF93FF938091B900887FB0
:1005A000803609F49CC068F5883209F45BC090F489
:1005B000803109F454C038F4882309F4F6C0883037
:1005C00009F44DC0F6C0883109F44CC0803209F4FA
:1005D0005DC0EFC0803409F468C048F4803309F48A
:1005E00055C0883309F0E5C080933C03D8C08035FE
:1005F00009F44FC0883509F45DC0883409F0D9C0CA
:10060000D6C0883909F4C7C0A8F4883709F467C090
:1006100038F4883609F463C0803709F460C0C9C073
:10062000883809F4B8C0803909F45FC0803809F00F
:10063000C0C05BC0803B09F486C038F4803A09F43E
:1006400066C0883A09F47FC0B4C0803C09F4A7C0F2
:10065000883C09F4A4C0883B09F48AC0AAC08091F0
:100660005F0310C090915E0380915D03981770F551
:10067000E0915E0381E08E0F80935E03F0E0E35C27
:10068000FC4F80818093BB0085EC86C080933C0347
:100690008EC0E0915E0381E08E0F80935E038091B7
:1006A000BB00F0E0E35CFC4F808390915E0380919F
:1006B0005D036EC0E0915E0381E08E0F80935E0368
:1006C0008091BB00F0E0E35CFC4F8083809151029D
:1006D00081116DC081E08093500284EA61C083E0A3
:1006E0008093520210923B03CFCF80913B03803224
:1006F00008F051C0E0913B0381E08E0F80933B03F3
:100700008091BB00F0E0E55EFC4F8083BDCF85ECBF
:100710008093BC001092520280913B03803230F4EF
:10072000E0913B03F0E0E55EFC4F108260913B03FB
:1007300070E0E0914C02F0914D028BE193E009955D
:1007400010923B0336C084E08093520210921A0349
:1007500010921903E0914E02F0914F020995809199
:100760001903811105C081E0809319031092F902E9
:10077000E0911A0381E08E0F80931A03F0E0E750B6
:10078000FD4F80818093BB0090911A0380911903E3
:10079000981708F479CF85E88093BC000AC085ECEF
:1007A0008093BC001092520204C010923C030E943D
:1007B000A201FF91EF91BF91AF919F918F917F9196
:1007C0006F915F914F913F912F910F900FBE0F90BE
:1007D0001F9018950F931F93CF93C82F8B0181E023
:1007E0008093D802C093B702109254021092530221
:1007F00060E481E094E00E942F02B80184E07695E5
:1008000067958A95E1F781E094E00E942F02B80194
:1008100094E0660F771F9A95E1F781E094E00E94DB
:100820002F0290915302913208F045C080915202FC
:100830008111FCCF82E08093520281E080935102CB
:100840008FEF80933C0310925E0390935D03A8EBBF
:10085000B2E0EDE3F3E080E0981721F02D912193D1
:100860008F5FFACF10925F0380915F03CC0FC82B8C
:10087000C0935F0380915002813061F41092500266
:1008800080915F038093BB008091BC0083FDF8CF13
:1008900085EC01C085EE8093BC00809152028230CD
:1008A000E1F380913C038F3F31F080913C03803233
:1008B00011F080913C031092540210925302109256
:1008C000D802CF911F910F910895CF93DF93EC0140
:1008D00060E08AE00E94F905DEBD00000DB407FE6D
:1008E000FDCFDEB5CEBD00000DB407FEFDCFCEB509
:1008F00061E08AE00E94F9058C2F90E09D2BDF914A
:10090000CF910895833081F028F4813099F08230BE
:10091000A1F008958730A9F08830B9F08430D1F47F
:10092000809180008F7D03C0809180008F778093BD
:100930008000089584B58F7702C084B58F7D84BD13
:1009400008958091B0008F7703C08091B0008F7DB3
:100950008093B0000895009769F0FC010190002099
:10096000E9F73197AF01481B590BBC0184E693E0CE
:100970000C94960080E090E008958F929F92AF9241
:10098000BF920F931F93CF93DF93CDB7DEB7A1979D
:100990000FB6F894DEBF0FBECDBF19A2423008F4E7
:1009A0004AE08E010F5D1F4F842E912CA12CB12C9B
:1009B000A50194010E949D11E62FB901CA010150C1
:1009C0001109EA3014F4E05D01C0E95CD801EC9350
:1009D000232B242B252B61F7C8010E94AB04A19681
:1009E0000FB6F894DEBF0FBECDBFDF91CF911F9140
:1009F0000F91BF90AF909F908F9008958F929F928C
:100A0000AF92BF92CF92DF92EF92FF920F931F931C
:100A1000CF93DF936B017C01142F9B01AC010E94EB
:100A20000C14882319F08FE392E027C04601570188
:100A3000E894B7F82FEF3FEF4FE75FE7C501B40148
:100A40000E940C1481110DC02FEF3FEF4FE75FE7BD
:100A5000C501B4010E943B1218161CF483E492E015
:100A60000CC02FEF3FEF4FE75FE4C701B6010E94D4
:100A70009A13181684F487E492E0DF91CF911F91C6
:100A80000F91FF90EF90DF90CF90BF90AF909F902D
:100A90008F900C94AB042FEF3FEF4FE75FECC70153
:100AA000B6010E943B1287FDE6CF20E030E0A901AD
:100AB000C701B6010E943B1287FF0BC06DE284E6BE
:100AC00093E00E942901EC01F7FAF094F7F8F09412
:100AD00002C0C0E0D0E000E060E070E080E09FE3B2
:100AE000101741F020E030E040E251E40E94401253
:100AF0000F5FF6CFA70196010E94CF116B017C0119
:100B00000E94B9124B015C014AE00E94BD04C80F6B
:100B1000D91F1123B9F1C501B4010E94E8129B014C
:100B2000AC01C701B6010E94CE116B017C016EE2DF
:100B300084E693E00E942901C80FD91F20E030E02D
:100B400040E251E4C701B6010E949F134B015C01D2
:100B50000E94B9126B01E12CF12C4AE0C701B601E9
:100B60000E94BD04C80FD91FC701B6010E94E81238
:100B70009B01AC01C501B4010E94CE116B017C0147
:100B80001150E1F6CE01DF91CF911F910F91FF90AF
:100B9000EF90DF90CF90BF90AF909F908F9008958F
:100BA000CF93DF93282F30E0F901EE53FF4F84916C
:100BB000F901E255FF4FD491F901E656FF4FC49178
:100BC000CC2391F081110E948204EC2FF0E0EE0F13
:100BD000FF1FE057FF4FA591B491EC91ED2381E009
:100BE00090E021F480E002C080E090E0DF91CF91BE
:100BF00008951F93CF93DF93282F30E0F901EE5330
:100C0000FF4F8491F901E255FF4FD491F901E65667
:100C1000FF4FC491CC23C1F0162F81110E94820492
:100C2000EC2FF0E0EE0FFF1FEA57FF4FA591B491B4
:100C30009FB7F894111104C08C91D095D82302C0AD
:100C4000EC91DE2BDC939FBFDF91CF911F91089534
:100C5000CF93DF9390E0FC01E255FF4F2491FC011C
:100C6000E656FF4F8491882361F190E0880F991F29
:100C7000FC01E458FF4FC591D491FC01EA57FF4FA6
:100C8000A591B491611109C09FB7F894888120950E
:100C900082238883EC912E230BC0623061F49FB7CE
:100CA000F8948881322F309583238883EC912E2B02
:100CB0002C939FBF06C08FB7F894E8812E2B288312
:100CC0008FBFDF91CF9108951F93CF93DF93182F9C
:100CD000EB0161E00E942806209711F460E004C057
:100CE000CF3FD10539F461E0812FDF91CF911F9182
:100CF0000C94F905E12FF0E0EE53FF4FE491E3305F
:100D0000F9F048F4E130B9F0E230A1F584B5806241
:100D100084BDC8BD34C0E730E9F0E83019F1E430F3
:100D200049F580918000806280938000D0938B0091
:100D3000C0938A0024C084B5806884BDC7BD1FC02D
:100D400080918000806880938000D0938900C09358
:100D5000880015C08091B00080688093B000C09377
:100D6000B3000DC08091B00080628093B000C0934A
:100D7000B40005C0C038D1050CF0B5CFAFCFDF91BE
:100D8000CF911F9108958E3008F08E508770806447
:100D900080937C0080917A00806480937A008091B7
:100DA0007A0086FDFCCF809178002091790090E058
:100DB000922B08953FB7F89480913B0490913C04A6
:100DC000A0913D04B0913E0426B5A89B05C02F3FDD
:100DD00019F00196A11DB11D3FBFBA2FA92F982F61
:100DE0008827820F911DA11DB11DBC01CD0142E0DC
:100DF000660F771F881F991F4A95D1F708951F9294
:100E00000F920FB60F9211242F933F938F939F93BE
:100E1000AF93BF938091600390916103A0916203AF
:100E2000B091630330913A0423E0230F2D3720F46F
:100E30000196A11DB11D05C026E8230F0296A11D34
:100E4000B11D20933A048093600390936103A093B3
:100E50006203B093630380913B0490913C04A091A2
:100E60003D04B0913E040196A11DB11D80933B0449
:100E700090933C04A0933D04B0933E04BF91AF9186
:100E80009F918F913F912F910F900FBE0F901F90C8
:100E90001895CF93DF93CDB7DEB767970FB6F89469
:100EA000DEBF0FBECDBF789484B5826084BD84B5AB
:100EB000816084BD85B5826085BD85B5816085BD55
:100EC00080916E00816080936E001092810080910D
:100ED0008100826080938100809181008160809395
:100EE0008100809180008160809380008091B100BA
:100EF00084608093B1008091B00081608093B000E5
:100F000080917A00846080937A0080917A00826078
:100F100080937A0080917A00816080937A0080913A
:100F20007A00806880937A001092C1008DE2EFE72A
:100F3000F2E0DF011D928A95E9F78BE0ECEAF2E03E
:100F4000DF011D928A95E9F788E0E7E7F2E0DF012B
:100F50001D928A95E9F786E0E0E7F2E0DF011D9255
:100F60008A95E9F74BE050E060E070E088E592E0B8
:100F70000E94821161E08AE00E94280661E087E019
:100F80000E94280661E085E00E94280661E086E074
:100F90000E94280661E083E00E94280660E080E16C
:100FA0000E94280662E082E00E94280662E084E057
:100FB0000E94280684E0809381008CE08093B80032
:100FC00061E08AE00E94F90560E087E00E94F9058F
:100FD00060E085E00E94F90560E086E00E94F90586
:100FE00060E083E00E94F90510922B0410922A041D
:100FF00010922D0410922C0410922E0410922F04A3
:101000001092300410923104109232041092330482
:101010001092340410923504109236041092370462
:1010200010923804109239041092290480E091E162
:10103000A0E0B0E080930D0490930E04A0930F0401
:10104000B093100487E090E0A0E0B0E0809311043A
:1010500090931204A0931304B093140480E096E4D8
:10106000A0E0B0E08093150490931604A0931704B9
:10107000B0931804109219048FEF80931A04109201
:101080001B0410921C0410921D0410921E04109256
:101090001F04109220041092210410922204109236
:1010A0002304109224041092250410922604109216
:1010B000270410922804EFB6E982F8948091570231
:1010C000811127C0E4EAF0E08491E8EBF0E094912C
:1010D000E82FF0E0EE0FFF1FE458FF4FA591B49109
:1010E000EC91E92321F461E08AE00E94F90561E0D6
:1010F0008AE00E9428068CB580618CBD8CB5806426
:101100008CBD61E08DE00E94280661E08BE00E94CA
:101110002806809157028F5F80935702F980FFBEA7
:101120008CB58C7F81608CBD8DB581608DBD8CB59B
:101130008F7D8CBD8CB5837F84608CBD10925602F0
:1011400010925502109254021092530210925202C1
:1011500081E0809351021092500261E082E10E948E
:10116000F90561E083E10E94F9058091B9008E7F65
:101170008093B9008091B9008D7F8093B90088E495
:101180008093B80085E48093BC0084ED91E0909357
:101190004F0280934E0285ED91E090934D02809333
:1011A0004C02E0917403F091750382E08083E0913A
:1011B0007003F09171031082E0917203F091730358
:1011C00080E1808310927C03E0917803F0917903B1
:1011D00086E08083E0917603F091770380818061DF
:1011E0008083E0917603F09177038081886080832B
:1011F000E0917603F0917703808180688083E091AD
:101200007603F091770380818F7D80830E94DA06D8
:101210004B015C01EAEFCE2ED12CE12CF12C0E9487
:10122000DA06DC01CB0188199909AA09BB09883EB5
:101230009340A105B10598F301E0C01AD108E10877
:10124000F10818EE810E13E0911EA11CB11CC1140F
:10125000D104E104F10419F78EE00E94C3069093D3
:10126000B1028093B0028FE00E94C3069093B30254
:101270008093B20285E10E94C3069093AD028093F1
:10128000AC0284E10E94C3069093AF028093AE0249
:1012900080E10E94D0058093B40282E00E94D005D4
:1012A0008093B50284E00E94D0058093B6022FB7E8
:1012B000F8948091600390916103A0916203B091D2
:1012C00063032FBF8093820290938302A0938402D2
:1012D000B0938502A091B202B091B30228E833E145
:1012E0000E943B142FEF33E040E050E00E949D113C
:1012F0003093A00220939F0279ECE72E74E0F72E42
:10130000E21AF30AF0929B02E0929A02A091B002D4
:10131000B091B10224EB3FE50E943B142FEF33E084
:1013200040E050E00E949D112E0D3F1D30939D0224
:1013300020939C02245039422536394178F080911F
:101340009E028F5F833068F010929E0280917F0230
:101350008130B1F081E080937F0205C010929E023F
:1013600002C080939E02E0917F028E2F90E08A302F
:10137000910508F0B7C6FC01EC5CFF4F0C943514E6
:1013800081E080937F0284E690E09093AB028093AB
:10139000AA028EE997E090937A0280937902909363
:1013A0007C0280937B0289E7809378021092770217
:1013B00010927E0210928102109280021092A60278
:1013C0001092A5021092A8021092A7021092A202F7
:1013D0001092A1021092A3021092A4021092A902EC
:1013E00080919C0290919D02895F9A428B37954132
:1013F00058F4809163028F5F809363028A3008F40F
:1014000074C682E080937F02109263026EC682E00F
:1014100080937F0280E098E70E9465049093A20287
:101420008093A10298728F3F984259F48091640290
:101430008F5F809364028A3008F457C683E08093FC
:101440007F021092640251C683E080937F028091F4
:10145000A3028130C9F08DE996E50E94650481E020
:101460008093A30210926502809182029091830280
:10147000A0918402B091850280938A0290938B029E
:10148000A0938C02B0938D0280918202909183028E
:10149000A0918402B091850240918A0250918B0202
:1014A00060918C0270918D02841B950BA60BB70B7B
:1014B00086399105A105B10508F417C62091AC0243
:1014C0003091AD02C90187599109893F910548F5CD
:1014D0008091AE029091AF02AC0147595109453954
:1014E0005105F8F44091A5025091A602240F351F32
:1014F0003093A6022093A5022091A7023091A80262
:10150000820F931F9093A8028093A70290917D026F
:1015100081E0892780937D02809165028F5F8093AF
:101520006502809165028A3008F47CC58091A5022D
:101530009091A6022AE030E0B9010E942114709334
:10154000A6026093A5028091A7029091A802B9011A
:101550000E9421147093A8026093A70281E08093F7
:101560007D0284E080937F028AE192E00E94AB04D6
:101570006091A5027091A60280E090E04AE00E948E
:10158000BD048EE192E00E94AB0481E292E00E94F1
:10159000AB046091A7027091A80280E090E04AE05D
:1015A0000E94BD048EE192E00E94AB04109265029D
:1015B00039C584E080937F028091A3028230B9F024
:1015C00088E896E50E94650482E08093A3028091FA
:1015D000820290918302A0918402B091850280934F
:1015E000660290936702A0936802B09369024091EB
:1015F00082025091830260918402709185028091F1
:10160000660290916702A0916802B09169027A0126
:101610008B01E81AF90A0A0B1B0BD801C7018A3F94
:101620009105A105B10570F090917E0281E08927B6
:1016300080937E0240936602509367026093680233
:10164000709369028091B40281114FC585E0809347
:101650007F0210927E0249C585E080937F029091BF
:10166000A902C0908202D0908302E0908402F090A0
:101670008502953091F08093A902C0926A02D092BF
:101680006B02E0926C02F0926D02C0928602D092E0
:101690008702E0928802F092890220919C023091A8
:1016A0009D02032E000C440B550B64E276ED85E0A1
:1016B00090E00E949D11233218F42093770203C01A
:1016C00082E2809377028091860290918702A091B6
:1016D0008802B091890297018601081B190B2A0B19
:1016E0003B0BD901C80180379741A105B10518F01E
:1016F00086E080937F0280916A0290916B02A091B4
:101700006C02B0916D02A7019601281B390B4A0BA0
:101710005B0B243631054105510508F4E6C4909170
:101720007E0281E0892780937E02C0926A02D09275
:101730006B02E0926C02F0926D02D7C486E0809357
:101740007F029091A902C0908202D0908302E09023
:101750008402F0908502963009F444C08093A90277
:10176000C0928602D0928702E0928802F0928902AB
:10177000C0928E02D0928F02E0929002F09291027B
:1017800000919C0210919D021A8309834801110F58
:10179000AA08BB0860EC70E28FE190E0A50194011B
:1017A0000E949D11122F60E77EE881E090E0A50184
:1017B00094010E949D1120936F0229813A81283C57
:1017C000324324F48FEF80936E020AC068E375E918
:1017D00082E390E0A50194010E949D1120936E0286
:1017E000109377028091860290918702A0918802DF
:1017F000B091890297018601081B190B2A0B3B0B3C
:10180000D901C801883E9340A105B10568F19091C6
:101810007E0281E0892780937E0220917702909159
:101820006E02291758F46091AE027091AF02409198
:10183000A7025091A8026417750720F488E08093EE
:101840007F020AC080916F02820F981718F0809370
:10185000770202C090937702C0928602D0928702EC
:10186000E0928802F092890280918602909187022C
:10187000A0918802B0918902C81AD90AEA0AFB0A23
:1018800028E9C2162AE3D206E104F10408F02AC4CA
:101890002CC488E080937F028091A902873019F0E0
:1018A00087E08093A9028091A302823039F088E812
:1018B00096E50E94650482E08093A30280918202F3
:1018C00090918302A0918402B091850289879A87C2
:1018D000AB87BC878091860290918702A091880295
:1018E000B0918902E984FA840B851C85E81AF90A0B
:1018F0000A0B1B0BD801C7010A97A105B10508F413
:10190000D9C18091A902873009F0C4C12090AE02EC
:101910003090AF02A101032C000C660B770B809175
:10192000A7029091A802092E000CAA0BBB0B2A015A
:101930003B01481A590A6A0A7B0A20910D0430912A
:101940000E0440910F0450911004211531054105FA
:10195000510549F0C301B2010E94111469837A83D1
:101960008B839C8304C019821A821B821C82009183
:1019700011041091120420911304309114040115E4
:1019800011052105310509F482C058016901E12CD6
:10199000F12C00E010E09201A301D301C201BB0FC2
:1019A000880B982FDC018D839E83AF83B8876D8170
:1019B000762F862F962F0E944214A0902E04B0906E
:1019C0002F04C0903004D0903104E0903204F090A5
:1019D000330400913404109135040E94B914790144
:1019E0008A012F3FEFEF3E074E07EFE75E076105E5
:1019F000710581059105A1F09CF08FEF80932E0475
:101A000080932F04809330048FE7809331041092E9
:101A100032041092330410923404109235042EC014
:101A2000211531054105E0E85E07EFEF6E077E07FF
:101A30008E079E078CF020932E04F0922F04409383
:101A40003004109331046093320470933304809314
:101A500034049093350412C010922E0410922F0477
:101A60001092300480E8809331048FEF8093320429
:101A7000809333048093340480933504E0902E04E3
:101A8000F0902F04009130041091310403C0E12C38
:101A9000F12C870160911504709116048091170450
:101AA00090911804611571058105910509F449C0EB
:101AB0008090360490903704A0903804B090390498
:101AC000A3019201281939094A095B0949015A0100
:101AD00040912A0450912B04D101A41BB50B9D0108
:101AE000BB0F440B550B30922B0420922A044092DA
:101AF0003604509237046092380470923904821A86
:101B0000930AA40AB50A8114B0E89B06BFEFAB069E
:101B1000BB0634F4812CF0E89F2EAA24AA94BA2C98
:101B2000A50194018114E0E89E06A104B10424F00B
:101B30002FEF3FE740E050E00E9411142B013C01E1
:101B400003C0412C512C320189809A80AB80BC802B
:101B5000BB0C8808982C5401A8019701550F220B43
:101B6000322FA9012D833E834F83588729813A81E3
:101B70004B815C81682D782D882D982D5701680147
:101B8000ED80FE2C0E2D1E2D0E94B91483017201D2
:101B9000110FEE08FE2C8701E982FA820B831C8369
:101BA00052016301E980FE2C0E2D1E2D0E94B914F6
:101BB0002A013B0189839D838090190490901A0427
:101BC000A0911B04AF8BB0911C04BD8BB0911D0480
:101BD000A0911E04F0911F04E09120045401CF88CD
:101BE000DD88EB2EFA2E0F2F1E2F0E94C21409F053
:101BF0008CF5E0912104ED87F0912204FE87A091FD
:101C00002304AF87B0912404B88BE0912504E98BBD
:101C1000F0912604FA8BA0912704AB8BB091280495
:101C2000BC8B49014F8B5D8AB62FA72DF82FE92F6A
:101C3000AD84BE84CF84D888E988FA880B891C8952
:101C40000E94C2143CF44501CF8ADD8ABE2DAF2D1F
:101C5000F02FE12F94014F895D896B2F7A2F8F2F01
:101C60009E2F08E00E949B14E22FF32F282D20784E
:101C700030E040E050E060E070E080E090E0A0E024
:101C80000E94CB1409F03196E093770281E08093B3
:101C90007E0204C01092770210927E02E984FA84D8
:101CA0000B851C85E0928602F092870200938802E1
:101CB0001093890280918A0290918B02A0918C02EC
:101CC000B0918D0209851A852B853C85081B190B5F
:101CD0002A0B3B0B013111052105310508F405C222
:101CE00080E098E70E9465049093A2028093A1028D
:101CF00098728F3F984289F08091A4028F5F809301
:101D0000A402833090F084E090E09093A20280934C
:101D1000A10289E080937F0206C082E090E0909368
:101D2000A2028093A1021092A40280917F028930C6
:101D300009F468C16091AC027091AD02E090A50217
:101D4000F090A602FA82E9826E157F0509F419C1A6
:101D5000072E000C880B990B0E94EA1220E030E05D
:101D600040EA50E40E949F1320E030EC4FE754E437
:101D70000E9440126B017C0109811A81B80180E048
:101D800090E00E94E81220E030E040EA50E40E9437
:101D90009F1320E030EC4FE754E40E9440129B0177
:101DA000AC01C701B6010E94CE112091A3022230DE
:101DB00039F0C12CD12C48E8E42E41E4F42E05C0C2
:101DC000C12CD12CE12C31E4F32E20E030E04AE7A5
:101DD00054E40E949F134B015C012AE939E947E76B
:101DE00052E4C701B6010E949F139B01AC01C501DB
:101DF000B4010E94401220E030E04AE754E40E941F
:101E00009F130E94B2128B01709371026093700253
:101E1000613328EF72070CF4A8C06A3C38E07307FE
:101E20000CF01CC220E0222E21E0322E40E351E0D3
:101E30005A834983C12CD12C7601CB01770FAA0B91
:101E4000BB0B8D839E83AF83B887A981BA81ED9147
:101E5000FD91BA83A983FA87E9870E171F0751F40A
:101E6000D1016D917C91072E000C880B990B0E947B
:101E7000EA1266C0E985FA850E171F070CF462C0E6
:101E8000A981BA816D917C91601771070CF45AC0D9
:101E9000072E000C880B990B0E94EA122B013C01C3
:101EA000F10162817381072E000C880B990B0E944F
:101EB000EA124B015C01D1016D917C91072E000C5F
:101EC000880B990B0E94EA129B01AC01C501B40179
:101ED0000E94CE116B017C01E985FA85BF01FF0FDD
:101EE000880B990B0E94EA129B01AC01C301B2015D
:101EF0000E94CE119B01AC01C701B6010E944012A5
:101F00006B017C019B01AC01C301B2010E949F13D4
:101F10009B01AC01C501B4010E94CE114B015C01D3
:101F20006D817E818F8198850E94EA12A7019601BA
:101F30000E949F139B01AC01C501B4010E94CF1107
:101F40006B017C01F2E02F0E311C2EE231E02215F4
:101F5000330589F020E030E0A901C701B6010E94F5
:101F60003B12882309F471CF06C0C12CD12C92E812
:101F7000E92E92E4F92EC701B6010E94B212DB01EC
:101F800002C0A4E6B0E0B093AB02A093AA02A434CE
:101F9000B10534F0A938B1052CF0A8E8B0E002C0D2
:101FA000A4E4B0E02AEF36E10E943B1424E630E0DE
:101FB00040E050E00E949D1169017A01AFEFB0E06E
:101FC0000E94921164557E498D40910928E833E1C1
:101FD00040E050E00E949D1120937802AFEFBFE0F7
:101FE000A70196010E9492116455724B8A4D910986
:101FF00028E833E140E050E00E949D1130937A02DE
:10200000209379029091B402913051F4809176023C
:102010008F5F80937602833028F090937F0202C016
:10202000109276028091820290918302A0918402A4
:10203000B091850280938A0290938B02A0938C02C8
:10204000B0938D0252C084E690E09093AB028093EF
:10205000AA028EE997E090937A0280937902909396
:102060007C0280937B0289E780937802109277024A
:1020700040918202509183026091840270918502A6
:102080008091960290919702A0919802B091990246
:102090007A018B01E81AF90A0A0B1B0BD801C70158
:1020A000843F9140A105B105C8F08091A1029091B3
:1020B000A202049759F490917D0281E098279093B1
:1020C0007D0290917E02892780937E024093960242
:1020D0005093970260939802709399028091B40292
:1020E000813019F481E080937F026091770270E083
:1020F00086E00E9464066091780270E083E00E94AE
:10210000640660917D0287E00E94F90560917E027D
:1021100085E00E94F9056091790270917A0284E667
:102120000E94EA0360917B0270917C0285E60E9426
:10213000EA038091820290918302A0918402B0917F
:1021400085024091920250919302609194027091A5
:102150009502841B950BA60BB70B86399105A1053B
:10216000B10508F477C080917F02813029F4909105
:102170007D02892780937D0285E292E00E94AB0474
:1021800080917F021FE0819FC0011124805A9E4FE1
:102190000E94AB048EE192E00E94AB048BE292E0DD
:1021A0000E94AB0460919C0270919D02072E000C6E
:1021B000880B990B0E94EA1220E030E04AE754E4D1
:1021C0000E94401242E00E94FE048EE192E00E94D2
:1021D000AB048091A1029091A20298728F3F984225
:1021E000C1F483E392E00E94AB046091AA02709173
:1021F000AB02072E000C880B990B0E94EA1220E01C
:1022000030E048EC52E40E94401242E00E94FE049A
:102210000DC08BE392E00E94AB046091A10270912B
:10222000A20280E090E040E10E94BD048EE192E0D5
:102230000E94AB048091820290918302A09184025B
:10224000B09185028093920290939302A09394029E
:10225000B09395020E9498010C942C09C12C80EC3B
:10226000D82E8CE7E82E84E4F82E85CEE4E6F3E061
:102270001382128288EE93E0A0E0B0E0848395831D
:10228000A683B7832AEF31E03183208325EC30E049
:102290003587248724EC30E03787268720EC30E030
:1022A000318B208B21EC30E0338B228B22EC30E021
:1022B000358B248B26EC30E0378B268B118E128EDB
:1022C000138E148EE1E0F4E01382128284839583EE
:1022D000A683B7838CE092E091838083EDE0F4E005
:1022E000168E158E10A2178E11A212A213A214A27E
:1022F00015A216A217A210A611A612A613A614A61E
:10230000148E0895DC01CB01FC01F999FECF06C0C3
:10231000F2BDE1BDF89A319600B40D9241505040A3
:10232000B8F708950E94BF11A59F900DB49F900D1E
:10233000A49F800D911D11240895A1E21A2EAA1BBD
:10234000BB1BFD010DC0AA1FBB1FEE1FFF1FA21765
:10235000B307E407F50720F0A21BB30BE40BF50B62
:10236000661F771F881F991F1A9469F760957095EB
:10237000809590959B01AC01BD01CF010895A29F6E
:10238000B001B39FC001A39F700D811D1124911D49
:10239000B29F700D811D1124911D08955058BB27C7
:1023A000AA270E94E6110C9460130E94521338F081
:1023B0000E94591320F039F49F3F19F426F40C942D
:1023C0004F130EF4E095E7FB0C944913E92F0E949C
:1023D000711358F3BA17620773078407950720F043
:1023E00079F4A6F50C9493130EF4E0950B2EBA2F06
:1023F000A02D0B01B90190010C01CA01A00111240B
:10240000FF27591B99F0593F50F4503E68F11A16B6
:10241000F040A22F232F342F4427585FF3CF469547
:1024200037952795A795F0405395C9F77EF41F1669
:10243000BA0B620B730B840BBAF09150A1F0FF0F33
:10244000BB1F661F771F881FC2F70EC0BA0F621F1F
:10245000731F841F48F4879577956795B795F7950F
:102460009E3F08F0B0CF9395880F08F09927EE0FA4
:102470009795879508950E94251308F481E00895A3
:102480000E9454120C9460130E94591358F00E9439
:10249000521340F029F45F3F29F00C944913511175
:1024A0000C9494130C944F130E94711368F39923A6
:1024B000B1F3552391F3951B550BBB27AA27621740
:1024C0007307840738F09F5F5F4F220F331F441F4D
:1024D000AA1FA9F335D00E2E3AF0E0E832D0915081
:1024E0005040E695001CCAF72BD0FE2F29D0660F6E
:1024F000771F881FBB1F261737074807AB07B0E8B1
:1025000009F0BB0B802DBF01FF2793585F4F3AF0B6
:102510009E3F510578F00C9449130C9494135F3F3F
:10252000E4F3983ED4F3869577956795B795F7953C
:102530009F5FC9F7880F911D9695879597F9089524
:10254000E1E0660F771F881FBB1F621773078407C0
:10255000BA0720F0621B730B840BBA0BEE1F88F7CF
:10256000E09508950E94B9126894B1110C949413E7
:1025700008950E94791388F09F5798F0B92F9927F2
:10258000B751B0F0E1F0660F771F881F991F1AF05E
:10259000BA95C9F714C0B13091F00E949313B1E01D
:1025A00008950C949313672F782F8827B85F39F01C
:1025B000B93FCCF3869577956795B395D9F73EF4F7
:1025C00090958095709561957F4F8F4F9F4F08959F
:1025D000E89409C097FB3EF49095809570956195BD
:1025E0007F4F8F4F9F4F9923A9F0F92F96E9BB2773
:1025F0009395F695879577956795B795F111F8CFEF
:10260000FAF4BB0F11F460FF1BC06F5F7F4F8F4F59
:102610009F4F16C0882311F096E911C0772321F04F
:102620009EE8872F762F05C0662371F096E8862FE7
:1026300070E060E02AF09A95660F771F881FDAF73E
:10264000880F9695879597F90895990F0008550F6B
:10265000AA0BE0E8FEEF16161706E807F907C0F028
:1026600012161306E407F50798F0621B730B840B30
:10267000950B39F40A2661F0232B242B252B21F40A
:1026800008950A2609F4A140A6958FEF811D811DAA
:10269000089597F99F6780E870E060E008959FEFE4
:1026A00080EC089500240A941616170618060906E9
:1026B000089500240A9412161306140605060895B8
:1026C000092E0394000C11F4882352F0BB0F40F440
:1026D000BF2B11F460FF04C06F5F7F4F8F4F9F4F80
:1026E000089557FD9058440F551F59F05F3F71F002
:1026F0004795880F97FB991F61F09F3F79F0879569
:102700000895121613061406551FF2CF4695F1DFF1
:1027100008C0161617061806991FF1CF8695710581
:10272000610508940895E894BB2766277727CB01B5
:1027300097F908950E94251308F48FEF08950E94D9
:10274000B2130C9460130E94521338F00E94591374
:1027500020F0952311F00C9449130C944F1311247D
:102760000C9494130E94711370F3959FC1F3950F0D
:1027700050E0551F629FF001729FBB27F00DB11D05
:10278000639FAA27F00DB11DAA1F649F6627B00D95
:10279000A11D661F829F2227B00DA11D621F739F7E
:1027A000B00DA11D621F839FA00D611D221F749F8C
:1027B0003327A00D611D231F849F600D211D822FD3
:1027C000762F6A2F11249F5750409AF0F1F08823FA
:1027D0004AF0EE0FFF1FBB1F661F771F881F915027
:1027E0005040A9F79E3F510580F00C9449130C947A
:1027F00094135F3FE4F3983ED4F3869577956795FD
:10280000B795F795E7959F5FC1F7FE2B880F911D50
:102810009695879597F908950E942513880B990B33
:102820000895DB018F939F930E949211BF91AF9106
:10283000A29F800D911DA39F900DB29F900D11241A
:102840000895AA1BBB1B51E107C0AA1FBB1FA617F7
:10285000B70710F0A61BB70B881F991F5A95A9F749
:1028600080959095BC01CD010895EE0FFF1F059056
:10287000F491E02D09940E94BF11B7FF0895821BC7
:10288000930B0895DF93CF931F930F939A9DF02D91
:10289000219FF00D8B9DF00D8A9DE02DF10D039F82
:1028A000F00D029FE00DF11D4E9DE00DF11D5E9DAE
:1028B000F00D4F9DF00D7F936F93BF92AF925F939A
:1028C0004F93D5010E94BF118B01AC01D7010E942B
:1028D000BF11EB01E80FF91FD6010E9492142F914E
:1028E0003F91D6010E94BF11C60FD71FE81FF91FE5
:1028F000AF91BF910E9492142F913F910E94BF11FE
:10290000C60FD71FE81FF91FD6010E94BF11E60F9F
:10291000F71F9801BE01CF0111240F911F91CF9194
:10292000DF9108950E94BF11460F571FC81FD91F7E
:1029300008F43196089597FB10F8169400080F9349
:10294000083098F00850232F342F452F562F672F2B
:10295000782F892F902DF4CF0594979587957795AB
:10296000679557954795379527950A95AAF70F913B
:1029700008952A0D3B1D4C1D5D1D6E1D7F1D801F82
:10298000911F08952A153B054C055D056E057F05D1
:102990008007910708950024A7FD00942A173005A9
:1029A000400550056005700580059005089581E09B
:0C29B00090E0F8940C94DC14F894FFCF35
:1029BC00410046004B005000520055005A005F0089
:1029CC00610063006400650069006E0071007500B1
:1029DC008E00AA00C700F30055011B02EE02F303A0
:1029EC0030F8BEF925FB61FCE0FC74FD6BFE49FF81
:1029FC0096FFD8FF00000F006100C100FA004901EA
:102A0C009F02AA037E046905A406D0076608CA08BB
:102A1C00494E56414C494400000000000000005053
:102A2C005245534554000000000000000000535470
:102A3C004152540000000000000000000043414CD3
:102A4C004942524154494F4E0000000049444C4504
:102A5C000000000000000000000000434F4E444501
:102A6C004E5341544500000000005052454845412A
:102A7C005400000000000000005049440000000019
:102A8C00000000000000000052554E4E494E470019
:102A9C00000000000000004552524F5200000000A0
:102AAC000000000000000000000029019600C0009A
:102ABC007601F100CF00E300000000002F020202BB
:102ACC005F02D601FA01E601D70155413A000D0A21
:102ADC000055523A004D6F64653A00537570706C36
:102AEC00793A004C616D6264613A00436A3A006E57
:0C2AFC00616E00696E66006F7666000077
:00000001FF
